:20000000004B002005560100FDC90110FDC90110FDC90110FDC90110FDC90110FDC901100F
:1C002000FDC90110FDC90110FDC90110FDC90110FDC90110FDC901103BCA0110A4
:20003C00000105090004081000040810020402010101010902000120181A18182C34041E41
:20005C00000C0E020B040B0A070800110F00A6AAACA4A9A9A399B19ABCB6A8313117191AD6
:20007C0021241B1D1F31313331313118191A22311C1E20313134310000000500BD00B70068
:20009C00B100BC001C00300038000800380102000000000002000000020000000A00000002
:2000BC0002000000020001000000000000000000000000000000000000000000000000001F
:2000DC00000000000E000000C003000080070000000F0000001E0000003C000000780000CB
:2000FC0000F0000000E0010000C003000080070000000F0000001E0000003C0000007800E8
:20011C000000F0000000F00038C40D00C80000008100000032000F0100C50D0090010000EC
:20013C004000000096000501952B0D00C80000002200000032000F020000000000000000CD
:20015C0000000000000000000000000000000000000000000000000000000200000002007F
:20017C00020002000000030004000100000002000000000000000000050001000000070048
:20019C00060001000000030007000800000000000F0001000100FF00100008000000000002
:2001BC0018000800000000002200020000000000010171010101010111010101310101011F
:2001DC00010180010001100161013B001400630173017201620143010001130106013D0171
:2001FC00350004011201000100010001000104010401330133013C01440132013600000134
:20021C00000165010001350081010001050182018301000166010001000108010901030213
:20023C007102300160021102700201020202020280020002100261023A00410063027302BE
:20025C007202620243020002130238000002000204021202000200020002000204020402E4
:20027C00370037003C024402000239000002000265020002350281020002050282028302FC
:20029C00000266020002000208020902030471040204600411047004020402040104020439
:2002BC00000410046104000414046304730472046204430400041304060400040004040453
:2002DC00120400040004000400045104640000040004000444040004000400040004650456
:2002FC00000435048104640005040004830400046604000400040804090400003600010062
:20031C000600000000000000000F000000000000000000000000000000000300FFFF0000AB
:20033C000403FFFF0000FFFF0F00E8030005401F0310000101000000FF3F0F0008000E00C8
:20035C0000000000000000000300010F000009010000000000000000000000000000000064
:20037C0000000000000000000000000000000000000000000000000000000000AD000001B3
:20039C00000000000001363601010001020100010301000104010606080400000C0100346A
:2003BC000D01000F10040101140100FF1608000020020000220100FF23010001240100FE30
:2003DC00250100082602000028010001290100012A0200002C01000F2E020000300100018C
:2003FC0031010008320200FF34010007350102FF360100003701000138010001390100FF1E
:20041C003A01000F3C0200FF3E01010F3F0100014001041F41010001420100FF43010080FC
:20043C00440800004E0100084F01000F50010001510100FF5201000A53010089540100016B
:20045C00580400005C0400006004000064040000680400006C040000700400007404000030
:20047C00780400007C040000800100FF81010001820100018301010284010001354525151C
:20049C0002030504FFFFFFFFFFFFFFFF9A1000000000000000000000000000000000000090
:2004BC00000000000000000000000000000000000000FAFA14000000000000000000000117
:2004DC000000010100000000000000000000000000000000000000000000000000000000FE
:2004FC000000000000000000000000000000000000000000000000000000000000000000E0
:20051C0000000000000000780008020030000A00000800000000000000000804FA000000F5
:20053C00FFFFFF000C1100000000000000001D1100000000000000002E010F000000FA001F
:20055C0000002F0100000000FA000000300100000000FF000000310100000000FF000000F4
:20057C00320100000000030000003301000000000300000034010000000001000000350285
:20059C0000000000FFFF0000370200000000FF000000390200000000FF0000003B02000092
:2005BC000000FFFF00003D0100000000FF0000003E0100000000010000003F010000000064
:2005DC00010000004001000000000700000041200000000000000000610200000000FFFFF4
:2005FC000000630800000000000000006B0800000000000000007308000000000000000086
:20061C007B0800000000000000008302050000005802000085010000000010000000860239
:20063C000000000032000000880200000000320000008A02000000000A00000000E53F01F5
:20065C000000790B010002A77E0000006B90010001A77E0000006B9001000355EE0000006E
:20067C006B90010004D38F0100006B90010001E58F010001DF8F0100016B900100016B9020
:20069C000100016B90010000ED5D0100016B900100016B900100016B900100016B90010001
:2006BC0002E58F010002DF8F0100026B90010000ED5D0100026B900100026B900100026D82
:2006DC00420100026B90010004E7520000006B90010003E58F010003DF8F010003A77E0072
:2006FC000003A77E0000036B9001000355EE0000036B90010000ED5D0100036B9001000325
:20071C006B90010004E58F010004DF8F010004A77E000004A77E000004A77E000004E7521D
:20073C000000046B900100046B90010004CD8F010000ED5D01000104692900000300000057
:20075C0000040000E5F7010083F90100D7F90100F1F3010055F40100CDF8010059FA010005
:20077C00BFF90100A9FA0100F1F2010011F5010065F90100F9F8010065F50100B5FA0100B9
:20079C00CDFA010095FA010081FA01003BFA01002DFA0100CDF6010067FA0100A5F9010046
:2007BC000DFA010095F60100D7FA0100952901002D6D010001F00100B9F5010029F10100A1
:2007DC00F5F90100295E0100E9840100D1840100B5F40100558D0100478D010051F6010018
:2007FC000000000000000000078F0100E98B01000DF70100000000000000000000000000CC
:20081C000000000000010400003333333333333333333333333333333303010F0000000074
:20083C00000000000000000000000000FFFFFFFFFFFFFFFFFFFFFFFFFFFFFFFFFF464854CB
:20085C00657374000000000000000000000000000000000000000000000000000000000030
:20087C002D08000001000000900B0000080000005207000001123456789ABCDEF0000000F1
:20089C0000000000000000000000000003007100300160001100700031022003500480008C
:2008BC00070010006100000014006300730072006200430000001300060000000000040086
:2008DC001200000000000000000004000400370037003C024400000000000000000065008D
:2008FC000000350081000000050000008300000066000000000008000900010371030103AB
:20091C00010301030103010322030203010300031003000300030003000300030003000352
:20093C00420300032403060300030003040312032503230325032303040304030003000351
:20095C000003440300030003230300036503210035038103000305030003000300030003A6
:20097C0025032303080309031404C0A0FE000000CC0B0000102C0020FC0B00001404C0A0CE
:20099C000A0480A0090480A008400080FE00000006088080070880800D2007C00E2007C014
:2009BC001400C080024000800300C0800108C0801E08808009400080084000800A400080F8
:2009DC00FE0000008F0000008F0001008F0002008F000300900000018F0001019000000207
:2009FC00900000038F0001048F0000058F0008048F0000048A000006510000007F00010091
:200A1C003F0004003F0002003F0001007F0002007B756E6B6E6F776E2D696E7374616E63CD
:200A3C00652D6E616D657D007B656D7074792D696E7374616E63652D6E616D657D00C0466D
:200A5C007B7374617469632D696E7374616E63652D6E616D657D00C00000010203041000D0
:200A7C000810182004040810181C10040810181C000000000800000000000000200000002E
:200A9C0040000000600000000000000006000000020000008600000082000000000000800A
:200ABC00002000800040008000000080000400800008008000008080000080840020808406
:200ADC00004080840000000000000580000006800000078000000000000000000D1D0100F9
:200AFC00A53D0100A9850100B1A8000005B3000015900100113301003DC800001B9001001B
:200B1C000D090100001000400600000015000000FF000000000000000302FFFF502F002096
:200B3C0020000000010300000000000000000000FFFFFFFFFFFFFFFF00000000000000007D
:200B5C000101010100C2010003000000000000007BC80110C5BC0110D9B2011033C2011027
:200B7C00BDAD0110C1B101106DBA011065BB01101DC0011000000000000000000000000004
:200B9C000000000000000000000000000000000000000000FFFFFFFF00000000000000003D
:200BBC00000000003A0100000000000000000000E1140100653B0100EB8F0100E98E010054
:200BDC0065AB000065F100000000000041DB0000253C010000000000000000010101000012
:200BFC00002000400700000011000000FF0000000000000005040000C33B3D3A5D3A713AA2
:200C1C00A10A8F3A0F3BB309495E850A2F3B853B881C0020B01D00200B000000040000001E
:200C3C00FFFFFFFF001610160E18151C0212032418580302100258000100000000000000EE
:200C5C0000000000000001000000FF7F000000000000000000000000000000000040024077
:200C7C000B00000027000000FF000000F80A0000E82A0020200B000041B5011095A6011075
:200C9C0015B8011001010B01010801020101004000BE040A00BE0208FFFFFFFFFFFFFFFF72
:200CBC00802E0020780C0000FF00000000000000000000000100000061850100E1470100B6
:200CDC0006000500000000000F000000998800000000000000000000D1C0011061AD0110FC
:180CFC000A000000F81C00205D730100E390010033CE0000AD8F01001F
:201000003C000000000000000000000034100000000000000000000001000000000000004F
:1C10200000000000000000000000000001000000000000000800000000000000AB
:20103C003400000000000000000000006810000000000000000000000100000000000000E7
:14105C00010000000000000000000000080000000000000077
:2010700030000000000000000000000098100000040000000000000001000000FFFFFFFF87
:10109000FF00000001000000080000000000000048
:2010A0002C0000000000000000000000C4100000040000000000000001000000FFFFFFFF2F
:0C10C000FFFFFFFF080000000000000020
:2010CC0038140000E410000095A1011091A70110A1C2011009B2011041B80110A5BC011078
:0810EC0085BC01102E0000007C
:2010F400280000000000000000000000141100000000000000000000FFFFFFFF0000000093
:081114000800000000000000CB
:20111C00341400003011000065C2011069C101101BC2011091BA011005BC0110E5BB0110EA
:04113C00300000007F
:20114000341400005411000071C20110A5B6011099BF011045B60110B5BA011025BC01104B
:04116000310000005A
:201164002400000000000000000000008011000000000000000000000000000008000000AE
:041184000000000067
:20118800240000000000000000000000A41100000000000000000000000000000800000066
:0411A8000000000043
:2011AC00240000000000000000000000C8110000000000000100000000000000080000001D
:0411CC00000000001F
:2011D00000000000301E0020040000000000000000000000200000007010000030000000BD
:2011F0001C110000381E00200400000000000000000000000C0000003013000018000000D1
:2012100040110000401E002004000000000000000000000024000000481300001800000054
:2012300000000000481E002004000000000000000000000010000000A01000002C00000028
:20125000CC100000501E002004000000000000000000000020000000641100002400000057
:20127000FFFFFFFF581E0020040000000000000000000000280000008811000024000000E3
:20129000FFFFFFFF601E0020040000000000000000000000580000003C10000034000000C8
:2012B000FFFFFFFF681E0020040000000000000000000000100000006013000018000000DD
:2012D000FFFFFFFF701E00200400000000000000000000001C000000AC1100002400000053
:2012F000FFFFFFFF781E002004000000000000000000000038000000F410000028000000C4
:20131000FFFFFFFF801E002004000000000000000000000054000000001000003C0000005F
:1813300018000000000000000000000040130000080000000000000032
:1813480018000000000000000000000058130000080000000000000002
:18136000180000000000000000000000701300000800000000000000D2
:0813780002000000D40C00008B
:041384000100000064
:0413880000000E0053
:04138C0000000F004E
:041390003200000027
:041394000100000054
:041398006C1D0020A8
:04139C00000200004B
:0413A000F18F0100C8
:0413A400FDC901106E
:0413A8000000000041
:0413AC00000000003D
:0413B0000800000031
:0413B4000000220013
:0413B8002C1B0020CA
:0413BC00010000002C
:0413C000841D002068
:0413C400080000001D
:0413C8000000000021
:0413CC00000000001D
:0413D0000000000019
:0413D400080000000D
:0413D8000000000011
:0413DC00000000000D
:0413E0000100000008
:0413E400281C0020A1
:0413E80006000000FB
:0413EC0001000000FC
:0413F0000C1A0020B3
:0413F40000000000F5
:0413F80000000000F1
:0413FC0000020000EB
:0414000000000000E8
:021406002900BB
:021408000100E1
:02140A002500BB
:02140C003000AE
:02140E003100AB
:021410002E00AC
:021412000100D7
:0114140001D6
:0814180003000000940C000029
:081420000000000000000000C4
:0414280000000100BF
:04142C0000000300B9
:0414300083C4011060
:041434003C14000064
:041438003C14000060
:04143C0000000000AC
:041440009000000018
:041444009000000014
:0414480000000000A0
:04144C00841D0020DB
:04145000458B0100C7
:041454002000000074
:04145800540C000030
:04145C006C0B000015
:0414600009C30110AB
:04146400EF5801003C
:041468002B670100ED
:04146C0095C801100E
:0414700097C8011008
:041474000000000074
:04147800530C000011
:04147C00440A00001E
:041480005C0A000002
:041484002C0A00002E
:0214880008005A
:02148A00090057
:02148C0001005D
:02148E0000005C
:01149000015A
:041494000000000054
:041498000000000050
:04149C00000000004C
:0414A0000000000048
:0414A400DB900100D8
:0414A8008566010054
:0414AC00057B0100BB
:0414B0003D6B01008F
:0414B4003B6C01008C
:0414B800315D0100A1
:0414BC009116010084
:0414C0009B8D0100FF
:0414C40011420100D0
:0414C8000DC801103A
:0414CC001DC8011026
:0414D0000800000010
:0414D40024000000F0
:0414D80018000000F8
:0414DC0028000000E4
:0414E00020000000E8
:0414E4003C000000C8
:0414E8000C000000F4
:0414EC0034000000C8
:2014F00083482DE9F04F0C4601210170DFF80892DFF80882DFF808A2DFF808B27D499C464B
:2015100020270023ADF1540D002517EA0C070B70C949119291F83C33C849CDF848C005EA24
:201530000200139108BF00287AD111984FF0E04761462A460F4002EA000008BF002843D157
:20155000129E119B4FF48600B9F8AA10DFF824C3CDF82C9012EA060700EA030008BF0028C7
:2015700019D1C34812EA060700EA030008BF00286ED037464046119E048100F1380341811E
:20159000002F83E8C00004BF331CB3F1806F5FD102295DD111E037464046119E048100F19A
:2015B00038034181002F83E8C00004BF331CB3F5803F4DD1B1F5505F4AD1006A67464369FA
:2015D00038682146984741E046465146B6F9087091F90000BC42A0F10100087017D1728935
:2015F00006F1380003C8002904BFB0F5803FB2F5505F08D0002904BFB0F1806F022A02D0E9
:2016100012F028FC03E013F06DFD17F055F8139890F90020521E02706FF00101318113E0B4
:2016300046466FF0010006F10801088063B1BE480078832802D0812059460870316919B1FB
:20165000284688472146E9E7CDF82C90B9F8AA10119A129E02202F461040374008BF002872
:2016700000F0D183B24A43F201408842149200F0A383C01C884200F09F83504690F9000047
:2016900052464746401E1070B7F90800844209D0139843F604078F420A9040F09E8316F02F
:2016B00021FE9AE3644890F83CC307F1380090E800034FF482062F4617EA090706EA080057
:2016D00008BF002820D113980C4F0A9007F1380003C84FF400322F460F4002EA000208BF91
:2016F000002A02D112F0B6FB77E313F0FBFC74E3ED1D0020E41D0020141600205819002059
:20171000EB1D0020D32F00202846BCF1010F59460E9002D00F78002F7AD1844C8120149E11
:20173000277808702B46A5816069A770427A017A337002F0070301EB032152098DB234BF98
:20175000291F891EDFF8F081437A8DB233F07F0340F01D8377490988A942C0F218830A300E
:20177000294610F001FA216A04F118000522083116F0F6FFED1EADB20D960520E17E227FCA
:20179000A37E2D4EA081C1F3011B227103EB012096F83C136081002908BFBBF1020F00F0AF
:2017B000F682BBF1020F00F3F28269B110F0070F00F0ED8241B15C490978862904D100F062
:2017D0000701022940F0E382011301F00201022952DA6378DFF8509100F00700022836D117
:2017F0004646D6F804A0002B31D1216A09A801220D3116F0B5FF0620A081D047804699F8A2
:2018100000300D48B56847680C96862B18D10FB917F0FEFB9DF9240017F04BFC9DF9246041
:2018300078770020B8774046FE77A847608900F0100011F039FA05E008020020EA1D00201D
:201850004046A84713980A9016F0A0FDA5E299F800000026862808BF01261398CDF8308021
:201870000A9076B1002013F089FCA77808E0C04600000C8C6C1B0020CDF8308013980A90E9
:2018900063788FB183B9012F00F07E826089022F03D110F0070F40F07782032F05D100F09C
:2018B0000701032901D06FE2608901094FEAE00C09D310F4405F00F06782BA4991F8E07373
:2018D000002F00F06182011301F00201022902DA810A80F05982B2490978C1F381098E11B8
:2018F000B9F1010F00F05082012E00F04D82AB49BBF1020F09D08A5D11F809108918CFB2B9
:2019100006B3C1091ED3BF1E0BE072184944127909798918CFB2C10910D259EA060311D05C
:20193000BF1CFFB20EE0C046D72F0020002F0020D52F0020CE1D00206818002059EA060387
:2019500008BF0227C0F30020391A60718D42C0F21B82ED1B5FEA5C010544A8B2208124BF9D
:2019700025210E910E990818743080B216F088FA65782061002800F007820021742210F097
:2019900072FD0020E070B4F80A801DB90D9908F02000087000250D9B60790F951D78109097
:2019B000002D3BD0051C39D108F00708B8F1030F06D0B8F1010F22D17A4890F82A04F0B157
:2019D0007848B0F854000023810809D3754991F8825095B94D681DB16D7E35F07F050CD158
:2019F0005BB98008984605D385498D68887805B1A84710B9B8F1000F01D00420E0706948A6
:201A100090F83C0310B1BBF1020F01DA15F0F4FF6079B4F80A801090E0780F90216901F17C
:201A300074004860886525890D812089A1F85C005FEA18100FD31098C0F1030082B2A1F837
:201A50005C20886DCF4916F08BFE2169B1F85C20886D801888655248CA4B0078C0F3011248
:201A7000109D18780F9BA1F80C8000F07800104318430874FF228A7320790E9005B100208D
:201A900081F8306081F83A9081F84900A089002F2946A0EB010085B2A58100F06A81BA469D
:201AB000216AE780684652464919083116F058FE3B487F19BDB2A581216900780A7C6E46FB
:201AD000C0F3011B801002F0400910F0030F00F0030744D0BBF1020F4FF0000301D1D00992
:201AF0000BD29DF801209DF8000000EB0220A1F844000DF10206A1F84200C94AB1F84400E3
:201B1000B2F85A20824203D04FF6FF72824223D1032F12D072783078C14B00EB022082B299
:201B30004A86B3F85810B61C0120914213D04FF6FF71914218BF00200DE0C94800683146AD
:201B5000323017F074FAC648B54900684F31323016F02AFC08360346002B00F00D81104894
:201B70000078831126D02069BBF1020F03D0017CC90903D309E059EA070706D17278317871
:201B9000B61C01EB0221A0F84210032B0CD07178327802EB012202850CE0C046AC0C00008C
:201BB0001B2F002008020020AD4800683146283017F03DFA08F00708B8F1030F07D0B8F1D5
:201BD000010F39D1A84890F82A74002F34D0A6482669876F4FF00008EFB17B7E33F07F039A
:201BF00015D096F8300002280CD003280FD107F1700006F1280116F0D7FB40B11CE0C046CE
:201C1000F01D0020B7F87000318D884214D057F80C7C002FE1D1B8F1000F0DD1914F594B2A
:201C30004046E07038784246C0F3011118780F9200F07800084330748B4890F83C7317B167
:201C5000BBF1020F0BDA0D98077847B1109830B90E980F9911F024FCA589B4F806A02069AD
:201C700081890909C0F08580806D6946524616F077FD2169886D50448865276AB1F85C003F
:201C900001225044A1F85C000DF125007919083116F066FD6E1CB5B2A58121699DF82500D6
:201CB000896D087021699DF825709DF82530886D401C8865B1F85C00401CA1F85C0007F07D
:201CD000070081F82400C3F3C10781F8257091F8246020898046002E4ED05F497F183E7807
:201CF000361D8642E68047DC216A324605A84919083116F035FD38789DF817209DF8141078
:201D10009DF8163040193D78001D01EB026180B201EB0341A0819DF81530206901EB032168
:201D300081616DB14E4800686D1E06A92A461C3016F016FD397820696944C97D80F82610AB
:201D5000806D05A9324616F00BFD2169886D80198865B1F85C00A8EB06078019A1F85C001A
:201D7000781E82B22281B1F85C000A818018A1F85C0000F07FF810E017F07AF812F06AF895
:201D90000BE0C0461A2F002016F046FE05E016F043FECDF8308013980A90DDF83080D8F854
:201DB00004008047216A0A680023137109682162D8F80810884710E0404680784146574667
:201DD000401C887097F900005146401E087012F041F816F087FA13980A9023480B99104F2D
:201DF00000226FF0010690F83C03A1F8AA203E8110B11498007808B916F05EFC0A9991F92F
:201E10000000401E0870194890F9000010B9134800210170139A92F9000098B102E0C046D3
:201E300058190020119B129F02214FF0E0401940384008BF002908D092F90000002804DCF6
:201E500017F0E6F8002003F0C3FE0949002015B00870BDE8F08FC0463C000000E21D002085
:201E7000102F00201B2F002008020020EB1D0020ED1D00202DE9F04FB64D28692C89296ADC
:201E9000AE89806DADF1440D22468919083116F067FC2969886D00198865296A3619B6B29C
:201EB00001220DF13E008919083116F059FC296A761CB4B2042204A8AC810919083116F092
:201ED0004FFC9DF813109DF8100000EB01602B699DF81210241D00EB01409DF81110AC8163
:201EF00000EB0120049016F06FFDD863049816F0C1F9A3F84000EA2016F08CFA02219648B7
:201F10002C690170217CE878084320749DF93E0017F0CFF884F8460021899DF93E00DFF816
:201F3000F4B284F8480004F17400A065B4F85C00401A61684FF0000AA946401801466060F7
:201F5000A08984F847A0820A18D2020955D310F0070F07D000F00700032812BF081C606870
:201F7000401C46E06168C87800F00702401000F0380000EB42004018001D3AE00CB917F0CD
:201F900047F8A089800A2ED361684878C7112AD12589616650464B780A7803F07F035B00C2
:201FB00003EBE2137E2B0DD07F2B09D002F07F0280188918801C891C80B28542EBDC08E090
:201FD000514600E00121801C84F8601080B2854201DA504605E06168091861602189091A09
:201FF0002181A4F86800606E10B1B4F86800B8B160686061A089000918D294F86000002866
:2020100000F01881204612F08BFCD9F81040E06C002800F00F81B4F85000002840F00A8144
:2020300016F014FF5046C9F8100036E250465646059094F82470069005A906AA07AB0796CE
:20205000204605F017FE002840F0E780059B656960682689291A701A86B20BB916F0D8FFB6
:20207000B4F85C000090019502960698001D03900598A169A36D3A4615300FF0DFF90028C1
:2020900040F0CB80BB4894F860502689C15D701A208115B1204612F043FCA58905F00705E2
:2020B000032D02D160680078E07394F80F80732009A915F061FA832010A906F099FE51463A
:2020D000DC460AE0C278012A03D1002F08BFDC2028D0001D491C0990C9B29DF8400088428C
:2020F00040F39A8009988278032D07D00378AB420DD09CF800600EB1022D08D0032DE8D1F9
:202110000378032BE5D103465B784345E1D1BB10B3EBA20F05DA02F0030207F003039A4231
:20213000D0DD504680460598E77B90F814E0514601E0491CC9B28E456ADD06694B00032DAF
:2021500006EB03020AD1F35C032BF2D15278BA42EFD10CE0002F0020D32F00201278AA4205
:2021700005D09CF80020002AE3D0022DE1D10698077C002F08BFB8F1DC0F4DD0A069B0F196
:20219000FF3F43D0712008A915F0F6F9B548078947B3089D51468446059A95421CD19CF824
:2021B0000AE0BEF1000F08BF50460CD00698C2687346504696888E4205D05B1E02F10802DE
:2021D00000F10100F6D186451ED0069AD268A36952F830209A4217D87F1E05F12C0501F17C
:2021F0000101D9D1C2000698A169C368491CD150C0681058B0F1FF3F02D107980121C170D4
:2022100084F801A0504609E0DB2007E0DB2004E0DC2002E044050020DD206070D9F810401C
:202230006070A0696778606527B1F22016F0F2F8D9F810409B4D95F83C03002800F0AD801D
:20225000A189DFF8648201F00702022A65D199F80170002F61D16778002F5ED1D9F810109A
:202270008DF83FA00DF13600283116F0E0FED9F810100BA80A22283116F072FA414601F165
:202290001002D9F81070D5F860331088401C1080786E04210DF13F029847444609F1100B1F
:2022B00028B9686818B19DF83F1080F86810D9F8107097F83000022812D1DBF8000005F5D6
:2022D0006A710E4602222830203115F0CBFB38B906F116010DF1360016F0A9FED9F81070F6
:2022F00072480078862807D1608A401C6082B88900F0100010F0D8FC95F83C0328B1D5F867
:20231000841311B1D9F81000884716F09FFD5046C9F8100016F03AF8C1E0654A1778002F55
:2023300030D0C1F3013102292CD16078002840F0B4809DF83E005F49464699F80370087098
:20235000B08A04F128021C34002F00F10100B0820CBF50460820584953460B60009001941E
:20237000B5F8CE33117A0D2005F096FD20B915F043FB03E04000000015F0A6FF5846D9F807
:202390001040007848B1D5F8841331B1204688472846D9F8104090F83C03A7890A9407F0D6
:2023B000070760B1A07BFF2873D0032F05D1204640680078042802DD6BE0012F69D1381CC7
:2023D0003AD0401E50D0801E63D1A089C0F30130022803D16068007807282BD0208900284D
:2023F00057D0204641684A1C42600F78A446C7739CF824606EB9002F4BD00A2F49DA2F4987
:202410000089C95D814209D0082F42D1082805D03FE0C07B00283CD00A283ADA204601894E
:20243000491E0181C17B0B3101700A99C87B401CC8731BE0322018E095F8B5030F280BD0A1
:2024500016F0D6FA40B90A988189091301F00201022901DA2969884795F8EB030A9C2074C5
:20247000152002E0C01D0020162020700A9905F17C0014F041FB124C6068804795F884100F
:20249000491C85F88410A1688847202016F00CFC3DE70AA813F09CF939E711F0DBFC11B069
:2024B000BDE8F08F08020020B41C0020D72F0020D52F002056190020CC1B002047000000A7
:2024D000681800202DE9FE4FDD4981460122A1F130000260D8480768002FFCD0D74AE34ED9
:2024F000C027D848D84B17603268920808D2324652F8042C03F14104120C42F0F00222701E
:202510004FF0000A8346C1F800A0DFF88CC3DBF80810E04F0191880E43D2480E41D38020B9
:2025300018744FF6D802A3F8512018703868C0F30464162CA8BF203C1E460F3E307800F043
:202550001F001628A8BF2038844223D0624602F1980EE44ACEF800A0251A022D05DC15F16C
:20257000020FB8BF6FF0010500E002254019156800F01F05844245F4F855A6F866504FF08E
:2025900001051560E8D110682E4616601068CEF80050106838460068C0F30420162808DBB1
:2025B00006E0A7F1D0000068C0F30460162800DB203800EB2170401C162805DA10F10A0FBE
:2025D000B8BF6FF0090000E01520D54E00F01F0040F4F850A3F85900306880083ABFD14823
:2025F000C0F800A041F040616246C80E8E0E80F0010000F00100106086F0010000F001004D
:202610009060019811F082F80146182014F0D4F8A7F13806CD4C30683568A4F10408C0F3DF
:20263000870105F0030041EA0021D8F80400C04D446840F2FF32534688B22C2100902846B0
:202650004038A047F06AC0F30D011C2014F0B4F8B549706A014000F07C400143142014F0C3
:20267000ABF8316A01F47C000904090C0143102014F0A2F87D4AB06A1268C0F30351C0F352
:202690000344520813D2DBF80020130511EB237103D41029A8BF0F2100E05146120414EBD6
:2026B000227403D4102CA8BF0F2400E0544644EA011400F47F4200F0FF01B9F1220F42EA5E
:2026D000044241EA020124BF00F0804001430C2014F072F8954CB9F1220F32BF01202068AF
:2026F000C0F30070B9F1220F4FEA400040F0200085F8090126BF2068C0F3407001208D4EB0
:20271000B9F1200F40F0100085F8090138BF514606D33168C80C00F44070C1F384510143C4
:20273000282014F049F8B9F1200F26BF3068C0F301505046B9F1220F4FEA400040F0600028
:2027500085F80C0126BF2068C0F3C0605046B9F1220F4FEAC00040F0800085F8010126BF21
:202770002068C0F345505046B9F1200F4FEA800040F47C40A5F89C0138BF6F490AD3306803
:2027900001038A15920501F47C1100F00F00114341EA0031082014F00FF8CC3F4FF48000BD
:2027B0002860664AB86D40F21E216FF31F40814216D93868030E03F00F0113F00F0FC0F340
:2027D000034018BF491E072805D006280EBF0720801C00F00F0041EA0011A2F1080001705F
:2027F000DDF804C0CCF381477F1E02D07F1E31D02CE02068810C29D24FF480412960D2F829
:202810000210430AC0F3033703F0800321F08F010B4347EA0301C2F80210D2F80130060AEB
:2028300066F30303C2F80130116800F0E70721F0E70147EA01000CE09402224300600C4029
:2028500040100940AC3F0050156208404FF000402A46106005480068C0F3C0070FB940201F
:20287000A8624FF40070286402E0C046B03F005020684027C0F3C14040F0300085F8C80090
:20289000CCF3815080B3401E08D0FFE7401E23D0022122E08813005000002043012014F060
:2028B000A5FC06460420314611F084F9042014F09DFC8642FAD12248066826F07F4014F0FD
:2028D000A5FAD8F81400036807214FF06022300E98474FF4806028600321042011F06AF99D
:2028F00009E0C0462C2009400420012111F062F9144814F08BFA203C206800F03F0085F82D
:20291000CB0FD8F80030124ED96830680220884710480D4C076001212160BDE8FE8FC046B0
:202930000000094094042A43FCFCFC008C13005040A00C409813005000803F400A6008407E
:20295000A83F0050BD37860094046042A40100102C20094000600C402DE9F04F0D46C94CC9
:2029700001686162416880686160ADF12C0DA060284613F0BBFD4FF008094FF0010BADF889
:20299000089002A8ADF80AB0616A08908847BE4E9DF80C1071700499716108B115F0B4FBDA
:2029B00028688047A046D8F80400804709904FF40057ADF808901E20D8F82410ADF80A00CE
:2029D00008980397884713F05DFCCA4C206C40688047206CC16868468847206C83686A4618
:2029F000002001469847E06308B915F08DFB15F05BFDC24FC4F8D470C24AC4F8DC20C249B3
:202A1000C4F8E010BC4830610025A4F85450BC4BC4F8D830BD4FC4F8E47004F5C472C4F82E
:202A3000642104F1C001C4F8681104F1D400C4F86C01B74BC4F8E83014F0B4FC04F1980706
:202A500004F51C70C4F87471B34AC4F87001B14BC4F80821B14FC4F8B03003F16E00A7652B
:202A7000B04AC4F8B400AE4B2266B04FE365B4F85410C4F8107241F00100A4F85400AD4AAD
:202A9000C4F83022A8496166A94BC4F8203204F15807C4F88471AC486062A7492161A84A3F
:202AB000E261A64BA361A749216214F081FFA74FC4F84073A849C4F84C13A54BC4F8443343
:202AD000A44AC4F84823A54FC4F85073A649C4F85C13A34BC4F85433A24AC4F85823A34FFE
:202AF000C4F86073A449C4F86C13A14BC4F86433A04AC4F8682384F83C53B4F85400B5607F
:202B100040F01000A4F854009C4FC4F870739E49C4F87C139A4BC4F874339A4AC4F8782336
:202B30009A4FC4F880739C49C4F88C13984BC4F88433984AC4F88823984FC4F890739A4985
:202B5000C4F89C13964BC4F89433964AC4F89823964FC4F8A073984981F800B0944BC4F8E6
:202B7000A433944A156002204D8014F01DFEFF210222F06216F0A3FAF01CFF21022216F07E
:202B90009EFA022014F010FE8C4F386008B915F0BBFA38682946022216F091FA07A806A949
:202BB00013F08CFBF06A9DF81C10421C01709DF81C00107025709DF81C00B07015F050F8AD
:202BD000B061089FD8F82410ADF808901420ADF80A00384688471523ADF808900398ADF807
:202BF0000A30D8F82410F061384688470398754FDFF8DCA1744B3D70801E3062704E1D704F
:202C10000AF10E023570108875700E30356180B215F036F9074677610FB916F0F9F90297BF
:202C30008DF80C509DF80D00684965F301008DF80D009DF80D00534665F383008DF80D00BD
:202C5000D8899DF80D20088065F307128DF80D20ADF80E00706902A94A4615F081FD3762B3
:202C7000756212F071FD5B4E3078012802D0284602F0AEFF58480570584F3D70307801286A
:202C900007D003E068180020981B0020284602F09FFFD8F808100998884701F0EDFD15F0C1
:202CB0000FF994F8EB0312F0B1FB584602F090FF0FF02DFE4A4805703078012802D0284673
:202CD00002F086FF10F080FE1820464FADF80890454EADF80A00D8F82410039708980496CB
:202CF000884708B116F094F903F0FAFC0BB0BDE8F08FC04608020020D9510100398C0000C1
:202D1000C53E010089800100A5D700002DE7000081220100CC010000B9D6000089BD0000BF
:202D300039B40000D5530100056A0100DD480100512601002D900100C18F0000C9DE0000AA
:202D5000F1760100E9240100C564010071080100A56E0000D92B01005D620100C584000028
:202D700025F2000079610000FD2D0000671A01006D8A000091D80000858801009196000011
:202D9000E14E0100E978010079D9000055A700007D730000C5800100E5F20000C54201002E
:202DB000C578010039550100D17B0100A1840100D98F0100B42F0020901E0020C82F002072
:202DD000002F0020D32F0020D52F0020D4160020C01D0020ED1D0020D72F0020CF2F0020D9
:202DF000D42F0020772E0100681D00202DE9F04FADF1840D1A9104461B920DF15F00CF49BA
:202E10001C93082215F0ACFC2046694613F06AFC1D9018B900200146209006E202200027D8
:202E3000A41CDFF820B31E90C54E2097204602A911F01DFE5FEA000900F0F38120990DF106
:202E50004100162216F03BF99DF809707F1E00F088807F1E40F0DD81B9F10A0F40F3E48186
:202E7000A41C06A80422214615F07AFC241D07A80222214615F074FC42F20B000DF11E0180
:202E900012F026F8BDF81E00BDF81C10884200F3CB81A41C14F8010B14F8017B14F8015B7D
:202EB0008DF8410014F8011B8DF842700DF141028DF84350204606F00DFBC249097800286C
:202ED000044400F0B1811D9D012905F1020500F099814FF400500DF1570111F0F9FF0DF1AD
:202EF00057000DF15F01082214F0BCFD40B11A990DF15700082214F0B5FD002840F08281F2
:202F100042F2010006A906F0BBFB42F20B0007A906F0B6FB42F205000DF1410106F0B0FB61
:202F30000DF1420142F2060006F0AAFB0DF1430142F2070006F0A4FB11A942F2090006F06C
:202F50009FFB9DF8440028B1022840F05B8142F2030001E042F20D000DF1450106F090FBC1
:202F700050E1B9F1040F40F35F81A41C14F8010B14F8017B14F8015B8DF8410014F8011B8A
:202F90008DF842700DF141028DF84350204606F0A1FA0028044400F047811A9808A906F019
:202FB0003DFC9DF83E00002840F00E819DF8440000287BD1B6F84E70002F00F00081B6F807
:202FD0005200874207D0308B718B884201D109F0AFFCB06D20E0B76D4FF4005004A911F076
:202FF00077FF14F09DFE4FF6FF78209D1F90AA46B6F84E00A84243DCB06D4FF6FF71414537
:203010000AD04FEA480707EB88073818808812F087FCB06D3F1823D1B6F84E300746002BD4
:2030300008BF209D19D05846209D40681946D846BF1FBF1DFA782AB1491E05F10105F8D160
:20305000BF1D0AE08047B6F85210491CA6F85210D8F808108847B6F84E30AB4200F0978087
:203070001A980AF0F3FCB8800120F870FD788DF83E50B888ADF83F00209B8DF82B30A3E01A
:20309000B88811F095FD0146082204A814F0EAFC40B1388801041F9815F0E1FF82453CBF32
:2030B0008246A8466D1CBF1DADB2A1E7B6F84C70002F00F08480B6F85000874207D0308B18
:2030D000718B884201D109F033FC706D1FE0776D4FF4005004A911F0FBFE14F021FE4FF6BE
:2030F000FF78209D1F90AA46B6F84C00A84250DC706D4FF6FF71414509D008EB481738184A
:20311000B0F81F0012F00CFC706D3F1829D1B6F84C300746002B08BF209D20D0DBF80400B3
:20313000209D1946D846213F2137BA7F62B1491E05F10105F8D1213711E0C046A004000022
:2031500060100020681800208047B6F85010491CA6F85010D8F808108847B6F84C30AB4229
:2031700015D020993846212215F0A9FF1A980AF06DFCA7F81F000123FF2039462122BB7729
:203190000546787208A8FD7215F0EAFA1CE0612057E0B7F81F0011F00BFD0146082204A83A
:2031B00014F060FC38B179681F9815F058FF82453CBF8246A8466D1C2137ADB294E764200B
:2031D0003FE0C0460A0200209DF83E000DF14101162240F004008DF83E000AA815F0C0FADB
:2031F0001D9D9DF84400AD1C48B19DF856700DF14500394611F08AF83F1A8DF83D7008A88F
:203210000FF032FE1E9809EB0007BF1CB8B21E9003E01D9D4C44A41CAD1C1E9885423FF762
:2032300005AE1E98022803DC20990A46672004E01D9A911C121A2098921C1B9B19801C999E
:203250000A8021B0BDE8F08F2DE9F04FCA4C0220002504F11C01ADF1440D41F80C5F401E2A
:203270008D60FAD104F14000A846062701467F1E21F80C8BFBD14FF00809CB4BC949CB4E45
:20329000A0F800901B1D816004F11C07AB4623F003031A46F11A21621046A3611E46E361CB
:2032B0005B18834200F2BF81881021F00301E82302EB800040F804BCEC3933604046C2F87F
:2032D000E810E83222611BF0CDFF6061B9493868DFF8E8A220610A680AF10C06326049686B
:2032F0007160B348B4494A4614F0BCFB28B9B048CE490A68026049684160D048D04FC0F8A5
:20331000AC70C0F8B450C0F8C450CE4EC0F8C850CD4BC0F8B060CD4AC0F8B830CC4FD0F893
:20333000AC10C0F8BC20C0F8C07009B1404688471CF010F8C74ECDF82CB041460C2206F1C0
:203350002C000FF090F8C44F0222ADF8209041F270733763F08DADF82220616A7363102732
:20337000099740F01B00F08508A8884700280CBF0A9F47460120ADF82090616AADF822002D
:2033900008A888479DF82400544620700A99616077B1D021397087F80180B87087F803806B
:2033B00087F804803946BD600220FD6012F052FDAA49182001221BF00BFF7D49E22015F05E
:2033D000DBFB18201CF0ECF960706068B246CAF80C000BF099FDAB4F0AF18800A060DAF8A0
:2033F0000C509F4C41466762F520A56015F044F8F820414615F040F89A4D0D200E266870CF
:2034100005F10C01AE7005F118000DF045FCA860687815F061FA00B1C146A87815F05CFAB4
:2034300008B949F010099049A86815F0C7FC8F49C82205F1240011F07DFF8D48B9F1100FC1
:20345000686010D1606A70B1C26862B1FF208DF810004FF6FF77ADF8127004AEADF814701A
:2034700096E803009047834D05F1140005F108010DF012FC6860404615F0DCFC4746AE1E7C
:20349000814606F8028F02207070384615F04CFD014668684A46C9B212F064FF7F1C022FA5
:2034B000EFDB754905F120004FF4FA7211F042FF724D05F11000291D0DF0EEFB2860606A2A
:2034D000002845D00769DFF8B8916FB1009449460EA80A68898802600EAE818096E80300F3
:2034F00001234246B847606A002831D0C26852B149460EA80B68898803600EAF818097E888
:2035100003009047606A18B307690FB306208DF80800ADF80A000DAEADF80C8002AD009667
:2035300095E8030042460223ADF83420B847666ABDF834007769A08057B1BDF8340002AEFC
:20355000401CADF8340096E8030002220DABB84737A015F09DFAE820012114F08DFFE72096
:20357000092114F089FF606A0626002838D00769002F35D002E0C046681800208DF8186036
:203590000425ADF81A500BA8ADF81C8006AB009093E8030042462B46B84788B90B9819300B
:2035B00083461DE045F90100D82F0020004B0020A81D0020C8FF0100B40C00009C1D00201E
:2035D000606A8DF8186006AFADF81A504469ADF81C8097E80300CDF830B02A460CABA0472D
:2035F000CDF82CB058460EF0D9F8E0200C2114F043FF4F20032114F03FFF5720052114F0C4
:203610003BFF4E20042114F037FF5920032114F033FF14F0F7FD0AF10200012115F009F9A2
:2036300000F00CFAFCE740F804BB3AE6F012005054492053656E736F7200C046D407002000
:20365000315B0100555F0100110C01003D63010099E90000EC16002020BF0200114C000077
:2036700010150020581A00201D640100F185010089870100E81A002091120100381D00201E
:20369000DC0C0000800800202DE9F04F00215022ADF1940D02A80EF0E6FEF22021A915F0F6
:2036B00063FAD14CBDF8840021A9A4F87400F32015F05AFABDF884000DF10901A4F87600AE
:2036D000E22015F041FAE08DADF81200410806D304F11801096805A80160BDF81200810875
:2036F00005D3211D098806A80180BDF81200C10807D304F11C0109680DF11A000160BDF8C9
:203710001200010908D30DF11E0004F1580130220DF090F9BDF81200400903D3606B15900A
:20373000276B14970BF034FE12F05AF90520002109F07EF90520012111F020F81DA815F0DA
:2037500043FA01268DF87C601DA813F039FD29254FF000088DF8685022AF17968146CDF8BA
:20377000648023AB16970320189316A98DF88800484615F0BBFB00286BD08C208DF88800DB
:203790008DF86850179622AF199623AB169716A91893484615F0AAFB8DF8685022AF1796D7
:2037B0008D20199623AB8DF888009DF88CA0169716A91893484615F099FB8DF868501796D9
:2037D00022AF19968E208DF8880023AB169716A91893484615F08AFB8DF868508F20179608
:2037F00022AB199623AA8DF8880016A916939DF88C701892484615F079FB384612F01EFF1C
:203810008346504612F01AFF8246864958460EF0E9FD0146504609F00BFA12F0F3FE82496C
:20383000062780B2B0FBF7F550460EF0DBFD7F49824658460EF0D6FD0146504609F0F8F950
:2038500012F0E0FE80B2B0FBF7F0A842A8BF85B2A580484615F045FB75480078022807D0FE
:20387000032805D0414600B9314630460EF0CAFBBDF8120041082CBF0F250B25810824BF7D
:20389000AD1CADB2C10824BF2D1DADB2010924BF3035ADB2400924BF0835ADB2284613F0B1
:2038B00057FE071C00F0BA8005260DF1090100F8016B0A68026049684160BDF8121008308A
:2038D00015F0A0FABDF81210844648080BD3BDF81410604615F096FABDF8161015F092FAEA
:2038F000BDF812108446880807D3BDF81810604615F088FABDF812108446C8080BD3BDF89F
:203910001A10604615F07EFABDF81C1015F07AFA8446BDF81210474A9388080961D3BDF8A9
:203930001E10604615F06EFABDF8201015F06AFABDF8221015F066FABDF8241015F062FA52
:20395000BDF8261015F05EFABDF8281015F05AFABDF82A1015F056FABDF82C1015F052FA43
:20397000BDF82E1015F04EFABDF8301015F04AFABDF8321015F046FABDF8341015F042FA43
:20399000BDF8361015F03EFABDF8381015F03AFABDF83A1015F036FABDF83C1015F032FA43
:2039B000194615F02FFA117815F02CFABDF8421015F028FABDF8441015F024FABDF8461051
:2039D00015F020FABDF8481015F01CFABDF84A1015F018FABDF84C1015F014FABDF812106F
:2039F0008446480909D301E0EC1600201499604612F00FFC159912F00CFC04F120012A461F
:203A100030463B4607F0AAFD0820ADF802600A4C01972168ADF800006846884725B0BDE8BF
:203A3000F08FC04685EBD13F3D0A173FF6285C3FEA1A0020101500208C1800202DE9F041A7
:203A5000CC4CCD4DDFF834836088ADF1400D4108C0F0838006A802A910F06CF901286DD1A2
:203A7000404624300068D8B10769CFB1062009AB8DF83000022600930022ADF832600CAE1E
:203A9000ADF8342096E803000C23B84740B9BDF82400E0850A9F27630B98606314F0F4FEA8
:203AB0000226BDF80A10BDF8080084F8286003AA218410F0BFFA011C02D0BAA015F09FFA4C
:203AD00030460FF0BDFDBDF818009DF81470A5F8400007A985F8427005F1500015F01FFAA1
:203AF000BDF81A0005F1460603A9A5F84E00304615F015FABDF80A00B5F84010A5F84400E7
:203B1000502014F0ADFCB5F84E10532014F0A8FC4A20314615F030F895F84210E12014F060
:203B3000ABFCB5F844104B2014F09AFC05F10A00102114F07EFE0120207008E014F0A0F8E2
:203B5000206101200FF07CFD002014F08DFFA01C012114F058FE2046408880080DD3206B32
:203B700013F0B4F913F01CFD00B220836083FFF78BFDA01C022114F046FE6F89780805D33C
:203B900005F10A00012114F03EFE6F89B80805D305F10A00022114F036FE6F89780917D365
:203BB0008749182042220FAB1BF012FB95F85A0005F10A06032818BF042802D1286E13F030
:203BD0006DF912F08DF83046102114F01CFE6F89B80907D30EF0E8FD05F10A00202114F068
:203BF00012FE6F89F80907D30BF0CAFF05F10A00402114F008FE6F89780A13D395F85D0059
:203C100014F032FF95F85D0005F10A06032803D15220012114F018FC30464FF4807114F016
:203C3000F2FD6F89380950D395F85C0005F10A0600283ED0401E36D0401E02D0401E30D012
:203C50003EE095F85810472014F016FC95F85910542014F011FCB5F844104B2014F000FCDD
:203C7000B5F84010502014F0FBFB092701238DF8097095F842008DF80A3002AA8DF80B3081
:203C900050498DF8080018201BF0A2FA95F85A00012815D1E87898B13046202114F0C9FDEF
:203CB0000EE003200AE05220012114F0CDFB022004E05220012114F0C7FB01200FF058FCC5
:203CD0003046082114F09FFD6F89454617B1A86815F0C4FAE988687849081CD3A9780209BA
:203CF0004FF0000601D301290ED040090ED301290CD030A014F0CCFEA01C012114F099FD4D
:203D1000A86815F0ABFA01E011F0A8FA6E70A81D012114F078FD608800283FD10A200825A0
:203D3000294CADF80A004FF0FF37ADF80850616A039702A88847002830D10720ADF80850B2
:203D5000616AADF80A0002A88847049E0E9628BB1E499DF80E200878904214D19DF80C0035
:203D70004A7882420CD089684B6C63B100213246984708E0EC160020BC170020101500205B
:203D9000304601F0F5F80E9840B1ADF808500320ADF80A00616A039602A8884710B0BDE817
:203DB000F081C04641757468204572726F723A20307800C05374617274696E672E2E2E0028
:203DD0007D550100658F0100681800209C1D00202DE9F04FBF4C0546A07AADF1340DC0002E
:203DF00013F0E2FCDFF8F092089009F10400006880470B900AA9822004F0FAFFBDF82800FA
:203E1000002834D14FF000084FF6FF76ADF8288024E0ADF81460BDF82800ADF81660FF21E2
:203E30000822ADF8100006A815F049F9A77A57B143461946089AC8007F1E01F1010113502F
:203E500010448680F6D18DF82480D42004A903F05DF9BDF82800401CADF82800A088BDF83B
:203E700028108842D5DC82200AA903F04FF9B94F0020A0464FF6FF79A2463988ADF82800AE
:203E900006E0B44FBDF828003988401CADF82800BDF828008142DCBF8F48816840F34F8164
:203EB000AD4800784FF0000B01265C460FE08A49B8F804008968641CA4B2ACE0BAF80600F1
:203ED000641CA4B23CE0A448641CA4B20078A04208DC002ED5D1BBF1000F2ED1687F002843
:203EF000CFD02AE0BDF828008DF802406946ADF80000D02004F07CFF0028E4D19DF80C3004
:203F1000012B08D19DF80B0028B90DF1030014F01BFC0028B5D16F7B002F0CBF052209220B
:203F30005E469F42CFD10DF1030005F10E0113F0F7FF0028C7D04FF0010BB8F80600002469
:203F5000A0425CDDBDF82800ADF802406946ADF80000D12004F04CFF0028AFD1BDF804008D
:203F70008145ABD0ADF8100004A9D42004F040FF00285AD106A8291D082213F0D1FF0028FB
:203F90009CD028886F88ADF81400BBF1000FADF8167022D0287B98F80A708DF82400381CC3
:203FB00008BF00200FD00899024600208B88994509D0BDF828609E4205D0521E01F10801FB
:203FD00000F10100F2D187422FDD0899AA69C000BDF828700A5040188780D42004A903F039
:203FF00095F8BBF1000F0AD0287F9DF80610884205D08DF806006946D12003F087F8B8F851
:204010000600A0427FF43DAF3349B8F80400DFF84CA189680024A04240F38F80ADF8104027
:20403000D42004A904F0E4FE18B12B498968192486E006AB184614F087FB38B9291D1846FE
:20405000082213F06DFF00283FF431AF6F882888ADF816702E7BADF8140098F80A708DF8B9
:2040700024603B1C08BF00200FD008991A4600208B88994509D0BDF828609E4205D0521E42
:2040900001F1080100F10100F2D1874203DC124989681A2454E0089A2E1DBBF1000F0CBF87
:2040B0000021A969C00011501218BDF8280031469080082206A814F053FB9AF83C0330B132
:2040D000DAF88C231AB1BDF8101030469047002606E0C046C01D002068180020761CB6B2B9
:2040F000B8F80600B04221DDBDF82800ADF802606946ADF80000D12004F07AFEE82803D092
:20411000BDF804008145E9D1BDF810000023ADF804002F7F8DF8073004A98DF80670D420BF
:2041300002F0F4FFD120694602F0F0FF0C488168B8F80400B0427FF7BEAEA042A9D00024C5
:204150000B988847089813F06BFD20460DB0BDE8F08FC046C81D0020CB1D0020080200204E
:20417000681800202DE9F04F064692F808B0307D09AF8846ADF1240D04933528039205D04C
:20419000114606F170000A2214F0EAFADFF8C8C238F07F0506BF604600884FF6FF700590F4
:2041B000F08A800934BF002008203076F08AC00834BF102080207076F08A400903D26046E2
:2041D0000E30007800E00020B076F08A41082CBF20240024000928BF44F0100475680021A7
:2041F00008F07F08307D06916D1E02280EDB0C2808DC0C2803D1022044F40854069044F0AE
:20421000030404E00D280CBF02200120044396F88C0008B144F00804E110220900D328B13E
:20423000DFF8BC9299F8E03313B908B1DF204CE149086ED306F12401DFF8A8A296F88D50BA
:20425000079100EB0A011AF805300A7999183389491DCAB29918A44B1A8808908A42C0F24F
:20427000368100284CD0049A039906F184000AF057FC0799002808603FD0806AB0F1FF3F29
:2042900039D070680023401E8DB196F88E10524600F80119515D491EC9B241B18A1992F8E9
:2042B0008320491EC9B2002900F80129F6D1079970660968896AB162090E00F8011996F8B3
:2042D0002A1000F8011996F82910089A00F8011996F8281005F0030500F8011902F0070138
:2042F00041EAC501017071683589091ACAB27060A918318105E0DB2700E0F3277770E7E044
:204310000023F08A7370C00828BF44F0100475686D1E336DA3B9B36D93B999F8F91301297F
:2043300003D13089B0F5EE7F06DA200904D202290AD144F4005401E044F48054012002E06D
:2043500044F408540220069099F8020001280CD099F83C0348B196F86B00042805D1022083
:2043700024F48054069044F4005444EA8834B8F1020FA4B20AD0B8F1030F10D1ED1F09F5A5
:204390007B71284614F053FE6D1E08E0B9F8D203001205F8010999F8D20305F80109069841
:2043B00002280CD0B8F1000F15D0BBF1000F0CD004990598814208D144F040040BE0BBF1CE
:2043D000000F08D1B8F1000F05D00599081205F8010905F8011944EA8B24BBF1020FA4B292
:2043F00009D0BBF1030F0ED10399ED1F284614F01EFE6D1E07E003990888001205F801094A
:20441000087805F80109BBF1000F05D00498011205F8011905F801093878F8B93348017853
:20443000307D0D2814D068B9306D28B999F8BC03411C89F8BC130AE099F8E103411C89F8CD
:20445000E11304E099F8CA03411C89F8CA13014605F8011904E0C046D605002044F48074EC
:20447000201205F801092C7070683789401BC1B2756078183081200926D3B06D00B1306259
:2044900099F83C0310B1307D0D281DD1746A14F1150001D114F0BCFDA16A481CA0623289F8
:2044B000306AB162471B0092D21B019090B20290706A96F88C202B4615300AF0FBFB002817
:2044D0001CBF7070071C07D10020707005E0E5277770F32013F09EFFF8B209B0BDE8F08F04
:2044F000080200203C000000CE1D0020042F00202DE9F843DFF808830F460446F80B80F023
:204510008381DFF8F892B80F80F03581BD4DB80880F02A81F80A80F00081B80B80F0EE80C0
:20453000780B80F0C080380C80F0AF803809C0F08881082014F05AFC002840F0A1808020C0
:2045500014F054FC002840F09B8068460CF0F0FB012803D10098002800F0928000240125E6
:20457000E0B214F0F5F948B1867A3EB1857290F9090005FA00F0C0B212F0A0F9641C032C8B
:20459000EED34C46032020756068783014F061FDB048002601680660AF4950F8082CB146D6
:2045B000324640F8089C04F1380014F064FD304613F0F6FB14F086F90146A268E069891ADB
:2045D000090BC1F1FF3282422CBF08444FF0FF30E06194F820601EB12169B0EBC12F1FD942
:2045F00013F03EFC494600B12946081C14D09B4840F60901018049464180427B65F30302A9
:204610004273027B61F303020273416014F004FB418811F4406FFBD084F820504946E161E1
:2046300011F072FC8E484D4649460560022013F09BF9022012F028F911200AF065FF207879
:2046500018B96068403014F01EFD8648007810B90E200AF059FF94F8210020B184F8215028
:20467000052012F011F98048B4F98C60A061B4F98E1025758E4214BF022007200DF0FCFAD3
:2046900027F008070FF0F6FADBE00835296839B1C86840880028FBD0C86840880128F7D0AF
:2046B00027F40047EEE711F079FE38B12046A4696FF4807100224FF00073A0476D494C4688
:2046D000002204F1380014F0D6FC0220E668207514F0F8F8D4F81C21636804F58E719A4204
:2046F00014BF0122002226B1801B01EB8206030BB360002027F48057E060C3E7404606689B
:2047100046B1B06830B13069B6F93410B46800222023A04727F4005793E014F0A4FC4C468A
:204730000546206F0646C8B1D4F88000B0B9D4F8840098B904204D4B20756068A36110B196
:20475000783014F086FC3069606014F0BBF8E0604FF4006104F1B40014F09DFC284614F06F
:2047700079FD27F480676CE006F0E6FB286808B927F0020765E014F076FC0546042012F0F1
:2047900035FDC8B1207CB8B148460830006898B1064614F097F8E168801BE060000B88420A
:2047B000E06002D240184008E06040F6C41181422CBFB0F5967FE160284614F04BFD11F086
:2047D000EDFD80B1A56920466FF4807100224FF00073A84726480068002808BF47F002071E
:2047F00001D00FF047FA2046646900214FF080630A46A04727F0005723E0C04668250020C7
:20481000F0250020E025002014F02DFC41460E689EB1B16A890810D2B56AB16AA943B162EE
:2048300014F018FDB06850B14DB13069B6F93410B4682A460023A04701E014F00BFD27F40E
:20485000804727B1404639462C3014F024FCBDE8F883C046141004402D450100702F002064
:2048700000000460FE1D002009DD00002DC60000D8250020DDEF00002DE9F04FD54D286ABE
:20489000416EADF11C0D02A888474FF00009D24FCDF80890B8688DF80C90002833D112F0E4
:2048B0009DFAB8B112F09AFA012813D012F096FA05280FD012F092FA0C280BD012F08EFA81
:2048D0000D2807D012F08AFA0B2803D012F086FA0E280BD112F082FA787000280CBF4846B5
:2048F0000120B870286A00F1200408B914F090FB216807F1180088474FF4FA703885B74E91
:20491000FE6206243C63DFF8D882EA6998F8FB434FF0010A4946080100EB41108018867F51
:204930002EB9437F491C9C42C9B2F4D102E0417FA14204D1824202D011F0D8FDEA69DFF84B
:20495000A4B2686A1BC88BE81B0097F90100012805D00D2803D00E2818BF484600D1052086
:204970008BF8000098F829145069A44C50F82100C4F89C0013F09AFC632005A910F0F6FDB0
:2049900098F8FB0312F002FB064694F88E006AF3020084F88E0011F06BFB042825D011F022
:2049B00067FB032811D094F8900040F00F0084F8900094F8970069F3030084F89700B07B52
:2049D000052814BF2420292016E094F8900040F00F0084F89000292384F8943094F897002E
:2049F00069F3030084F8970008E094F8900040F00F0084F89000212084F8940094F8950074
:204A100069F3871084F8950011F032FB042818D0B37A7BB99DF8140094F89510401E60F354
:204A3000050184F8951094F8960020F03F0040F0180014E09DF8141094F8950061F305005F
:204A500005E094F8950020F03F0040F0020084F8950094F8960020F03F0040F0200084F871
:204A70009600B189B07BB4F88E200A23401D484390FBF3F161F3CF02A4F88E20B08994F819
:204A900090201923800390FBF3F102F00F00D4F890200F23484390FBF3F161F31C22C4F831
:204AB0009020E86994F89820017F61F3020284F8982094F89810007FC01060F3C30184F87F
:204AD000981098F9EA0310F0E7FAB0F1FF3F05D0010828BF4FF6FF70A4F89A00308971689F
:204AF0003368EA69401E414303EB51004FF47A71B0FBF1F0A4F8A00090690078A4F8829082
:204B1000C4F8849094F88D3084F8A4006AF3030384F88D3014F0A0F9C8B9B089324A98F84D
:204B3000FB63B1FBF0F0C0B21070B1FBF0F02F49022E487006D011F09BFA032807D1052207
:204B50005C2001E00222A820294B1A700870BB682E6A5BB3484610F019FEF87898F8FB130A
:204B7000884212D13A7998F829142E6AB8688A420DD102214A468DE80600366D80344B4680
:204B900002AA2146B047EC601BE02E6AB8687168884718482B6A80F800A01E6816488034AF
:204BB0005946224607F11803B04707E0803422461148346807F118035946A047B860686A59
:204BD000A86298F8FB0398F82964F87007B03E71BDE8F08F58190020641B00206711010075
:204BF00008020020982F0020541D002054190020B41C0020EE1D0020F02C002014160020D5
:204C10002DE9F04FC34C07466068ADF1140D80470025DFF804830390002F88F8035000F07D
:204C3000C68012F0BFFB08F52A702946402214F046FABA4C04F1080001882C2707FB01F0E4
:204C500080B212F0B1FDC8F8CC02002800F05D81E17A20894843410001EBC00188B212F025
:204C7000A3FD0028C8F8D00200F04F81E18820894843800080B212F097FD0028C8F8D40267
:204C900000F043812089800080B212F08DFD0028C8F8D80200F03981208980B12A46D8F8E3
:204CB000CC1289180D75D8F8CC1289180D71D8F8CC12401E114402F12C028D81EFD1A1889D
:204CD000880000EB011080B212F06EFD0028C8F8DC0200F01A814FF6FF7AA946AB4615E0BD
:204CF000A77A7FB12946D8F8DC028019C368CA0042F803B0C0687F1E01F101011044A0F816
:204D100004A0F0D109F101001FFA80F9A088484500F3EA809548FF210822C01D14F0CFF9AF
:204D30009248FF21082288F8B712103014F0C7F9032688F8C8622789A8F8CAA2C7B14FF0AC
:204D5000010C04232A46D8F8D802910001F800C0D8F8D80240184370D8F8D80240188670FE
:204D7000D8F8D8027F1E02F101020844C370EAD17E480121042305220227343000F8041FCE
:204D9000437082707F1EC170F8D1784880F83C60A08848B12946D8F8DC22401E0A4401F1F7
:204DB0001401A2F802A0F6D1022088F8AC0298F83C0318B1D8F8400300B180470EF004FE58
:204DD00098F9EA0313F09BFE12F002FB13F006FE13F066FC13F058FC514E072456F8040BC0
:204DF00000B18047641EF9D113F096FC444604F14C00016809B110F0EBFC4A48006884F8FF
:204E1000565020B10CF0F4FE0028009068D146480078012802D0284600F0DAFE434804F175
:204E300078060570A06F002852D1361DE06F002846D1A5673E48C4F88801E5673D4FC4F8C9
:204E50008C7184F882503C4EC4F8906184F883503A4BC4F89431A570394AC4F8982184F8E2
:204E700084503849C4F89C113B49C4F8C010364FC4F8A071394FC4F8C470344EC4F8A46147
:204E9000374E334BC4F8C8602249C4F8A831354B304AC4F8CC308968C4F8AC21324A0398D8
:204EB000C4F8D020884704F2D131522004F0E0FF94F8EB030FF06CFF0EF086FD284626E051
:204ED000304611F067FB029002A810F081FCADE7304611F05FFB019001A810F079FCA1E794
:204EF000684610F075FC8DE7A37AD8F8DC724846860006EB0016D80012F056FCF119F31977
:204F1000C860D86800287FF4EBAE14F081F805B0BDE8F08F6818002008020020C01D0020C8
:204F300010030020C82F0020ED1D0020D22F0020072E010027900100C976010035930000D6
:204F500065E10000B17E0100D169010045BB0000F1A500006D6F010097FF000001AE0000D8
:204F700095300100090F010075390100B0040020B0B50446BA480768ADF1480D002F00F08D
:204F9000A8812078401E112800F2A381DFE810F06A015201380123011B010401F100E300BC
:204FB000C300B2008D005D0053004200A1012A001C001200F86B002800F08B816846214657
:204FD0000CF032FCF96B82E1386C002800F081816846002101220DF046FA60788DF8000086
:204FF000396C74E1F86A002800F07381684600210E220DF038FAA11C684613F0FDFAA57B86
:20501000A1890022ADF80A1005B101228DF80C20F96A5DE1B86B002800F05B816846002164
:2050300002220DF020FAA5788DF8015060788DF80000B96B4BE1786B002800F04A81684611
:2050500021460CF0F1FB796B41E1386B08B36846002114220DF007FAA5788DF80150A3688C
:205070000193A289ADF80820A17B8DF80A1060788DF80000E57B8DF80B50237C8DF80C30DC
:2050900094F911208DF80D2061690491396B684688476068002800F01C810146F2200870C2
:2050B0000020487010F0D6FE13E1B86A002800F010816846002124220DF0D5F96078A11C00
:2050D0008DF800000DF1020013F096FA04F10C0103A813F091FA257EE08A04F119018DF8CC
:2050F00018500B22ADF816000DF119000BF0A2FCB96AECE0786A002800F0EB80684600217D
:2051100002220DF0B0F9A5788DF8015060788DF80000796ADBE0386A002800F0DA80684605
:20513000002112220DF09FF9658862796078ADF8025023798DF80520E11D8DF80000A579F7
:205150008DF804300B220DF107008DF806500BF071FC396ABBE0F869002800F0BA80684672
:20517000002101220DF07FF960788DF80000F969ADE0B86910B120460FF026FCA07820B9C0
:20519000A069002800F0A58003E0A069002800F0A08012F055FD9CE07869002800F09980B3
:2051B0006846002113220DF05EF96D46A01C0168406829600B22686004F10A0102A80BF0E4
:2051D00039FC796983E03869002800F0828020460AF0DAFD7DE0F86800287AD06846002155
:2051F0000E220DF040F96078A11C8DF800000DF1020013F001FAA089ADF80C00F96866E0A0
:20521000B868002865D06846002114220DF02BF9A01C01686D46296040686860A07A0B22C3
:2052300004F10B018DF808000DF109000BF002FCB9684CE0786800284BD06846002110225F
:205250000DF011F960786588211D8DF800000B22ADF8025001A80BF0EDFB796837E0C04601
:20527000A41D00203868A0B36846002119220DF0FAF8A01C01686D46296040686860A07A66
:20529000410824BF01218DF80810810824BF01218DF80910C10824BF01218DF80A10010970
:2052B00024BF01218DF80B10C10924BF01218DF80C1030F07F001CBF01208DF80D000B226F
:2052D0000DF10E0004F10B010BF0B4FB39686846884712B0B0BD7047BA482DE9F84F00257F
:2052F000B94CB749056094F8E200002800F06381012800F02F81B54E02283CD0032840F06D
:205310005A8151F8250CD4F8B8100029A0F5C060C4F8D400B8BF49420028B8BF4042814240
:2053300026DA4FF08057D7F8A4014568B4F8BC0030214FF47F42082300903046A847D7F87A
:20535000A4014568B4F8C00004214FF4F802122300903046A847D7F8A401B4F8D0704568E6
:2053700020214FF440620A2330460097A847012584F8D8501AE151F8258C13F00DFD2F468D
:2053900000B901273946924F38680028FCD0B146012609F10409D9F82CA03E6009B113F00B
:2053B00001FDCAF30720C4F8BC0013F0F5FCAA4600B9B2463B68002BFCD0D9F800B0BAF128
:2053D000000F3E6001D013F0EDFCCBF38440C4F8C00013F0E1FCAA4600B9B2463B68002B06
:2053F000FCD0D9F81C90BAF1000F3E6001D013F0D9FCC9F38120C4F8D000B8F5C061C4F8E0
:20541000B81000F09C8094F8D80068B9C4F8D410D4F8C000C4F8C800D4F8BC70C4F8C4708B
:20543000D4F8D030C4F8CC30D4F8D400D4F8BC30002854BF02226FF0010204F1C8010F688A
:2054500000EB40008018421000EB927207EBA2000860D4F8C810C4F8C43000291CDD1E297F
:205470003CDDD4F8CC0030B93429B4BF15391E21C4F8C81025E02A29BABFD4F8C8000B38E9
:205490001E20C4F8C800D4F8C4003F28B4BF401C3F20C4F8C4001FE0D4F8CC00032812D0F1
:2054B00011F10B0FC6BFD4F8C8000B30301CC4F8C800D4F8C4000028C4BF401E051CC4F826
:2054D000C450032508E011F1150FC6BFD4F8C8001530301CC4F8C800C4F8CC504FF0805756
:2054F000D7F8A401B4F8C43030214FF47F424568364800930823A847D7F8A40104214FF47F
:2055100000321123456831480096A847B4F8C860D7F8A40104214FF4F802122345682B486B
:205530000096A847D7F8A40120214FF440620A23B4F8CC60456825480096A84701E084F83B
:20555000D85040F2FF50404502D8801C40452DD208202EE051F8251C1E4F4BF2F520484309
:20557000060A3868C0F3814001280AD112F018F810F0ACFC13F01CFC3111C010484306EB90
:20559000E03694F8E50030B91348006820F07F403618760801E084F8E5501048310C0660A0
:2055B000012741600E4D8760287808B90B2000E0052084F8E40004F093FBBDE8F88FC0462B
:2055D0002D400C402C500C40FC13002000A00C4000800C40B43F0050102009403C600C40AF
:2055F000F90B00002DE9F04F09AFADF13C0D08900A92388809911E46ADF81800101C08BF01
:20561000002000F06C81017800274FF0010B401C4FF0FF39B846DA460A9058E1252940F050
:205630004D810178401C0A902D2918BFADF8068004D10178ADF806B0401C0A9030291CBFF2
:205650004246434604D10178401C5A465B460A902A29CDF800804D4617D1049330680A9BBD
:20567000CDF80890C01C20F00300001D306050F8044C1978002C009403F101000A9018D5BC
:20569000ADF806A06442009413E044460AE0600000EBC4004018A0F130040A980178009433
:2056B000401C0A90302901DB3A29F0DBCDF8089004932E2929D10178401C2A290A9011D198
:2056D0003168CDF80880C91C21F00301091D316051F8045C002D48BF454601782B46401C75
:2056F0000A9011E0454643460AE0680000EBC5004018A0F130050A9801782B46401C0A9059
:20571000302901DB3A29F0DB02930AB1224604926C2904D04C2918BFADF8048004D101789C
:20573000ADF804A0401C0A900BA8CDF80C800FAB07906429059379D0692977D0BDF818C0F1
:20575000752965D0782961D06F295DD0702946D0632936D073291AD00A98401E0A900998CD
:20577000012812D961490C68B5F1FF3F03D0A84288BF6D1C00D8099D029508A80AA9324686
:205790006B46A0473F18039865E0454617E03068C01C20F00300001D306050F8040CBCF16F
:2057B000010F014608B94FA00146079113F052F90390B5F1FF3F4FD0A8424DD903952846F9
:2057D0004AE03068C01C20F00300001D306010F8040C8DF82C005D46039558463CE0082075
:2057F00035680490E81C20F00300001D306050F8041C082210230FA80DF0FEFA401E07903E
:2058100040210170079823E0082302E0102300E00A233068C01C20F00300001D306050F83B
:20583000041CAA42BCBF2A1C04920DE03068C01C20F00300001D306050F8041CAA42BCBF05
:205850002A1C04926FF009030FA80DF0D5FA07900599081A0390009C241ABDF8065000940B
:205870005DB906E008A8202109AA11F034FE7F1C009C641E0094F5D50398401EB0F1FF3F56
:2058900003900FD1BDF8060001281CD10098401E009018D408A8202109AA11F01CFE0098EB
:2058B0007F1CF4E70798017809AA08A811F013FE0798401C079003987F1CDEE708A809AAE5
:2058D00011F009FE7F1C0A980178401C0A9000297FF4A4AE089808B14146017038460FB088
:2058F000BDE8F08F286E756C6C2900C00C0D00002DE9F04FA74E814606F120000068416E50
:20591000ADF12C0D03A88847B04C201D0768002F00F039814FF00008388979689C4ECDF80D
:205930001C80C500097830781035890906D340F6485191FBF0F16D1805F5AF753E7D6843D8
:205950008500352E0CBF47464FF4FA570DF12601E8200FF00BFE9DF82600032808BF44F647
:2059700020676068007DED19352803D1D4F8A003804745430220874F8DF82000386A884F40
:20599000069507F10806826E306806A9904781488149824D80F8008001200870297801298A
:2059B00001D000F015F960680589466812F098FA3088000935D394F83C0390B363685A6A0A
:2059D0005F6E906AB0F1FF3F25D027B3411C91629862020E07F80129606890F82A0007F846
:2059F0000109606890F8290007F80109606890F8280038706268106A00950190801B281AA4
:205A100080B20290506A916A92F88C203346153009F050F900E0DB20D4F88073002840F0D5
:205A3000A880294630460CF09FF8642009A90FF09DFD5C4894F83C13007831B994F8EB038C
:205A500009F026FB012805D08FE009F021FB012840F08B80DFF850A1A81C87B20DF125014D
:205A70000AF170000780E9200FF080FD9DF82500012805D13D46C5F3022040F0180005E05C
:205A90002D1DADB2C5F3022040F0080006F8010D06F8015D55469DF82400A5F862800028D8
:205AB000EE670CBF41484248CDF80C8002238DF8103005F12806A6F8028005F1600AC5F807
:205AD000B8003C4FCAF8180095F8350020F00F0040F0030085F835007868A5F846808047C9
:205AF000DFF8D4B00A90B9F1010F1DD0B9F1040F1AD0B9F1000F14D0B9F1050F0ED0B9F170
:205B1000030F08D194F8FB0311F040FAC07B022818BF56460AE005F1600607E0DFF89CB09D
:205B300004E005F1440601E005F128061948006A1B4B046D02278DE880019868314603AA47
:205B50005B46A0471E491B4F0880B96800280AD41C4A92F900000F4F6035401C10700A98CB
:205B7000FD60884711E00A9888471A200CF00AFA0BE0002F08BFE420F8D0134880F800804D
:205B9000E420B84701E013F043FA0BB0BDE8F08F541D002058190020E31D0020ED1D002086
:205BB000641B002057190020141600204E9055550E7A5555681800200DAA0000E5E3000083
:205BD000C81B0020EA1D0020D72F0020080200202DE9F04F9E4C05466068ADF11C0D80475B
:205BF000A34EDFF898B2012D069000F0D58012F07BFD002800F0CB8096480078A0B9964810
:205C1000007888B99548007870B99548007858B99448007840B99448007828B99348007802
:205C3000002808BF012700D00027306A002F00F13C0000F0AC80994C0068257880476168BA
:205C5000DFF83492E368AA00401AB0FBF2F7A0684FF00008B24642469F42144672EB040148
:205C700001DA984205D8414687428A4140DA034600E0414618462A46EB17C01B71EB08018D
:205C900012F086FD272607464FF47A7200238846ADF80A600820ADF8080038460DF074F8EA
:205CB0006B49496A039002A88847049823464FF0000100F6FC02BF1A78EB0308784271EBCB
:205CD000080112DA6B480268414638460DF05CF8884607464FF00001784271EB080104DAF4
:205CF00038460FF0BDFE002000E001204C4620704C46207800284AD1002738460CF018FDF6
:205D100000B101270026381C3FD15D46287800283BD1DAF820005A4C436CA068022102AA7B
:205D300098479DF8080080B3DFF85881DAF82020A06898F90010374611F1020F18BF0127AA
:205D50004FF0010937B1926B98F900109047DAF82020A0684C4F97F9001011F1020F03D052
:205D7000926B97F9001090476FF00100387088F8000085F80090304612F07EFFDAF8200023
:205D9000C169A06888478AF801603B480670304906988968884757E001200CF0C9FC2146BF
:205DB0000698896888475D46DFF8ECA02878012838D1012012F060FF11F00CFE58BB204697
:205DD00040688047002402278346DFF8C090306AA9F80240416E2F7002A8884702948DF8A8
:205DF0000C70306A2E4A2A4BD0F850C0A0468DE880011068494602AAE0471549896800288B
:205E100019D4244A4F4692F90000F760401C10705846884706E02878012803D1002028701C
:205E300012F06EFC11F0D6FD70B92878022804D15046007808B113F0EBF850460078012866
:205E500002D028780228FCD007B0BDE8F08FC04668180020D32F0020D52F0020D72F0020DD
:205E7000D42F0020E21D0020E31D0020E41D002058190020B41B0020D62F0020EE1D0020BF
:205E9000641B0020E01D0020E11D002014160020B5410100EA1D0020ED1D0020541D0020F5
:205EB0006C1B00202DE9F04FAC4C07460020ADF13C0DDFF8A482ADF80C00201D0068894668
:205ED000017D252900F00281703005A903F0A6FC002818BFC0B240F03B8101A804A90CF0E1
:205EF00017FD10F0C5F8042814BF41F2081543F2C82504A901A80CF00BFD98F82B2201997F
:205F10003B684FF47A7A504650430AFB1100C01A8542C0F2D880D8F80422521A0AFB02F153
:205F3000C91A8D4200F3CF808542A34609DD002807DD95FBFAF04FF4916100B201FB00302E
:205F500038609DF81F00002857D042F204000DF136010EF0BDFF11F0C3FE0699441A42F27C
:205F700006000DF135010EF0B3FF9DF835009DF81D10FF2804BF0A208DF83500FF2908BFDE
:205F90000A219DF835609DF81C507548B4FBF0F2701884B25646A81054437043A04298BFB8
:205FB000041C41F20810241805A811F038FC9DF81C103D68B0FBF1F24A43821A714392B233
:205FD00072438B1A891A5B1B491B8C4201D9002908D56142994212D2002B10D5B4FBF6F124
:205FF00009B203E06100B1FBF6F189B23A684FF4916303FB01253D6001E03D680020064638
:206010000DF1120102A80CF083FC0298D8F804120024B5FBFAF280180290814203D998F8A1
:206030002B32834202D998F898712FBB9DF81C00B6180004B04298BF361A9DF81F000028D8
:2060500008BF9DF8200024D09DF81C00B6FBF0F085B2BDF833000EF0ABFD9DF8312001468C
:2060700028460FF01BFA054611F0C6FB024608A928460EF005FF0CE0814204D8BDF81200C6
:20609000401CADF81200BDF8120098F89B110CF0D3FD89F8000088F8F501DBF80400007DC3
:2060B000052811D19BF8D10370B999F8000003A9ADF80C0042F20C0003F0E2FABDF80C0073
:2060D000A8F8F00100E06524204641E00FF0D0FF042814BF41F2081543F2C825214800780F
:2060F0004FF47A7404FB00F13868491BA1F5FA62824206D2A1F57A61B0FBF1F24A43801AB7
:20611000386068460DF10E010CF002FC3868009998F82B2204FB010154430091611A8D4299
:2061300011DCA4F5FA648C42BCBF00F5FA60386098F89B11B8F878010CF07EFD01460020F8
:2061500089F8001002E099F80010652088F8F5110FB0BDE8F08FC04660100020080200206D
:20617000A08601008B1200202DE9F04F00289A461446ADF1340D00F0F48011F47C1F40F061
:20619000ED8011F00F0F00F0EC8007460591002006900B900A904FF0000909904D46089528
:2061B0004FF0010BCDF810B0054648460790059805990BEA000021EA0B014FEA4B0B401E5B
:2061D000059100F0AB80401E70D0801E5DD0001F40F0BE8042F205000DF10E010EF078FE4E
:2061F0009DF80E60002E00F0B3801CB1276694F86B0006900720152607F8010B022301A918
:2062100007F8016B42F2010007F8013B0EF060FE684603A90CF07CFB06980DF06BFC014621
:20623000019A00983E4640180090824206D8801ABDF80C300090581CADF80C00009B5008DA
:206250004946804609041804030C194300044B4610EB080041EB09010AF032FF0090BDF807
:206270000C309DF80C009DF800209DF8011006F8010B181206F8010B9DF8023006F8012BA7
:206290009DF803200935BF1D42E00220152607F8010B042307F8016BBAF1000F07F8013B0B
:2062B0000CBF09989AF800002D1D4EE01CB1E76594F86B00069005201526049B07F8010BA8
:2062D0000DF10F0107F8016B42F2040007F8013B0EF0FEFD02A80FF043FB06980DF00AFC41
:2062F00002999DF80F609DF80F30069AED1D4018000200EB6600B0FBF3F03E4602903F1DC6
:2063100006F8012B9DF808109DF809309DF80A2006F8011B06F8013B327018E003201526BD
:2063300007F8010BBAF1000F07F8016B034607F8013B04BF0B9807F8010B05D09AF80000C1
:2063500007F8010B9AF801006D1D07F8010BADB2059800287FF42BAF2E4661E011F00F0FB5
:2063700001D000205DE080468A4602264FF4803908F1020509EA0A002AEA090A4FEA490976
:20639000B0F580301AD0B0F5803014D0B0F500300ED0B0F5802009D0B0F5002004D0B0F566
:2063B00080102AD1072404E0062402E0052400E00424002704E00224012701E0012427462A
:2063D000A81C214600F030F847B104F00F04C0F30A0141EAC42141F4004105E004F07F04CB
:2063F00000F0FF0141EA042105F8011B0912871929702D18B81C6D1C86B2BAF1000FB9D1C2
:20641000022ED8BF00260BDDB01E4FF6FE7708F8010BF019C0F3022040F0A00088F80000D5
:2064300030460DB0BDE8F08FF0B504460846ADF16C0D401E70D0401E0DD0801E00F00981B0
:20645000401E00F0EF80401E00F0E180401E00F0AD80002042E142F2010007A90EF038FDEA
:2064700042F20B0008A90EF033FD42F206000DF165010EF02DFD42F207000DF166010EF08A
:2064900027FD42F2050019A90EF022FD04A809F067FF06460DF1670142F209000EF018FDA3
:2064B0009DF86700002808BF002503D0022010F071FE0546204607A9042212F051F9241D44
:2064D00008A90222204612F04BF9A71C9DF864009DF865309DF866109DF8674007F8010BF3
:2064F0009DF8672007F8013B2B4607F8011B610706F0070444EA916005F0030404AD40EA4A
:206510008410314607F8010B012400953846019406F00BFC0A309AE042F206000DF1650139
:206530000EF0D6FC42F207000DF166010EF0D0FC42F2040019A90EF0CBFC04A809F010FF9E
:2065500005460DF1670142F208000EF0C1FC9DF86700002808BF002303D0012010F01AFE69
:2065700003469DF864009DF8657004F8010B9DF8666004F8017B9DF867209DF8677079077C
:2065900004F8016B03F0030705F0070646EA916004AE40EA8710294604F8010B00270096BC
:2065B0002046019706F0C1FB001D50E042F2150011A90EF08DFC13AF42F2160039460EF0BB
:2065D00087FC15AD42F2170029460EF081FC17AE42F2180031460EF07BFC204611A90822EA
:2065F00012F0BEF8083408222046394612F0B8F804F1080708223846294612F0B1F80822E6
:2066100007F10800314612F0ABF8202066E042F214000DF122010EF05BFCBDF82210022001
:206630000A1258E009A80021202212F048FD42F2130009A90EF04CFC09A812F042FD024622
:2066500009A9204612F08CF809A812F03AFD80B244E042F20E0002A90EF03AFC0DF10A0122
:2066700042F20F000EF034FC0DF10B0142F20A000EF02EFC03A942F210000EF029FC0DF118
:206690000D0142F211000EF023FC0DF10E0142F212000EF01DFCBDF808009DF80B209DF8FE
:2066B0000C709DF80D609DF80E509DF80A1004F8010B02F00102001204F8010B07F001009B
:2066D00042EA400206F0010042EA800205F0070042EA4012042004F8011B22701BB0F0BDD7
:2066F0002DE9F04FAA4C04F128000068ADF11C0D0FF096F908B111F0F9FCA048DFF878B2CD
:20671000DFF89082DFF87CA200689F4D059011F05FF811F0A5FAE769A669B7F57A7F13D0C3
:20673000801B4FF47A720023A7FB00010AF0C8FC81464FF47A72002312F02AF83A4600231B
:206750000AF0BEFC301801E0A0EB0609A061DBF8000020F00200CBF8000068688047DAF8A0
:206770000010DAF804204E468919B1F57A7F0DD34FF47A73B1FBF3F3D218CAF804204FF479
:206790007A731F46B1FBF7F25A43891ACAF80010A9688847686800968047D8F8041089195D
:2067B000C8F80410A9688847D8F8000000285AD007464FF00009686880470490BDF802007C
:2067D000002690B99DF8010078B99DF800003979884204DD0098796888420AD20BE09DF8E2
:2067F00000103879401A387108E000987968884201D3314601E07968091A7960B88878B920
:20681000FB8853B9FB6843B13B8933B1B87A194609F002FDF8687860B88808B9FB880BB1D9
:206830003B896BB9B9F1000F04BF3868C8F8000003D03868C9F8000038683E46074601E0FE
:20685000B9463F68A9680498884756B1B3882BB9F3881BB9B07A318909F0DEFC304611F063
:20687000DFF9002FA7D1DBF8000040F00200CBF80000E06828B3804723E016F8060C21692A
:20689000A6F10C07032819D0E16A9DF806000978884210D116F8080C10F0C0FBB9790129DF
:2068B00003D0022908BFB07000E03070002031460DF030FB05E011F019FC02E009B1304697
:2068D000884708200727ADF80000696AADF8027068468847029E0028CFD0294800680088AF
:2068F000C8B1686880472649096800220E880A80A9688847059A002031462070904706468D
:20691000FF202070686880471D4909680A8816430E80A968884710F05BFF0746B7F1FF3F64
:206930001CD0686807B9194F216AB94238BF0F1C80471C230646626AADF802300820ADF8F9
:206950000000696A019268468847A16A3846491CA1620FF09DFAA9683046884708200A270E
:20697000ADF800004FF0FF36ADF80270696A019668468847CBE6C04610E000E0E80C000075
:20699000C82F0020081E0020681800208EC2F528981B0020B02F00202DE9FE4F0546287D58
:2069B000012807D195F917000EF076FBB0F1FF3F00F016819548EF7B017895481FB990F84F
:2069D00083208A4208DB012F03D190F882208A4202DBF120BDE8FE8F80462E6A95F835001B
:2069F000B5F8289095F83470AC8B4FF0000A5FEA060B029017D098F83C33002B2FD0D8F8A5
:206A1000541300292BD006F0FF008847D8F8541306B20BF47F008847361830B2001D00B2DC
:206A3000C83086B200E0C8260CB1241DA4B298F8E003012809D147B1764802993F1897F847
