:020000040000FA
:10000000FC2C0020650F0000950F00007F0D000004
:10001000930F0000930F0000930F000000000000FA
:10002000000000000000000000000000930F00002E
:10003000930F000000000000930F0000930F0000DA
:10004000930F0000930F0000930F0000930F000028
:10005000930F0000930F0000930F0000930F000018
:10006000930F0000930F0000930F0000930F000008
:10007000930F0000930F0000930F0000930F0000F8
:10008000930F0000930F0000930F0000930F0000E8
:10009000930F0000930F0000930F0000930F0000D8
:1000A000930F0000930F0000930F0000930F0000C8
:1000B000930F0000930F0000930F0000930F0000B8
:1000C000930F0000930F000010B5ADF1180D0391D0
:1000D00002902E48006840690146062088472B4858
:1000E0000068406B0146062088470128F7D1274861
:1000F0000068C06901464FF4A060884700F004F929
:1001000000F0C6F80028FBD020480068C06901460E
:100110004FF48070884700F0F7F800F0B9F8002835
:10012000FBD04FF080400F2100F0CEF84FF0804020
:10013000032100F0E0F816480068029A0068009277
:10014000082101911349002304464FF0804000220A
:10015000A047114800680399406C09224FF0FF3313
:10016000044600914FF080400821A0474FF08040A6
:1001700000F0B6F806480068006904A902464FF08E
:10018000804090470028F5D106B010BDB80100109E
:10019000C4010010006CDC02B401001008B5144862
:1001A0000068006A01464FF48070884700F0ACF8A0
:1001B00000F06EF80028FBD00D480068006A014688
:1001C0004FF4A060884700F09FF800F061F8002825
:1001D000FBD007480068806901460620884704482C
:1001E0000068406B0146062088470228F7D108BD09
:1001F000B80100100EB501910090019800B31148AC
:1002000000688068002102464FF08040904710B996
:100210004FF0FF3015E00B480068C06802A90246A5
:100220004FF0804090479DF80800009908700198B1
:10023000401E01900098401C009001980028DED1DB
:1002400000200EBDC40100100EB501910090019870
:10025000C8B10E48009900680978406802464FF01E
:100260008040904709480068C06802A902464FF0E4
:10027000804090470198401E01900098401C0090DB
:1002800001980028E5D100200EBDC046C401001031
:10029000054801680020890801D3012100E0002100
:1002A00001B101207047C0462820084008B5054824
:1002B00000680069694602464FF080409047002878
:1002C000F5D108BDC4010010ADF1080D01910090F9
:1002D0000098019A143001689143016002B07047A0
:1002E000ADF1080D00900098001D016841F0020179
:1002F000016002B07047ADF1080D019100900198C6
:100300000099086202B070470149012008607047F7
:10031000282008602DE9F04FD04D4FF00108ADF1D5
:10032000140D05F141020490CA48C2F8CF8F076846
:10033000002FFCD0CA4844380290C0210160C64852
:10034000011D0968890805D20168D84B090C41F0E4
:10035000F00119700021001FC2F8FF1FD44ED54CC8
:10036000C7680190B80E12D2780E10D3802086F89C
:100370001B024FF6D801A6F85C1286F80B0200F0BB
:1003800055FAA146D9F8CC00C0F3042004E0A146F8
:1003900059F8040CC0F3046000F052FC00EB277025
:1003A000401C162805DA10F10A0FB8BF6FF00900DB
:1003B00000E0152000F01F0040F4F850A6F8640299
:1003C0002868800828BF47F04067CC49F80EBD0E6A
:1003D00080F0010000F00100086085F0010000F0ED
:1003E00001008860384600F08DFA00220446154668
:1003F00000F02DFC00B945462A46C14D2B68002B64
:10040000FCD0DFF804A30AF1080ACAF81040C5F8C6
:1004100000800AB100F021FC00F084FBB949496872
:1004200080B24C680090B84840F2FF3200232C2183
:10043000A04700F0FDFB044600F009FC4FF0000B64
:1004400000B9C3462B68002BFCD0CAF81440BBF19E
:10045000000FC5F8008001D000F0FFFB00F054FB56
:10046000044600F0F4FB4FF0000B00B9C3462B68C4
:10047000002BFCD0CAF80C40BBF1000FC5F800807F
:1004800001D000F0EAFB00F08FFB044600F0DFFB38
:100490004FF0000B00B9C3462B68002BFCD0CAF804
:1004A0000840BBF1000FC5F8008001D000F0D5FB7B
:1004B000049800F0F3F9044600F0C9FB4FF0000B7C
:1004C00000B9C3462B68002BFCD0CAF80440BBF12E
:1004D000000FC5F8008001D000F0BFFB049908466A
:1004E00000F04AFB884C4000403440F0200084F883
:1004F0000901084600F04CFB40F0100084F80901A7
:10050000084600F0F1FA039000F0A1FB4FF0000B59
:1005100000B9C3462B68002BFCD00398CAF8200012
:10052000BBF1000FC5F8008001D000F096FB0499E4
:10053000084600F045FB400040F0600084F80C01E4
:10054000084600F049FBC00040F0800084F801013B
:10055000084600F04DFB800040F47C40A4F89C016C
:10056000084600F0ADFA039000F071FB4FF0000B6D
:1005700000B9C3462B68002BFCD00398CAF80000D2
:10058000BBF1000FC5F8008001D000F066FB4FF40E
:1005900080002060D9F8580040F21E216FF31F4000
:1005A000814215D9D9F80000D9F80030C0F30365AD
:1005B000C3F3034005B16D1E072805D006280EBF02
:1005C0000720801C00F00F0045EA001006F8080C18
:1005D000C7F38140401E02D0401E28D024E0D9F845
:1005E000D000810C20D24FF480412160D6F8021057
:1005F000420AC0F3033502F0800221F08F010A4362
:1006000045EA0201C6F80210D6F80120031263F38E
:100610000302C6F80120316800F0E70521F0E70188
:1006200045EA0100306002E04FF0004020604FF4E6
:100630000070206400F0F4FA40F0300084F8C80044
:10064000C7F38150002837D0401E0BD0401E27D062
:10065000022126E094022243AC3F005000000940F2
:1006600044600C40404600F015FA05460420294637
:1006700000F07CF9042000F00DFA8542FAD10198CF
:10068000056825F07F4000F0EDF91E4840690368D9
:1006900007214FF06022280E98474FF480602060B9
:1006A0000321042000F062F90DE0C04656620840C4
:1006B0000A600840BC1200500420414600F056F980
:1006C000124800F0CFF9D9F8B0001149114E47F6A1
:1006D000180700F03F0084F8CB0F0A4D0F803068F8
:1006E0002868C16802208847402102980A4C0160AE
:1006F00005B0C4F80080BDE8F08FC046000020437C
:1007000000800C40A001001000A00C40BD37860006
:1007100070B00C402C200940940460421B4838B54E
:100720000468B4F1FF3F08BF002400F06DFA002513
:10073000174818490560012008601749086000F053
:1007400045F91648006820B1154800682046FFF7B3
:10075000E1FD144814490560144C0A686FF35B42CC
:1007600044EA0200086012490868C0F30130012819
:1007700006D10A680F48104040F400320A60086051
:100780000D4908680028FCD138BDC0461C13005034
:10079000840460425C600C400822044380012843CA
:1007A000000120438C21084048200340000039010B
:1007B00004000940FFFFFCFC0C0068421A4898B591
:1007C000D0F8781203680F0F03F0FF03802B28BFC7
:1007D000002300F023F94FF0FF3478B1401E07D01A
:1007E000401E012802D9801E19D01AE0BFB118E0BE
:1007F000381C12D0801E14D1143311E03846401E2C
:100800000BD0801E07D0001F03D0401E09D1163325
:1008100006E0152405E0142403E00A2401E00A336D
:100820005CB2204698BDC046A0100050174870B575
:100830000068C0F3046000F003FA154B0246187814
:1008400000F01F0000F0FCF982421ED0114E124C45
:10085000002101253160111A022905DC11F1020F76
:10086000B8BF6FF0010100E002210818216800F014
:100870001F0141F4F851A3F8661082422560EAD1C5
:100880002068256020683560206870BD881300509E
:1008900006620840980020432C20094038B51849CA
:1008A000164D0446103909686868C1F30342C1F364
:1008B0000353400812D22868050513EB257303D4AF
:1008C000102BA8BF0F2300E00023000412EB2072BE
:1008D00003D4102AA8BF0F2200E0002242EA03122C
:1008E00001F47F4001F0FF03222C40EA024243EA78
:1008F000020024BF01F08041084338BDAC3F0050E6
:10090000881300500146184880B5383800688A0CB2
:10091000C0F38367C0F38F2022D241F3072100295F
:100920000BD54A420021400805D17F0806BF0127A8
:10093000381C4FF6FF70521EF5D1002910DD4FF61E
:10094000FF72400040F00100824207D2780040F080
:1009500001070F2F92BF01200F27101C491EF0D155
:1009600040EA074080BDC046881300502DE9FC4195
:10097000144C154F06468846700809D32068456810
:10098000002101220B461FFA88F000903846A84744
:10099000B00809D3206845680021022201231FFA0C
:1009A00088F000903846A847F00809D320681FFA5D
:1009B00088F600210C220223446800963846A0479E
:1009C000BDE8FC81A401001000A00C400F4908689C
:1009D0000028FCD1104A131D0D49186820F00300AF
:1009E00001430C480068C0080CD2106810F0030FD7
:1009F0000AD041F003001860106800F003000328DB
:100A0000FAD101E041F00101196070470C00684221
:100A100004000020B03F005000400340104A10681E
:100A2000C0F30F314BF69A10884207D111680B20A2
:100A3000B0EB117F14BF002004207047243088429F
:100A400008BF01200BD04BF64130884208BF03207D
:100A500005D0213888420CBF02204FF0FF3070478C
:100A6000181300500949020480B5120C41F8082CF3
:100A7000C0F3074041F8040C0120086004480768EF
:100A8000002FFCD00020086080BDC04644600C40B0
:100A900084088C4302460849084810B5042A07BF59
:100AA0004FF0C0421D234FF080521C230968CC68D0
:100AB0003421A04710BDC046A401001000A00C4086
:100AC000202838BF064809D306480C3000680003C8
:100AD00081158905C0F30930000308437047C046FB
:100AE00000803F408C130050202838BF002008D3DE
:100AF00004480C300068C10C01F44071C0F384500C
:100B0000084370478C1300500548143801680348A7
:100B1000084001F07C4108437047C046FCFCFC00E3
:100B2000881300500549383908680968C0F3870000
:100B300001F0030140EA01207047C04688130050CD
:100B400008B5044B1B689B699847034A0021116054
:100B500008BDC046A801001084046042044908B5DD
:100B6000096849698847034A0021116008BDC046E9
:100B7000A801001084046042222804D303480068BE
:100B8000C0F30070704701207047C0468C130050BE
:100B9000222804D303480068C0F340707047012046
:100BA0007047C0468C13005004481838006800F4A1
:100BB0007C010004000C08437047C04688130050B5
:100BC000202805D303480C300068C0F3015070475B
:100BD000002070478C130050222804D3034800687B
:100BE000C0F3C060704700207047C0468C130050AF
:100BF000222804D303480068C0F345507047002002
:100C00007047C0468C13005008B5FFF707FF012856
:100C100003D1FFF7D3FD142800DAFEE708BD00007A
:100C200002480068C0F3C1407047C0468C130050B2
:100C300002480C380068C0F30D007047881300505C
:100C400001461628A8BFA0F1200108467047EFF31F
:100C5000108072B6704700207047EFF3108062B6C4
:060C600070470020704700
:100C6800002A4AD05FEA000C8B071CD1830722D1E7
:100C7800102A08D370B4103A78C978C0103AFBD259
:100C880070BC103238D0042A2CD3082A05D30C2A79
:100C980024BF08C908C008C908C008C908C0920705
:100CA8002AD0920F22E00B780370491C401C521E78
:100CB80022D08B07F7D1C30714D18307D8D0121FCE
:100CC80012D308C903801B0C4380001D121FF8D2E1
:100CD8000AE008C903701B0A43701B0A83701B0AC9
:100CE800C370001D121FF4D2121D05D00B780370BB
:100CF800491C401C521EF9D1604670470022134619
:100D08000A46194671B510F0030F0BD0002A82BFAE
:100D180000F8011BB2F1010210F0030FF6D1002A0E
:100D280008BF71BD11F0FF0141EA0121042A18D35F
:100D380041EA0141082A0FD30E46102A08D30C466F
:100D48000D46B2F10F0312F00F0272C0103BFCD82F
:100D580012F0080F18BF42C012F0040F18BF40F875
:100D6800041B12F0020F18BF20F8021B12F0010F2B
:100D780018BF017071BDFEE71448B0B5B0F1FF3F70
:100D880001D000F08FF8124D1248A84210D0124836
:100D9800124CA0420CD0001BC71054F8040B10F8DA
:100DA800011B55F8212054F8041B90477F1EF4D1ED
:100DB80000F0EEF80A4D0B4CA54205D002E054F8BD
:100DC800040B8047A542FAD1B0BDC046FFFFFFFF24
:100DD800DCF80100E8F8010000F90100F0F8010072
:100DE8000000000000000000F8B5844640F6FF74DB
:100DF8001CF8013B002210E0481B401E10F8015B64
:100E08007F1E01F8015BF9D103E01CF8010B01F822
:100E1800010B521C5B08082AEADA5808F5D21CF8BC
:100E2800010B1CF8015B05F00F07FF1CC5F3031548
:100E3800122F45EA001508D11CF8016B300A24BFAF
:100E48001CF8010B60F3DF16F719AC42D4D1F8BDDA
:100E580000BF704708B5FFF7FBFFFEE738B50D4C3C
:100E68000546A06820B10C48B0F1FF3F00D080478C
:100E78000A4800688047606810B1014628468847DC
:100E8800206800B18047064800688047FFF7E2FF06
:100E980038BDC04614100020FFFFFFFF20100020BF
:100EA80024100020F8B506460F4D104F7388002413
:100EB80017E0A00000EBC400321851689068D268AF
:100EC80052B9AF420BD00A7855F822200346491C84
:100ED80008461946904701E0FFF7C2FE7388641C74
:100EE800A4B2A342E5DCF8BDDCF80100E8F8010093
:100EF8000C4885460C4885446F4607208743BD4605
:100F08000A486F46076000F042F800F03CF80028F5
:100F180001D0FFF731FF00F00BF80120FFF79EFF2B
:100F2800FEE7C046FC2B0020000100002C1000202A
:100F38000449B1F1FF3F07BF0020011C0868091DE3
:100F48001EF0A2BAFFFFFFFF03490860704702497D
:100F5800091F0860704770472410002008B5FFF784
:100F6800D9FBFFF7C5BFFFF706FF08BDD0F8032080
:100F7800C31D08461946FFF773BED0F8032008467C
:100F88000021FFF7BFBE01207047FEE7FEE770476C
:020F98007047A0
:100F9C0000002000C215000000001000C214000068
:100FAC0000000800EF12000000000400EF11000028
:0E0FBC00000000000000000090FFFF0005068E
:10101000004C00207DB700001DD600001DD600004A
:101020001DD600001DD600001DD600001DD60000F4
:101030001DD600001DD600001DD600001DD60000E4
:101040001DD600001DD60000EBDB00002DE9F843A3
:10105000CC4C0F460646F80B80F0E881A07AB90F19
:1010600080F07581B80880F06281F80A80F03B81D9
:10107000E07910B1380980F03381206C002840F00D
:101080009D803809C0F09D80002501262570BE484E
:1010900066710DF0B7FA28460CF030FABB4904F13E
:1010A00070002A460DF076FC04F1580090E8000329
:1010B0000DF02EF8E378B0EB08004FEA103071EB3A
:1010C00009010905012B40EA010006D194F86810D6
:1010D000B0EBC12F01D8A378C3B3E670D24EA6F10E
:1010E00015010968A570090A30D3606640F6090049
:1010F000A08294F8210000F0F00040F0010084F894
:10110000210094F8200000F0F00084F82000A56190
:101110000DF03AFC06F6FF7211686FF0020321F041
:101120000201116004F11401C6F8FB3FCE4AC6F873
:10113000EB1F11688908FCD3C6F8FB3FD6F8FF1FE8
:1011400041F00201C6F8FF1F0DF0F6FB2E4604F138
:10115000580080E8600066660AF082FE607818B980
:10116000E06840300DF020FCC748066002200BF01C
:10117000A7F9112006F098FAE068007C10B90E205B
:1011800006F092FA607A18B1657205200BF098F9B2
:10119000BE4965710878A57128B10D7004F1EC00A5
:1011A00004210DF009FCB4F95000B4F95210884242
:1011B00014BF0220072006F0E7FF8EE0380980F018
:1011C0008C80B80B77D2780B29D2380CC0F05381C1
:1011D00004F13C000DF0E4FBF0B1C1684968097806
:1011E000022919D190F82700400915D2206C90F8F7
:1011F0002700400910D3206C806840880028FAD06E
:10120000206C806840880128F5D0206C0026A064FE
:10121000192026640DF0BCFB27F400472BE10AF0EF
:1012200045FF38B1B56930466FF4807100224FF048
:101230000073A847964904F1700000220DF0AAFB44
:10124000B16800254FF0010840F6020225720888B7
:1012500084F8008082420AD0B0F5C15F07D00A8BC3
:101260004FF61F60104040F43470088306E00A8A8D
:101270004FF61F60104040F43470088275740CF013
:1012800047FFD4F85421E36804F5AA719A4208BFD5
:10129000A846266E46B1864226BF301A401E801BE5
:1012A00001EB8801000B8860256619200DF070FBAA
:1012B00027F48057DFE004F140000DF071FB061CBD
:1012C00008D0706830B17568F068B6F92410002253
:1012D0002023A84727F40057CDE027F00807CAE0ED
:1012E0000020E071F9E70DF04FFB054604F13C00EA
:1012F0000DF056FB061C15D0E06810B178300DF0EB
:101300003FFBF068E06028460DF016FB0CF000FF94
:10131000206660480DF076F94FF4006104F1EC00AE
:101320000DF04AFB002027F48067E071A3E004F190
:101330004C0528460DF034FB03F0C0FA28460DF0AA
:101340002FFB27F0020708B147F0020793E020B116
:1013500004200BF0B5F80020A0720DF015FBB16869
:101360008046088840F60202824211D0B0F5C15F83
:101370000ED00A8B4FF61F60104040F43470088383
:101380000DE0C046200D002009600000258200000D
:101390000A8A4FF61F60104040F43470088204F14E
:1013A000580090E80C00002B08BF002A18D0042039
:1013B0000BF0A0FCA0B1A56D0CF0AAFE854226BFE3
:1013C000401B401E401B000BF060F168708A401803
:1013D00040F6C411F06081422CBFB0F5FA7FF16095
:1013E00040460DF0A9FA0AF061FE98B1B5693046A1
:1013F0006FF4807100224FF00073A84704F13C00A5
:101400000DF0CEFA002808BF47F0020702D01920DD
:101410000DF0BEFA7569002130464FF080630A4630
:10142000A84727F0005726E0150004400DF0ACFA5D
:10143000014604F144000DF0B3FA0646B569A80868
:1014400014D29EB125EA0500B06108460DF074FA89
:10145000706870B16DB12A46F068B6F924107568ED
:101460000023A84705E0C0461010044008460DF0D0
:1014700063FA27F4804727B104F1EC0039460DF0F8
:101480009BFABDE8F883C046000004609520002068
:1014900011610000B14C000030B5ADF1540D8DF874
:1014A0004C009348007858B192480068002105F03C
:1014B00071FF08B909209DE19948006804F0E6F938
:1014C0009848007848B998480CF040FE96494FF487
:1014D0007A6008609349012008709DF84C0000284C
:1014E00032D10BF055F9052807D191498F483CC9F5
:1014F0003CC01EC980E81E0008E08D498B483CC9ED
:101500003CC01CC91CC00EC980E80E0089499C481B
:101510001CC91CC00EC980E80E009B4999481EC911
:1015200080E81E009948A24900683CC83CC13CC8FC
:101530003CC11DC881E81D009F499E481CC91CC0B4
:101540000EC980E80E00D7E09DF84C0001282ED18E
:101550000BF01EF905282AD0A148744900683CC840
:101560003CC11CC81CC10DC881E80D00A2488449BB
:1015700000681CC81CC10DC881E80D009F48814946
:1015800000681DC881E81D008048894900683CC882
:101590003CC13CC83CC11DC881E81D009848854934
:1015A00000681CC81CC10DC881E80D00A4E09DF8AE
:1015B0004C0002282ED10BF0EBF805282AD09148D8
:1015C0005A4900683CC83CC11CC81CC10DC881E810
:1015D0000D0089486A4900681CC81CC10DC881E813
:1015E0000D008948674900681DC881E81D006748EB
:1015F0006F4900683CC83CC13CC83CC11DC881E87B
:101600001D007F486B4900681CC81CC10DC881E8DB
:101610000D0071E09DF84C0003282CD10BF0B8F8B8
:10162000052828D17948414900683CC83CC11DC8FB
:1016300081E81D007048524900681CC81CC10DC8D3
:1016400081E80D0072484F4900681DC881E81D00FF
:101650004E48574900683CC83CC13CC83CC11DC805
:1016600081E81D006648534900681CC81CC10DC8AC
:1016700081E80D0040E09DF84C0004282ED10BF0CD
:1016800087F805282AD06348284900683CC83CC12F
:101690001CC81CC10DC881E80D00574838490068B6
:1016A0001CC81CC10DC881E80D005B4835490068A5
:1016B0001DC881E81D0035483D4900683CC83CC153
:1016C0003CC83CC11DC881E81D004D48394900682F
:1016D0001CC81CC10DC881E80D000DE0054800685C
:1016E00018B10448006808F0A9FB022082E0C04657
:1016F0008D3B00208C1F00204848007810B1214904
:101700000520087046481F49084A074B01F054FA63
:101710004F49086043498820088044480CE0C0468F
:10172000881F00208F3B0020681E0020F81C00202E
:1017300010370020A03900203B4908603C490120B7
:1017400008703B4801783B48007861F3450039490F
:1017500008703949087840F08000087038483749E7
:10176000086039483749086002204FF070418DE821
:1017700003003748024900680022002308E0C04601
:10178000D81E0020901F00201C3B002008350020A0
:101790000AF0C0FB2D490020086002A80CF081FC73
:1017A0000BA80CF0EDFB2B480068D8B906E0C0464A
:1017B000C81C0020F01E0020D0390020002002A903
:1017C0000BAA0AF033FF234908602248006808B9D1
:1017D00003200FE01F48006808F030FB06E0C04619
:1017E000E03400201B48006808F028FB1A4901205B
:1017F0000870002015B030BD00350020C83400202E
:1018000004350020E4340020CC340020F4340020DF
:10181000DC340020F0340020D8340020903B00203D
:10182000B0160020E01C0020EC1C0020183A00201C
:101830008C3B0020E41C0020D61C0020F01C002063
:1018400064200020F41C002010200020943B002085
:10185000881F00208C1F00208D3B002030B5ADF18B
:101860001C0D039102900220012105F0BDFE002015
:10187000FFF712FE10B18CA00CF09CF9AA4805F0FD
:1018800057FC082006F088F80CF0F8FE0CF0FCFE7F
:101890004008FBD3A64800684068014602208847FC
:1018A000A2490870A14800780028EFD00CF0E0FEB3
:1018B000082005F0F9FE9D480121012205F0BAF942
:1018C00010B17FA00CF076F998489A49007808701A
:1018D000994902200870012008F0FEFF01200CF059
:1018E00047FD80A06FF0090101F04EFD934807F01D
:1018F000D9FB92489249086092490A20087093489F
:10190000914908608948007800F00F000A2805DA3C
:101910008648007800F00F00303004E083480078FB
:1019200000F00F0037308A4908708048007800F0D6
:10193000F00000110A2806DA7C48007800F0F00078
:101940000011303005E07948007800F0F000001117
:1019500037308049087079487F4908607F491C20EA
:10196000087080487E4908600BF0B8FE7E49086028
:101970007E48006800214FF0FF324FF0FF3304F043
:10198000BBFE04900498400855D30BF0A7FE0590C9
:1019900075480599006888420ED2734B7549744AA0
:1019A00005981D68744C09681368401B4143B1FBDE
:1019B000F4F0C01810600DE06B486E496C4A059D4C
:1019C0006D4C006809681368401B4143B1FBF4F09B
:1019D000C01810600598644908600CF08FFB6749D7
:1019E000088068486649008808800D200CF09AFB42
:1019F0000022002100B1012101B9012262480270D8
:101A00006248007848B14B485C49594A5E4B0068CF
:101A1000096812681B6801F0CFF90220A02200902B
:101A20005649594B43480192514A006809681B685E
:101A3000126802F05DFA0498800811D354480078C7
:101A400058B15449032005F0CFFD5348002102F05E
:101A500009FB10B12CA00CF0ADF800200BF0AEFD8E
:101A60000498400907D34D480078032803D14C4817
:101A70004C4908F077FA0498C0080DD34B484A49FE
:101A800000780978884202DD07F070FC04E03748EE
:101A90000068082107F050FD04980009FFF468AFC2
:101AA00001200BF08BFD63E7456173794C696E6B28
:101AB0005F696E6974206661696C656400C046C0C8
:101AC000456173794C696E6B5F656E61626C6552DE
:101AD000784164647246696C746572206661696CF1
:101AE000656400C068747470733A2F2F7777772E0F
:101AF00074692E636F6D2F70726F647563742F63DA
:101B0000633133353000C046456173794C696E6B83
:101B10005F726563656976654173796E632066619E
:101B2000696C656400C046C00016D636A53A002030
:101B3000CC010010A01F0020A11F00205C2000206D
:101B4000402000204420002048200020C03B0020EE
:101B50000639002005390020282000202C200020F4
:101B600030200020EB380020181F00200C1F002020
:101B7000A81F0020743C0100A0860100A41F0020C3
:101B8000A21F0020141F0020AC1F0020A63A002036
:101B9000161F0020803801004D7A0000F218002046
:101BA000F1180020F3180020D0180020D1180020D0
:101BB0002DE9F04F09AFADF13C0D08900A9238883D
:101BC00009911E46ADF81800101C08BF002000F057
:101BD0008481002700F101094FF0FF3A4FF0010B1B
:101BE000B8466CE1252940F063811078521C0A92B6
:101BF0002D2818BFADF8068005D15846551CADF804
:101C0000060010780A9530281CBF4246434605D18D
:101C10000A9908785A465B46491C0A912A28CDF849
:101C20000080554616D1306804930A99CDF808A073
:101C3000C01C4B1C20F00300001D306050F8044C09
:101C40000A93002C0878009418D5ADF806B06442C9
:101C5000009413E044460AE0610001EBC40140181F
:101C60000A99A0F1300408780094491C0A913028A0
:101C700001DB3A28F0DBCDF808A004932E282BD105
:101C80000A9908782A2801F101010A9111D13068D6
:101C9000CDF80880C01C20F00300001D306050F813
:101CA000045C002D48BF454608782B46491C0A9124
:101CB00011E0454643460AE0690001EBC5014018C2
:101CC0000A99A0F1300508782B46491C0A91302862
:101CD00001DB3A28F0DB02930AB1224604926C2819
:101CE00004D04C2818BFADF8048005D10A990878B3
:101CF000ADF804B0491C0A910BA9CDF80C800FABCC
:101D000007916428059300F08B80692800F0888093
:101D1000BDF818C0752872D078286ED06F286AD0A8
:101D2000702850D063283DD073281ED009980A9996
:101D30000128A1F101010A9115D96B490C68B5F18F
:101D4000FF3F03D0A84288BF6D1C00D8099D0295B3
:101D500008A80AA932466B46A047C7190A990398F2
:101D600001F1010974E040462AE030680A99C01C7C
:101D700020F00300001D306050F8040CBCF1000F8F
:101D800001F10109014608B955A0014607910CF07F
:101D900037FA0390B5F1FF3F5BD0A842C4BF281CBF
:101DA000039056E03068C01C20F00300001D306036
:101DB00010F8040C5D468DF82C000A9903955846DE
:101DC00001F1010945E0082035680490E81C20F085
:101DD0000300001D306050F8041C082210230FA8D7
:101DE00007F052FC401E0790402101700A990798A5
:101DF00001F1010929E0082302E0102300E00A2391
:101E00000A99306801F10109C01C20F00300001D8F
:101E1000306050F8041CAA42BCBF2A1C049210E097
:101E20000A99306801F10109C01C20F00300001D6F
:101E3000306050F8041CAA42BCBF2A1C04926FF008
:101E400009030FA807F020FC0790059D281A0390AE
:101E5000009C241ABDF8065000945DB906E008A85D
:101E6000202109AA0BF0E6F8009C7F1C641E009458
:101E7000F5D503980546401E039075B9BDF80600D8
:101E8000E8B10098401E009019D408A8202109AAA2
:101E90000BF0D0F800987F1CF4E70798411C0791DD
:101EA000017809AA08A80BF0C5F803987F1CE1E7A0
:101EB00008A809AA0BF0BEF87F1C09F101094A46DF
:101EC0000A9812F8011C401C00290A907FF48AAE7F
:101ED000089808B14146017038460FB0BDE8F08F50
:101EE000286E756C6C2900C0F43C0100BA482DE9DD
:101EF000F84F0025B94CB749056094F8E200002876
:101F000000F06381012800F02F81B54E02283CD0FB
:101F1000032840F05A8151F8250CD4F8B810002954
:101F2000A0F5C060C4F8D400B8BF49420028B8BFCB
:101F30004042814226DA4FF08057D7F8A401456825
:101F4000B4F8BC0030214FF47F42082300903046A3
:101F5000A847D7F8A4014568B4F8C00004214FF49D
:101F6000F802122300903046A847D7F8A401B4F82D
:101F7000D070456820214FF440620A233046009714
:101F8000A847012584F8D8501AE151F8258C0CF0A7
:101F900045FB2F4600B901273946924F3868002883
:101FA000FCD0B146012609F10409D9F82CA03E6005
:101FB00009B10CF039FBCAF30720C4F8BC000CF0DF
:101FC0002DFBAA4600B9B2463B68002BFCD0D9F8DD
:101FD00000B0BAF1000F3E6001D00CF025FBCBF34E
:101FE0008440C4F8C0000CF019FBAA4600B9B24600
:101FF0003B68002BFCD0D9F81C90BAF1000F3E6072
:1020000001D00CF011FBC9F38120C4F8D000B8F561
:10201000C061C4F8B81000F09C8094F8D80068B98A
:10202000C4F8D410D4F8C000C4F8C800D4F8BC7008
:10203000C4F8C470D4F8D030C4F8CC30D4F8D4107C
:10204000D4F8BC30002954BF02206FF0010004F125
:10205000C802176801EB41014018411000EB917173
:1020600007EBA1001060D4F8C810C4F8C4300029F0
:102070001CDD1E293CDDD4F8CC0030B93429B4BFB6
:1020800015391E21C4F8C81025E02A29BABFD4F892
:10209000C8000B381E20C4F8C800D4F8C4003F287C
:1020A000B4BF401C3F20C4F8C4001FE0D4F8CC00EB
:1020B000032812D011F10B0FC6BFD4F8C8000B30A3
:1020C000301CC4F8C800D4F8C4000028C4BF401EA7
:1020D000051CC4F8C450032508E011F1150FC6BF54
:1020E000D4F8C8001530301CC4F8C800C4F8CC506F
:1020F0004FF08057D7F8A401B4F8C43030214FF422
:102100007F424568364800930823A847D7F8A401C2
:1021100004214FF400321123456831480096A84746
:10212000B4F8C860D7F8A40104214FF4F8021223D0
:1021300045682B480096A847D7F8A40120214FF402
:1021400040620A23B4F8CC60456825480096A84749
:1021500001E084F8D85040F2FF50404502D8801C7E
:1021600040452DD208202EE051F8251C1E4F4BF281
:10217000F5204843060A3868C0F3814001280AD197
:102180000AF082FF09F04EFE0CF054FA3111C01033
:10219000484306EBE03694F8E50030B91348006890
:1021A00020F07F408019460801E084F8E55010488F
:1021B000310C0660012741600E4D8760287808B910
:1021C0000B2000E0052084F8E40001F03FFCBDE8AE
:1021D000F88FC0462D400C402C500C409830002009
:1021E00000A00C4000800C40B43F0050102009407B
:1021F0003C600C408A3B010000B5ADF11C0D002194
:10220000102202A806F014FFB148007818B90CF0AB
:1022100047FAAF490870AF480078B8B9AE480068CF
:102220000CF0DDF9AA480078AB490090086800225C
:102230005DA300210AF0D4FEA8480088A6490090BA
:10224000086800225CA301210AF0CAFEA0480078B9
:10225000A3490090086800225AA300210AF0C0FE9A
:102260009E4800889E490090086800225CA30121D6
:102270000AF0B6FE9B480078012805D102A85EA1AD
:102280000C220AF099F822E096480078022805D13D
:1022900002A85DA106220AF08FF818E091480078A4
:1022A000032805D102A85AA10D220AF085F80EE0F4
:1022B0008C480078042805D102A859A10D220AF003
:1022C0007BF804E002A85AA104220AF075F88148BC
:1022D000007878B9804800680221002256A30AF0ED
:1022E0007FFE02A97C4800910068002255A30321CB
:1022F0000AF076FE02A97A4800910068002252A3F3
:1023000002210AF06DFE73480078B8B17648008863
:1023100076490090088872490190086800224FA30E
:1023200003210AF05DFE724800686D49009008685C
:1023300000224FA304210AF053FE33E06D4890F9C8
:102340000000B0F1FF3F2DD023E065480068052173
:1023500000224DA30AF044FE614800680CF045F9E4
:1023600020E05F480068052100224EA30AF038FEF5
:1023700018E05B480068052100224EA30AF030FEF9
:1023800010E057480068002100224EA30AF028FE02
:1023900008E0584800780028D7D0401EE9D0401EF9
:1023A000DFD0EEE707B000BD4E6F646549443A20C8
:1023B00030782530327800C04144433A202530340B
:1023C0006400C0461B5B324A201B5B303B30484EEA
:1023D0006F64652049443A2030782530327800C057
:1023E0004E6F6465204144432052656164696E67A5
:1023F0003A202530346400C0424C45204D53202BF8
:102400002055524C00C046C0424C45204D5300C0A0
:102410004564647973746F6E652055524C00C046F4
:102420004564647973746F6E652055494400C046F5
:102430004E6F6E6500C046C0416476204D6F646586
:102440003A00C046257300C04164766572746973B2
:102450006572204D6F64653A202573004F4144201A
:10246000426C6F636B3A202564206F662025640000
:102470004F414420426C6F636B20526574726965F2
:10248000733A20256400C0464F41443A20636F6D83
:10249000706C6574656420737563636573736675CA
:1024A0006C6C79004F41443A204352432066616985
:1024B0006C6564004F41443A2061626F72746564D8
:1024C00000C046C04F41443A206572726F7200C02E
:1024D000B63A0020A83A0020281E0020181E00202E
:1024E0002C1E0020B53A0020AA3A0020AC3A002069
:1024F000B03A0020B43A002000B5ADF1140D0191BE
:10250000009002A80CF006FA03208DF808004FF0A6
:10251000004002A907F036FF834908604FF0804071
:1025200002A907F02FFF814908608048006830B198
:102530007E4800680021002250A30AF051FD7A482D
:10254000006830B1784800680021002253A30AF0E7
:1025500047FD7848784905F0E7FF754908607448F9
:10256000006810B952A00BF025FB4FF48030012118
:102570004FF47F6208F066FB70480BF0FBFD0CF037
:1025800047F971486F496E4A0068B1FBF0F1106875
:102590000CF036FA6A4800680BF057FD6A486C493F
:1025A0006A4A0068B1FBF0F110680CF029FA6A4839
:1025B0006A4905F0B9FF674908606648006810B9C4
:1025C00046A00BF0F7FA6348654900680CF038F84C
:1025D00010B14AA00BF0EEFA554800681E21012206
:1025E00009F02CFD5F48006800214FF0FF324FF0EA
:1025F000FF3304F081F803900398400813D30620BA
:102600000BF09AFD0022002100B1012101B9012245
:1026100047480068062109F011FD5348008807F07B
:1026200045FBFFF7E9FD0398800801D3FFF7E4FDC0
:102630000398C00802D303A803F042FA03980009E4
:10264000D0D339480068002100220BF0D4FF07F0F6
:10265000E9FC35480068012100220BF0CCFF3D4821
:10266000424A00684FF4E02109F0F6FE3948404A3A
:1026700000684FF4E02109F0EFFEB3E75761697499
:10268000696E6720666F72205343452041444320A2
:1026900072656164696E672E2E2E00C05761697481
:1026A000696E6720666F72204144432E2E2E00C053
:1026B0004572726F7220696E697469616C697A69BA
:1026C0006E6720626F61726420332E335620646F10
:1026D0006D61696E2070696E730A00C04572726F19
:1026E0007220696E697469616C697A696E672062CB
:1026F0007574746F6E2070696E730A004572726F24
:1027000072207265676973746572696E672062759D
:1027100074746F6E2063616C6C6261636B206675AC
:102720006E6374696F6E00C0281E00202C1E00208E
:1027300090200020EC1F0020E43A00209DD20000F1
:102740001C1E002080C3C901743C0100201E002013
:10275000A0860100241E0020E01F0020A83B0020CE
:1027600061700000141E0020181E00200D0005805E
:102770000E0005802DE9F047DFF80CA20746AAF10C
:102780003500DFF8F8810068800880F0E7800AF003
:102790007BFC814908310B6800261A17990D02F15C
:1027A00001020AD2C0F13E0110F10A0F4FEAE10125
:1027B000D8BF08218A42B8BF0A1CDFF8C4C1990EED
:1027C0000FD2590E0DD36446143C2168C1F3042185
:1027D0001629A8BF20392468C4F30464162C0EDB24
:1027E0000CE0634CD4F87C11C1F304611629A8BF36
:1027F00020392468C4F30444162C00DB203C511813
:10280000A146162905DA11F10A0FB8BF6FF00901C8
:1028100000E01521574C584D01F01F0242F4F852C8
:1028200022802A6812F0030F18BF0126D20828BFA1
:1028300046F002060FB146F00406424692F9074000
:10284000041B052C04DA9479B44208BF918865D042
:102850000F28A0F10F0827DB08EB0014A4F1F00803
:102860004FEA282EBEF1070F88BF4FF0070E7546BE
:10287000062D88BF06255CF82570042404EB85042A
:1028800065462C59E41B04F0FF05F70824BFC4F388
:1028900007273D44B70824BFC4F307473D447708E2
:1028A00028BF05EB146501E00025AE465CF82EC09C
:1028B000F7080CF0FF0424BFCCF307273C44B7080B
:1028C00024BFCCF307473C44770828BF04EB1C64C3
:1028D000ADB2A8EB0E27B9EB010105FB07F505F139
:1028E000800504EB1524D8BF012103F0FF03342534
:1028F0004D435D434FF6FF73B5FBF4F18B4238BF98
:10290000191C802889B2918005DA10F1800FB8BFB8
:102910006FF07F0000E07F20D07196711948006849
:102920001F2910604FF0000008D340F2FF128A42C6
:1029300006D24908401C8A42FBD301E01F21918046
:10294000124F0F39090940EAC10047EA0001CAF8ED
:10295000FB1F0026CAF8FF6FBDE8F0870C490D4F3A
:10296000424608200F60921D1070BDE8F087C046F7
:102970003C1100506E620840242208407420002060
:102980009C130050082009403500094000E7A4804E
:1029900030100940FDFDA400AC3F005001282DE996
:1029A000FE4F40F0EB80DFF80CB2DBF8DC000128D2
:1029B00040F0E1800220CBF8DC000AF0BFFD0120EE
:1029C00008F020FF5FEA000805D00120CBF8DC000A
:1029D0000AF0C4FDD4E00BF0EBFF6B49029000203D
:1029E000086001200AF086F9012818BF002003D1F1
:1029F000002007F0BFF90120644900900020644FD7
:102A00000860386811200BF027FE00280CBF002456
:102A1000012410200BF020FE08B144F002040F2026
:102A20000BF01AFE08B144F004040B200BF014FE66
:102A300028B158480068584E016B308888470A20F2
:102A40000BF00AFE002600B101264FF0805A0AF56D
:102A5000DC75301C04D02868504E016B30888847E4
:102A60004F48012606602868816944F020008847A5
:102A70004C4806600BF0EAFD00F0010101914008AE
:102A800014D249480BF06CFD8146B9F1040FF8D01F
:102A9000B9F1010F05D1DAF8D801426842480321A3
:102AA00090474249086820F0030008600020FFF7C3
:102AB00061FE2B683868986B8047019801280DD01B
:102AC000B9F1010F05D1DAF8D8014268364831462C
:102AD00090473649086840F0030008602B480660BC
:102AE00028684169204688470B200BF0B5FD20B1CE
:102AF0002868294BC16A188888470A200BF0ACFD6A
:102B000020B12868254BC16A1888884724480322C9
:102B100006602449CBF8DC2000230B602868416B59
:102B2000204688470128F9D13868042008F06AFE59
:102B3000044615481E490660386808688009FCD3B9
:102B40000098012802D1304607F014F90BF06CFD13
:102B5000082008F057FE07460298CBF8DC6009F021
:102B60007FFD07F03DFC0AF0F9FC57EA040018BFAE
:102B70004FF0FF3804E06FF0040801E06FF0010847
:102B80004046BDE8FE8FC0460C400940000222438B
:102B90002C200940B801001078350100743501007F
:102BA000282008608001044300400340242208409C
:102BB00014100940983000202DE9F04705461F46C3
:102BC0001646ADF1380DD1B16C480C7802684FF063
:102BD000010808FA04F0024211D069607EB1304663
:102BE000002103F0DDFEAE600BF0CEFE644C8146AA
:102BF000601C0078022804DB48460BF09DFE002094
:102C0000B8E0002870D102F0C9FA5E49086840F0C7
:102C1000020008600AA80BF0B3FBDFF86CA15B4967
:102C20009AF802000AAA0C9004F1EC0009F090F95D
:102C30000AA80BF07DFB002619210AAB8DF8306045
:102C40009AF80000524A0B9004F1700008F00CFF53
:102C50000AA80BF095FB9AF803004E490AAA0C90BB
:102C600004F5907009F074F90AA80BF061FB9AF86A
:102C700001008DF830801A210AAB474A0B9004F10D
:102C80008C0008F0F1FE4549324604F1C8001346B5
:102C900008F060FB42480BF0B5FC424A3346042181
:102CA00004F128000AF004FA4FF6FF70A4F8C400FB
:102CB00084F8C760E67026716671A671E6712672A7
:102CC0000523667204F15802A672314684F8683012
:102CD000304682E803004FF4FA71C4F85C11324ABE
:102CE000C4F860116078167004EB8001401CC1F8D4
:102CF0005451C0B2607048460BF01EFE44461FB9E6
:102D000003AF38460BF022FA386828607868E8602C
:102D1000387C2874B8696C742862788A6882234E7B
:102D2000AE61EE616E61F86800B1A861786900B1CA
:102D3000E861B86800B168610021A02205F12800AF
:102D400006F076F905F1400000210AF02BF86846FC
:102D50000BF0D7FD1649029505F1780000226B466D
:102D600008F0F8FA134905F19C0000226B4608F0C0
:102D7000F1FA28460EB0BDE8F087C046D4210840DD
:102D8000200D002000200940243C010079DE0000D5
:102D9000258200005D83000099AC000051C800004E
:102DA0000960000015B0000094200020FB7E0000A8
:102DB00031D900002DE900000FB480B502AFADF1AC
:102DC000100D704800680121002209F037F96E48A3
:102DD0000078032803D06C480078012804D1B88813
:102DE0007988BA6803F08CF86748007804280DD118
:102DF000B8887988BA6803F083F83878634908702E
:102E0000634862496FF0090208F02AF900208DF842
:102E100008009DF808000A2880F29B8025208DF884
:102E200009009DF8090028287DDA57480078022813
:102E300003D05548007801282CD10D200BF072F9F1
:102E40000022002100B1012101B901225148027084
:102E50009DF80920002101200AF0CDFC8DE8030037
:102E60004F4A4D484D49126800680968012300F037
:102E70004FFC9DF80920012000210AF0BCFC8DE8E0
:102E800003004A4A47484849126800680968012314
:102E900000F03EFC3C480078032803D03A48007814
:102EA000012819D19DF80920012000210AF0A3FC76
:102EB0008DE803003E490122012004F09FF99DF8AE
:102EC0000920012000210AF096FC8DE80300384912
:102ED0000122022004F092F92B480078042819D12D
:102EE0009DF80920012000210AF085FC8DE80300EF
:102EF0002F490122002004F081F99DF809200120CA
:102F000000210AF078FC8DE8030029490122022003
:102F100004F074F99DF80900401C8DF809009DF833
:102F20000900282881DB9DF80800401C0A2806DAE1
:102F30009DF808001F4951F8200006F035FB9DF868
:102F40000800401C8DF808009DF808000A28FFF6CC
:102F500065AF0C4800680121012209F06FF80720D5
:102F60000BF0EAF80022002100B1012101B9012291
:102F700004480068072109F061F804B0BDE880400A
:102F800004B0704790200020A63A00207C2000204A
:102F9000CA3B0020C93B0020282000202C20002014
:102FA0003020002040200020442000204820002025
:102FB0005C200020243800202DE9F0411C461546F5
:102FC0008C4208BF854282BF00230022E5E0002C2E
:102FD00008BF002D0AD100290EBF00286FF00000A5
:102FE0006FF0000100F0E1F8BDE8F0815FF000084B
:102FF0005FF0000E002C08BF8D429CBF2C1C0025EA
:10300000070C47EA01470E0CB44208BFBD429EBF01
:103010005FEA044444EA15445FEA0545070A47EAC3
:1030200001670E0AB44208BFBD429EBF5FEA042496
:1030300044EA15645FEA0525470847EAC1774E0868
:10304000B44208BFBD4200F29380870847EA817707
:103050008E08B44208BFBD427CD8C70847EA417712
:10306000CE08B44208BFBD4266D8070947EA0177D7
:103070000E09B44208BFBD4250D8470947EAC167AC
:103080004E09B44208BFBD423AD8870947EA816772
:103090008E09B44208BFBD4224D8C70947EA416738
:1030A000CE09B44208BFBD420DD8E60146EA5566D6
:1030B000EF01B14208BFB84201D3C01BB14158EB88
:1030C00008085EEB0E0EA60146EA95664FEA8517E4
:1030D000B14208BFB84201D3C01BB14158EB080848
:1030E0004EEB0E0E660146EAD5666F01B14208BF8F
:1030F000B84201D3C01BB14158EB08084EEB0E0E8D
:10310000260146EA15762F01B14208BFB84201D325
:10311000C01BB14158EB08085EEB0E0EE60046EA14
:103120005576EF00B14208BFB84201D3C01BB14190
:1031300058EB08084EEB0E0EA60046EA9576AF0057
:10314000B14208BFB84201D3C01BB14158EB0808D7
:103150004EEB0E0E660046EAD5766F00B14208BF10
:10316000B84201D3C01BB14158EB08085EEB0E0E0C
:10317000A14208BFA84201D3401BA14158EB080857
:103180005EEB0E0EA34208BFAA423EBF2D0A45EADF
:103190000465240A89D3734642461E4617460B46E9
:1031A000024631463846BDE8F08170472DE9FE4FB2
:1031B00083460D46DBF80800DBF8044000902868E1
:1031C000002800F0D2800BF0DFFBD4F8881021B18A
:1031D0000BF0B2FB03202874C7E001212974C4F866
:1031E00088500BF0A9FB94F8A40038B194F88D2016
:1031F0005F49D4F89C00114309F048F96F680BF05F
:10320000C3FB064694F8D80060B917F0704F03D19D
:1032100017B1042009F004FB022009F001FB012092
:1032200084F8D80030460BF087FB0098D0F800A057
:10323000DAF8040040F00200CAF80400DBF8046089
:10324000DBF80830D5F800C01F6896F88C101FFA1C
:103250008CF0B7F1804F00FA01F080B2019014BFFA
:10326000444F454F4548A96849B996F88C104FEA34
:10327000810900EB09018A6906F1A6010AE096F8C6
:103280008C20DDF804E04FEA820900EB09021269A4
:103290007144491EBA6080467960186800F1080ED2
:1032A000C7F800E0B9684FEA0C1243F6F07CA2F1CF
:1032B00010000CEA00000143B9601A68B2F1804FB7
:1032C00014BF2F492F496F68B7B9D88908EB090790
:1032D000A6F8A600B86906F1A6028860009F0A60F9
:1032E000D7F800A01A682F6802F1080E3D01103DC2
:1032F000674607EA050007E008EB0905AD688D6041
:10330000019DED196D1E0D60C1F804E08D68284324
:103310008860D6F8A0705869196908437968096807
:103320008862506A40F003005062DAF8140040F0FE
:103330000100CAF81400207830B9616804F16C000B
:1033400005460AF0C0FF10B90120BDE8FE8FD4F891
:103350008800017C012904BF03210174584603F051
:103360003FFA284600210AF0AEFF0020BDE8FE8F9C
:103370000000068000050020300400205C360100BB
:103380001005002040040020F0B5ADF1140D8DF8BB
:103390000810009069490320087069481422002130
:1033A00005F046FE66491020087066499DF9080040
:1033B000087000980AF024FF8DF80B0000208DF8AB
:1033C00009009DF8090004281CDA9DF809005E49EF
:1033D00051F820000AF014FF8DF80C005A499DF8AE
:1033E00009009DF80C2051F82000009909F09CFE7E
:1033F00040B19DF80900401C8DF809009DF80900B6
:103400000428E2DB9DF80900042801D1022092E0A3
:103410009DF809004D49087000999DF80C0040186E
:1034200000909DF80B009DF80C10401A8DF80B00D1
:1034300000208DF809003DE000208DF80A009DF87D
:103440000A000E281FDA9DF80A00414951F82000B1
:103450000AF0D6FE8DF80C003D4C9DF80A00009B4A
:103460009DF809109DF80C2054F82000C91809F0A7
:103470005BFE40B19DF80A00401C8DF80A009DF8E3
:103480000A000E28DFDB9DF80A000E280DDA0099ED
:103490009DF809202F4804F013FF9DF809002B4ADE
:1034A0009DF80A10401C11540AE09DF80900401CC8
:1034B0008DF809009DF80B009DF809108842BBDCCF
:1034C0009DF80B009DF80910884223DD9DF8094006
:1034D0009DF809609DF80B20009F9DF809301B485E
:1034E0009DF80C509DF80C10A41C921BDB190019C0
:1034F000521BC91804F0E4FE9DF80C109DF80B0057
:10350000401A001D01900D4901980A788018087032
:10351000002010E09DF80B00801C019007490A78FC
:103520000198801808709DF80B200A480099521CD9
:1035300004F0C6FE002005B0F0BDC0469620002075
:10354000301F0020311F00207C3B0020321F002054
:1035500050350020331F00202DE9FC4F83F000433D
:1035600001E02DE9FC4F1F03FF0847EAD2574FEA5D
:1035700042284FEA43095FEA595906D147EA080A47
:103580001CBF00210020BDE8FC8F57F000575FF4FE
:10359000E06E1EF1FF0EF14505D14FF00000190D50
:1035A0000905BDE8FC8F002B05D55FF0000AD8F1B6
:1035B00000086AEB07070C03E40844EAD0544FEA1A
:1035C00040254FEA4106760D08D144EA050A19BFA5
:1035D00000210020191C101CBDE8FC8F44F0005491
:1035E000764504D10020090D0905BDE8FC8F0029AE
:1035F00004D55FF0000A6D426AEB0404B6EB090ED5
:1036000008D5A2463C465746AA464546D046CEF186
:10361000000E4E46BEF1360F5CBF4FF0000B23E0AC
:10362000BEF1000F04BF4FF0000B1AE0CEF1390AD3
:10363000BAF120092EBF08FA09FB07FA0AFB4BEA88
:10364000080BDEF1200A07FA0AFA38BFBA4647FA31
:103650000EF72DBF28FA0EF8AEF1200E4AFA0EF83A
:10366000D04415EB08057C4154EA050A02BF00214D
:103670000020BDE8FC8F002C58BF4FF0000A06D593
:103680005FF0010A5FF0000E6D426EEB0404A6F1DC
:1036900001066D006441FAD515F4806E11D005F471
:1036A00080794BEA090B15F5806554F1000428BFB9
:1036B000761C0BD205F400795BEA090B08BF25F4F0
:1036C000006525F4E0656D0044EB0404B61CDEBF24
:1036D00000210020BDE8FC8F5FF4E06E1EF1FF0EBC
:1036E00076450AD34FF0000013F00043FF21C900D4
:1036F000C91D09051943BDE8FC8F270547EA1530A8
:10370000210B41EA065141EACA71BDE8FC8F7047BE
:1037100007B401B4F0B505AFADF1340D0893002046
:103720008DF82C005D491EC904A880E81E005C4885
:10373000007808B90120ACE0089808B90A20089080
:1037400058480168087B20F00F000873554801684D
:10375000087B40F0800008735248006800218160B7
:1037600050490968387A096988714E490968F868CA
:10377000096988604B49096878680969086149499D
:10378000096804A8486102AA0220002182E8030017
:1037900000200A9060E0002009904FE00A9A012082
:1037A00000210AF028F80E4607F1100106C9014071
:1037B00016EA020000D100293DD03A499DF82800C0
:1037C0000968887337480A9900680F3002784031D9
:1037D00061F306020270002100208DE803003248E8
:1037E0003049006809680023002208F093FB02AA10
:1037F00082E8030002A890E80C0000260221114094
:1038000016EA030000D1002902D105208DF82C0012
:1038100009980899401C81420DD94FF47A700C9098
:1038200009980A2804D20998204951F820000C90E0
:103830000C9805F0B9FE0998401C09900898099960
:10384000884206D902A890E86000002E00D1022D1F
:10385000A4D00A98401C0A900A9828280AD202A8E4
:1038600090E80C0002210026114016EA030000D166
:10387000002990D102A890E80C00022100201140FC
:10388000184000D1002902D101208DF82C009DF8AC
:103890002C000DB0BDE8F04004B070475C3B010067
:1038A00007390020043B0020842000202438002019
:1038B0002DE9F04F0746880FADF1140DC0F0B98027
:1038C000002007F035F860485B4E4FF0000900F12A
:1038D0001408C8F80090012048F81C6C09F00EFE8E
:1038E00056480AF08FFE564DBC68CB4640F60A0695
:1038F00005F1140095F82010EA7895F82130A5F824
:1039000016908246C5F818B001F0F0010680012A31
:1039100085F8201003F0F000A4F8029040F00100B8
:1039200085F8210001D17B7CABB1B8680088A6F195
:103930000801814208D0B0F5C15F05D0218B4FF658
:103940000F400840208304E0218A4FF60F400840D2
:10395000208287F81190B868694603F0AFFA68468C
:103960000AF0EEFC3346D91F4A1C00E03446666874
:1039700036B13088834203D0814218BF8242F5D1EC
:10398000C4F804A0607B00F0F000607305F13C0017
:103990000BF006F88068008881421FD082421DD05B
:1039A0003E8D06B397F8340097F83560C7F82CB011
:1039B00000F0F00087F8340006F0F00040F001005D
:1039C00087F8350007F12803AB619AF80D00A7F8D6
:1039D0002A9000F0F0008AF80D0004E0DA4605F1C4
:1039E000580080E80006B9680A8A4FF6FF30104098
:1039F0000882D8F800000028FBD0687AC8F8009048
:103A000070B9012009F076F901280FD0607B00F031
:103A1000F00040F0010060730A480AF0F3FD05E091
:103A200008F03CFA0028FBD008F056FAB86848F8CD
:103A30001C0C05B0BDE8F08F01010E044D10000014
:103A4000200D0020AD9A0000081004402DE9F84335
:103A5000614C5A4D5A4EDFF870815E4F94F8E41075
:103A60000846401E0B2864D8DFE800F07B2C430694
:103A70002343062343067664042907D001220A293A
:103A800045F8212C14BF0220032004E0202045F833
:103A9000210C0120024684F8E200002045F8390C90
:103AA0000827C5F8FF7FC5F8F37F45F8392CBDE836
:103AB000F883052914BF09200620002784F8E400B4
:103AC000376075E094F8E170383D0120002FC5F8AB
:103AD0001B0004BF0620002102D00021F16003205A
:103AE00084F8E400032045F8010C31603068800858
:103AF0005ED294F8E4103348012703290ED0006801
:103B0000456800216022052300914046A84794F8AB
:103B1000E400062814BF0A200720CFE700684568A4
:103B2000002160220523022000904046A84704207F
:103B3000C4E7FEE72548264F0026012506600E2033
:103B40003D6003F0B1FD022008F0BAFC84F8E450B7
:103B500084F8E360BDE8F883002038600C257860C5
:103B600024E04FF08059D9F8A0010168202088474F
:103B70002C3D0F2045F8010C41F61D56C5F8036099
:103B8000D9F8A401466800214FF4C072072302252A
:103B900040460095B047D9F8A401C66800214FF40B
:103BA000C07207234046B0470120386084F8E450D3
:103BB00004F178000AF0E2FEBDE8F88339400C40D9
:103BC00038600C40A401001000A00C402C500C40A8
:103BD00004800C4034600C40983000202DE9F04FF8
:103BE0008146ADF11C0D01F0D9FA09F03FFE002627
:103BF000012804D10AF02CF8022808BF01265149F7
:103C00000868C0F38150012806D151F80C0C012737
:103C1000010E07FA01F006434B48007809F01AFB41
:103C20004A4D2C46286038B1FF2204F14001074676
:103C30007F1E01F8012BFBD1D9F800104FF00008CE
:103C400001F0FF02FE2A1CD0CC4601F0FF034246E1
:103C50000127FF2B0ED0984203D907FA03F31E4227
:103C600001D002206AE001F0FF0143EA0808611870
:103C700081F840205CF8041F521C01F0FF03FE2B6A
:103C8000E7D1092003F088FEC4F8049004F1240071
:103C9000012109F087F823683BB3002794354FF0E2
:103CA000040BBA460120B840064218D118EA000FAA
:103CB00004BF07F0FF0141F4C04104D0E01990F8BF
:103CC000400059F82010224802F046FFF8B24FF0A9
:103CD000FF3109F0F5FD2368C5F800A001E0C5F843
:103CE00000B07F1C2D1D9F42DCD304A80AF020FBEE
:103CF000184D194A2878102104AB059004F10800EA
:103D000007F0B2FE68460AF03BFB00276A46686887
:103D100003971249029004F1600008F019F9104964
:103D200051F80D0C012620F4F85040F4005041F8F1
:103D30000D0C0C4DC1F8FF6F38462E6007B0BDE882
:103D4000F08FC046B43F005097200020D4140020CC
:103D5000007FC767F03B0100DDD800006DB60000B2
:103D60000D3009400800094000B5ADF1140D8DE893
:103D70000C00ADF81010029006208DF812004A4891
:103D800003904A48006806F059F849494FF0FF305F
:103D900008809DE80C00022100201140184000D14D
:103DA000002960D043480088B0F5505F4DD103989A
:103DB0000079032803D006208DF8120068E03E4801
:103DC0000088012808D03D480078C011400828D359
:103DD0003B480078012824D13B4903980A78007AAF
:103DE0003849801A087038480399027837480931F1
:103DF00004F066FA3449334A0398097812780918AE
:103E00003348093104F05CFA3348324990F9000034
:103E10000870334831490068086000208DF81200AE
:103E200036E030480078012803D108208DF81200D0
:103E30002EE02D480078012803D10A208DF81200C9
:103E400026E006208DF8120022E01A48008843F28E
:103E50000141814203D107208DF8120018E00620AD
:103E60008DF8120014E09DE80C004FF00050002186
:103E7000834200D18A4208D09DE80C004FF0804078
:103E80000021834200D18A4202D10A208DF812001B
:103E90001648006830B115489DF8121000680246B7
:103EA0000A48904705B000BD741900208C1F0020FF
:103EB000983B0020CA1C002010200020D61C0020A7
:103EC00014200020201A00208C3B00200C1A002017
:103ED000211A0020141A002017200020181A002090
:103EE000182000201620002015200020841F00200C
:103EF0000FB480B502AF44490020087044484349DC
:103F000000780870444843490078087044484349A1
:103F1000008800F47F400012087041484149008841
:103F200000F0FF00087041483F49008800F47F40DE
:103F3000001208703D483E49008800F0FF000870FC
:103F40003D483C49006800F07F40000E08703A4848
:103F50003A49006800F47F00000C08703648384980
:103F6000006800F47F40000A087033483549006853
:103F700000F0FF0008703548334900780870344974
:103F8000102008703349387C08703349786908601C
:103F900032490020087078694FF47A614143032068
:103FA00003F022FB184800F027FF10B107A009F02A
:103FB00001FE2B48002100F055F810B10AA009F0CD
:103FC000F9FDBDE8804004B07047C0464561737993
:103FD0004C696E6B5F7472616E736D69742066619B
:103FE000696C656400C046C0456173794C696E6B4D
:103FF0005F726563656976654173796E632066619A
:10400000696C656400C046C0401800204D1800204F
:10401000A01F00204E180020A11F00204F180020D4
:10402000A21F00205018002051180020A41F0020BB
:104030005218002053180020A81F002054180020F8
:10404000551800205618002057180020AC1F0020DB
:104050004C180020D1180020D4180020D0180020BF
:104060004D7A000000B5ADF11C0D039102900620C1
:104070008DF814004448007810B14448007808B125
:1040800001207EE042480068002103F083F920B15E
:104090004048B0F90000002801D4092071E00298DE
:1040A0003D4908603D48049004988921C1800498E6
:1040B000002101713A49049808603A4900200860DB
:1040C0003748394908603A4838490860039880B150
:1040D00038483849007820F00F0040F0020008709E
:1040E0003449087840F0800008700398324908602D
:1040F0000CE03049087820F00F0008702D4908784E
:1041000040F0800008702C49002008602B480068AF
:1041100078B12B482A49007820F00F0040F00200C7
:10412000087006F065FD2549264A096808181060E0
:104130000AE023482249007820F00F0040F00100F7
:104140000870204900200860194800210C2204F062
:104150006FFF02204FF070418DE803001C4B1A489E
:104160001A490068002200F051FA0A4908800948FB
:10417000B0F90000002802D400208DF814009DF84A
:10418000140007B000BDC0468D3B00208E3B0020D0
:104190008C1F0020983B0020841F002074190020F1
:1041A0006420002068200020F01C0020F41C002067
:1041B00010200020D41C0020D01C0020943B0020A4
:1041C000E71C0020E81C0020881F0020C81C0020DD
:1041D000693D00000EB58DF80A0004208DF80B0033
:1041E0004748007810B14748007808B1012086E0C0
:1041F0009DF80A00042805D09DF80A00052801D082
:1042000002207CE040480068002103F0C3F820B1A0
:104210003E48B0F90000002801D409206FE03C4975
:1042200040F6080008803B49087820F00F0008702D
:104230003849087840F0800008703749002008604D
:104240003649087840F00200087036483449006862
:10425000086032483149007820F00C0040F0080036
:1042600008709DF80A00042809D12F494FF6FF7005
:1042700008802A49087840F00100087008E02A49BF
:104280004AF6AA2008802549087820F00100087025
:1042900026482649007820F00F0040F00100087001
:1042A000244B02204FF070418DE80300204818494C
:1042B0000068002200F0AAF9144908800020ADF837
:1042C00008000FE01C48006842F21071B1FBF0F0EA
:1042D00005F06AF9BDF80800411CB0F5FA7FADF8A9
:1042E000081003DC154800880228EBD11348008829
:1042F000022802D100208DF80B009DF80B000EBDA6
:104300008D3B00208E3B00208C1F0020983B00201E
:1043100024390020303900202C3900203239002087
:1043200038390020001F00203439002037390020A0
:10433000881F0020FDCD0000743C010026390020BC
:104340002DE9F84F804692460868DAF80050067862
:1043500000271C46BB46421C242E0A6026D110F8BA
:10436000016F521C532E0A6020D1ED1C25F003056D
:104370002D1D55F8040CE061CAF80050208B009008
:10438000A168E269D8F800005346FDF711FC8346A6
:10439000D8F8000010B15844C8F80000DAF800500E
:1043A0002068E7600127A0EB0B002060662E05D097
:1043B000002F64D1E16901200E705FE0208B40B9CD
:1043C000ED1D25F007050835A5F1080090E800036C
:1043D00009E0ED1C25F003052D1D55F8040C07F030
:1043E0000DFF894680462AA20CCA4946404604F081
:1043F000D3FC28BF002705D2206989F00049012796
:10440000401E206124A20CCA4946404604F007FD24
:1044100031D3404607F02EF8064608F0F8FB0B466D
:10442000024649464046FFF797F81DA20CCA01F024
:10443000F1FF07F02BFA0146606904220A2305F018
:1044400023F9401EE0612E21017063692269E06951
:1044500031461B1AE360D21A0A2305F015F9002F22
:1044600008BFE06104D0401EE0612D210170E069C9
:104470006169081A02E004A0E0610720E060CAF860
:1044800000505846BDE8F88F286572726F72290097
:1044900000000000000000000000C0FFFFFFDF413F
:1044A000000000000088C3402DE9FF410446666813
:1044B000A7680D460AF068FA3178012903D10AF09D
:1044C0003BFA002091E0012131700AF035FA28789A
:1044D00070706878B07068687060A868B060E868EC
:1044E000F06028693061287D3075687D7075A87D21
:1044F000B075A869B061287F3077687F7077A87F32
:10450000B0774FF00008C6F82080C6F830804546E6
:1045100075627563B562B56386F82C50102386F812
:104520003C3086F82D5086F83D50786803F034FA18
:10453000204603F017F9204604F042F870B92C48E1
:104540000068C16838688847786803F0ADF80AF0F9
:104550001BFA35700AF0F0F92C4645E0684609F080
:10456000E7FE0094387B234A0190B9686B4606F158
:10457000800007F079FA684609F002FF00941E49AE
:1045800038696A46029006F19C0007F0E1FCB078B9
:1045900030B906F1D000294608F004FC1748306114
:1045A000707830B906F1EC00294608F0FBFB14489E
:1045B000F06068460AF0A5F901958DF800501149A0
:1045C000029406F584700A226B4606F0C3FEB969B0
:1045D000FA6906F1400009F06DFE0B4A06F16C0025
:1045E0000421234608F064FD20460090BDE8FF81C9
:1045F000D0010010F55D000055C10000FBE800008F
:10460000A3E8000019880000E1E400002DE9F84F5C
:10461000994692468B4606460AF0B6F94E4C0090F3
:10462000B4F95210B4F950000AAF401A40F6F871CC
:10463000014008297CDAB4F95000401C6FF31F30A8
:10464000A4F85000B4F9508008F03AFE054606F18F
:1046500078000AF095F9C5F808B085F826A0C5F8E5
:104660000490A5F824803D48EE6097E80C002021D6
:1046700000271940104005F1100383E8030004F1FE
:104680003C0085F827700368002B43D1294607F0CA
:1046900031FF002844D0A6F8C08095F8270040F0EC
:1046A000800085F8270086F8C270A07920B12078B4
:1046B00010B1A7710120E07100980AF03DF9206C5B
:1046C000002845D12078F0B92079012840D00AF09F
:1046D0005BF90646607988B9A86805F07DFB40B9AA
:1046E00030460AF029F904F1EC0004210AF064F9DB
:1046F0002EE004F1C8000AF041F902E01849012057
:104700000870304622E0012009F0F6F819200AF07E
:104710003FF91DE004F13C00294607F0EBFE50B9DB
:10472000B4F9500000F6FF706FF31F30A4F850008A
:104730006FF0010809E0A6F8C08095F8270040F066
:10474000800085F8270086F8C27000980AF0F4F817
:104750004046BDE8F88FC046200D0020FDEFFF9FCA
:1047600095200020B0B5456884684F48297BADF19D
:10477000180D012916D0217E627E4C4B2F7E0143FD
:10478000009143EA02010191494937F0010718BF3E
:10479000081CA27E1043029095F88D000322FF288A
:1047A00011D00DE0677E217E3843A37E019041F059
:1047B0000041009143F000403E49029095F88D0081
:1047C000014304220391FE204DF82200694605F1C1
:1047D000900003F0A9FEC5F89C00002808BF002047
:1047E0005FD0287B344951F8200001282BD0206865
:1047F000B0F1804F14BF22220A22217ED5F89C00FE
:1048000008F0BAFA2068B0F1804F14BF21220922C3
:10481000617ED5F89C0008F0AFFA2068B0F1804FB7
:1048200014BF24220C22A17ED5F89C0008F0A4FA23
:1048300095F88D10FF2933D02068B0F1804F14BF58
:1048400023220B2228E02068B0F1804F14BF2122E0
:104850000922217ED5F89C0008F08EFA2068B0F17C
:10486000804F14BF22220A22617ED5F89C0008F0F6
:1048700083FA2068B0F1804F14BF24220C22A17E5D
:10488000D5F89C0008F078FA2068B0F1804F14BF8A
:1048900023220B2295F88D10D5F89C0008F06CFAB5
:1048A000012006B0B0BDC046000480A000400080DA
:1048B0000004C0A0002000805C360100F8B5071C91
:1048C00000F0A180B86840F6030120264A1C02E0EF
:1048D0004068761EF6B260B15EB10388994218BF97
:1048E0009A42F5D1F9681CC828311CC149C881E831
:1048F00049007868BA690026BE6168B3F9684868FB
:104900000078022818BF42F0020297F8270000231F
:1049100000F00700401E09D0401E04D0801E08D1C0
:104920004FF0805304E04FF0804301E04FF000531C
:10493000324697F82700000908D397F8270010F0AF
:10494000070F03D04FF0807032430343B7F9244080
:10495000084621467C68A0470AF016F82A4C05460E
:10496000B4F95200401C6FF31F30A4F8520004F158
:104970004C00016881F8276009F03BFB284609F0EC
:10498000DBFFB4F95000B4F9521088423BD1F8680B
:1049900090F8C20000280CBF0520072003F0F4FBAC
:1049A00004F5AA742568F868854208BF656890F820
:1049B000C240002C0CBF0468341C80F8C2604DB1AA
:1049C00095F8C23023B92868A04228BF041C01E032
:1049D00085F8C260A4B10D480068B4F1FF3F12D061
:1049E000B4FBF0F101298CBFB4FBF0F10121F868B0
:1049F000783009F0C1FFF868783009F0BFFFF8BDE2
:104A0000012006F055FEF8BD200D00208C2000206E
:104A1000ADF1300D504800905048019039200A9077
:104A2000009850F8041B00900291009850F8041B65
:104A300003910090009850F8041B04910090009896
:104A400050F8041B05910090009850F8041B069143
:104A50000090009850F8041B07910090009850F8BF
:104A6000041B08910090009850F8041B09910090D5
:104A70000198011D0191029901600198011D0191A8
:104A8000039901600198011D019104990160019849
:104A9000011D0191059901600198011D019106997F
:104AA00001600198011D0191079901600198011DA4
:104AB0000191089901600198011D01910999016016
:104AC0000A98401E0A90ABD1009850F8041B009041
:104AD0000291009850F8041B03910090009850F840
:104AE000041B04910090009850F8041B059100905D
:104AF000009850F8041B06910090009850F8041B91
:104B000007910090009850F8041B089100900198BC
:104B1000011D0191029901600198011D0191039904
:104B200001600198011D0191049901600198011D26
:104B30000191059901600198011D0191069901609B
:104B40000198011D0191079901600198011D0191D2
:104B5000089901600CB0704728EA0000008000212D
:104B6000ADF1300D504800905048019026200A9039
:104B7000009850F8041B00900291009850F8041B14
:104B800003910090009850F8041B04910090009845
:104B900050F8041B05910090009850F8041B0691F2
:104BA0000090009850F8041B07910090009850F86E
:104BB000041B08910090009850F8041B0991009084
:104BC0000198011D0191029901600198011D019157
:104BD000039901600198011D0191049901600198F8
:104BE000011D0191059901600198011D019106992E
:104BF00001600198011D0191079901600198011D53
:104C00000191089901600198011D019109990160C4
:104C10000A98401E0A90ABD1009850F8041B0090EF
:104C20000291009850F8041B03910090009850F8EE
:104C3000041B04910090009850F8041B059100900B
:104C4000009850F8041B06910090009850F8041B3F
:104C500007910090009850F8041B0891009001986B
:104C6000011D0191029901600198011D01910399B3
:104C700001600198011D0191049901600198011DD5
:104C80000191059901600198011D0191069901604A
:104C90000198011D0191079901600198011D019181
:104CA000089901600CB07047DC17010000C00021BA
:104CB0002DE9FF410646080BC0F08E80484C0025C8
:104CC0000127E0682570016A2772C90803D3C36908
:104CD00004212A4698474349A0462A4608F1700015
:104CE00009F058FE404809F08DFCD8F80C004168E6
:104CF0003F4C886808B9C86820B1A4F11C00C561A0
:104D00003A490160384605F013FE2560394844F8F9
:104D10001C0CB1684D80B068028840F602009042D9
:104D200008D0B2F5C15F05D00B8B4FF60F421A4089
:104D30000A8304E00B8A4FF60F421A400A8200F100
:104D4000080C7774ACF10702531C00E039464F6839
:104D500037B13888844503D0824218BF8342F5D1E9
:104D60002F464F60487B00F0F00040F00100487390
:104D700008F13C0009F014FE8068008882421BD0D4
:104D8000834219D0308DC8B196F83400758596F8F5
:104D90003530F76200F0F00086F8340003F0F000E0
:104DA00040F0010086F8350006F128024A60487B91
:104DB00000F0F000487301E0C8F86050B068694640
:104DC00002F07CF8684609F0BBFA20680028FCD0A5
:104DD0002560B06844F81C0C0090BDE8FF81C04617
:104DE000200D0020F5D900004D10000051000706ED
:104DF0001C10044001010E0400B5ADF11C0D04901F
:104E000005208DF816004048007810B13F48007822
:104E100008B1012076E03E480068002102F0BAFAAD
:104E200008B909206EE00498007B802801DD02208B
:104E300068E0384804990278374803F041FA354B66
:104E4000049A049934481B78127B0D31C01803F082
:104E500037FA04992F480A7B007830498018087087
:104E60002D482F4908600498806888B12D482D4945
:104E7000007820F00F0040F00200087029490878FF
:104E800040F08000087004982749806808600CE0B2
:104E90002449087820F00F0008702249087840F073
:104EA0008000087020490020086002204FF0704107
:104EB0008DE803001D481E49006800220023FFF70B
:104EC000A5FBADF814001948BDF9141000680222C2
:104ED0004FF0004303F032FD02AA82E8030002A86B
:104EE00090E80C00022100201140184000D1002958
:104EF00002D000208DF816000548006804F09EFFDF
:104F00009DF8160007B000BD8D3B00208E3B0020B1
:104F10008C1F00208C3B0020A41A0020FF1E0020C4
:104F2000041F0020FC1E0020F81E0020881F002007
:104F3000F01E002000B5ADF11C0D0020ADF80800FA
:104F400008F078FC0090009880090190444801998D
:104F50000088B0FBF1F08DF80D004148019A9DF8F2
:104F60000D10008802FB11008001ADF80A003D48D9
:104F7000008838B13B48BDF80A1000884018403816
:104F8000ADF80A0038489DF80D10008840188DF8DB
:104F90000D00354800788DF80C0048E032489DF847
:104FA0000C100088884201D1042000E00020ADF8F8
:104FB000100026E09DF80C00BDF8101005AA04238F
:104FC00008F024F900208DF818009DF81800042836
:104FD00012DA9DF81810BDF808006944097D03F045
:104FE00051FEADF808009DF81800401C8DF818001F
:104FF0009DF818000428ECDBBDF81000001DADF88A
:1050000010000098BDF8101088420BD99DF80D00D3
:105010009DF80C108842CDDCBDF80A00BDF81010D8
:105020008842C7DC9DF80C00401C8DF80C009DF8F0
:105030000D009DF80C108842B0DABDF80800002180
:1050400003F020FEADF80800BDF80800002103F0D1
:1050500019FEADF80800BDF8080007B000BDC04655
:105060005C3C00205E3C0020FC1F00202DE9F0414C
:10507000424C464D8046C8F38140401E02D0401E3F
:105080002AD025E0284620300168880C20D24FF431
:10509000804020603A48D0F802204B0AC1F3033721
:1050A00003F0800322F08F02134347EA0302C0F8A3
:1050B0000220D0F801300E1266F30303C0F801306D
:1050C000026801F0E70722F0E70247EA020102E086
:1050D0004FF00041204601602F4E301D0068C0F3A4
:1050E000C0070FB94020A0624FF40070206409F09F
:1050F0002FF940F0300084F8C800C8F3815040B365
:10510000401E03D0401E1FD002211EE0012007F0E8
:10511000F1FD07460420394604F0F4FE042007F0B0
:10512000E9FD8742FAD1361F366826F07F4007F046
:1051300047FB14480068036807214FF06022300ED7
:1051400098474FF4806020600321042004F0DAFEC9
:1051500006E00420012104F0D5FE0B4807F030FBE7
:10516000284600680A4947F6180700F03F0084F80F
:10517000CB0F084E0F803068BDE8F08140A00C4096
:105180000A600840B4010010BD3786006C1300505F
:1051900070B00C402C200940AC3F00502DE9FF4777
:1051A000484D95F8E700002877D101243D4F85F858
:1051B000E740387B85F8E6007E68C5F8106101A8F5
:1051C00009F09FFB002605F10C00029601AB8DF85B
:1051D000046035490396324606F0BCF8334905F1C0
:1051E000300001AB324606F0B5F8314905F1540004
:1051F00001AB8146324606F0ADF8B96820468847D3
:10520000DFF8BC802B4808F104037A7B007818682B
:10521000C0F3815A22B1BAF1030F04D185F8E140FD
:10522000BAF1030F1ED0BAF1020F1BD0BAF1010F71
:105230002CD14FF08059D9F8A4011F4F4568314651
:105240004FF040521C23032000903846A847D9F85D
:10525000A40131464FF40072092345680094384692
:10526000A84713E0022007F0DBFABAF1030F0CBFE6
:105270004FF47A7142F2107110480068B1FBF0F1FE
:10528000484609F079FB484609F078FB404600683B
:10529000C00802D2304607F0C3FA00200090BDE8F3
:1052A000FF87C0467C3B01000F8D0000A58E0000EB
:1052B000118D00009720002000A00C408C200020C1
:1052C000B03F005098300020ADF1300D46480090BE
:1052D0004648019035200A90009850F8041B009031
:1052E0000291009850F8041B03910090009850F828
:1052F000041B04910090009850F8041B0591009045
:10530000009850F8041B06910090009850F8041B78
:1053100007910090009850F8041B089100900098A5
:1053200050F8041B099100900198011D0191029908
:1053300001600198011D0191039901600198011D0F
:105340000191049901600198011D01910599016085
:105350000198011D0191069901600198011D0191BB
:10536000079901600198011D019108990160019858
:10537000011D0191099901600A98401E0A90ABD164
:10538000009850F8041B00900291009850F8041BFC
:1053900003910090009850F8041B0491009000982D
:1053A00050F8041B05910090009850F8041B0691DA
:1053B00000900198011D0191029901600198011D61
:1053C0000191039901600198011D01910499016007
:1053D0000198011D0191059901600198011D01913C
:1053E000069901600CB0704764F1000000C0002114
:1053F000ADF1300D464800904648019035200A90A6
:10540000009850F8041B00900291009850F8041B7B
:1054100003910090009850F8041B049100900098AC
:1054200050F8041B05910090009850F8041B069159
:105430000090009850F8041B07910090009850F8D5
:10544000041B08910090009850F8041B09910090EB
:105450000198011D0191029901600198011D0191BE
:10546000039901600198011D01910499016001985F
:10547000011D0191059901600198011D0191069995
:1054800001600198011D0191079901600198011DBA
:105490000191089901600198011D0191099901602C
:1054A0000A98401E0A90ABD1009850F8041B009057
:1054B0000291009850F8041B03910090009850F856
:1054C000041B04910090009850F8041B0591009073
:1054D000009850F8041B069100900198011D01915D
:1054E000029901600198011D0191039901600198E1
:1054F000011D0191049901600198011D0191059917
:1055000001600198011D0191069901600CB070477E
:1055100018F8000000C00021ADF1300D46480090A1
:105520004648019035200A90009850F8041B0090DE
:105530000291009850F8041B03910090009850F8D5
:10554000041B04910090009850F8041B05910090F2
:10555000009850F8041B06910090009850F8041B26
:1055600007910090009850F8041B08910090009853
:1055700050F8041B099100900198011D01910299B6
:1055800001600198011D0191039901600198011DBD
:105590000191049901600198011D01910599016033
:1055A0000198011D0191069901600198011D019169
:1055B000079901600198011D019108990160019806
:1055C000011D0191099901600A98401E0A90ABD112
:1055D000009850F8041B00900291009850F8041BAA
:1055E00003910090009850F8041B049100900098DB
:1055F00050F8041B05910090009850F8041B069188
:1056000000900198011D0191029901600198011D0E
:105610000191039901600198011D019104990160B4
:105620000198011D0191059901600198011D0191E9
:10563000069901600CB07047CCFE000000C000214C
:10564000ADF1300D464800904648019035200A9053
:10565000009850F8041B00900291009850F8041B29
:1056600003910090009850F8041B0491009000985A
:1056700050F8041B05910090009850F8041B069107
:105680000090009850F8041B07910090009850F883
:10569000041B08910090009850F8041B0991009099
:1056A0000198011D0191029901600198011D01916C
:1056B000039901600198011D01910499016001980D
:1056C000011D0191059901600198011D0191069943
:1056D00001600198011D0191079901600198011D68
:1056E0000191089901600198011D019109990160DA
:1056F0000A98401E0A90ABD1009850F8041B009005
:105700000291009850F8041B03910090009850F803
:10571000041B04910090009850F8041B0591009020
:10572000009850F8041B069100900198011D01910A
:10573000029901600198011D01910399016001988E
:10574000011D0191049901600198011D01910599C4
:1057500001600198011D0191069901600CB070472C
:105760008005010000C000212DE9F0430446656872
:10577000A7680E46ADF1140D09F006F995F8D91099
:10578000012903D109F0D8F8002072E04FF0010997
:1057900085F8D99009F0D0F84FF00008C5F8888056
:1057A0003069286170696861307E2876307B2873A3
:1057B00030782870706885F8A48068607069414608
:1057C000092828BF494685F88C10387B02F0E4F898
:1057D000204605F055F8F87E85F88D002046FEF746
:1057E000C1FF50B9387B01F05FFF09F0CDF885F8B3
:1057F000D98009F0A1F844463AE0684608F098FDDF
:10580000009478791C4A019039796B4605F11C00A7
:1058100006F02AF9684608F0B3FD00941749B86805
:105820006A46029005F1380006F092FB287830B9FC
:1058300005F16C00414607F0B5FA114800E0B06888
:10584000A86004F085FEC5F8A000287B012808D1D7
:10585000D5F89C000B4908F0F3FED5F89C0000B188
:105860008460094A05F1C4000421234607F020FCA6
:10587000204605B0BDE8F083557E000039AE00003B
:105880009BE8000039B70000D1E60000F8B5454CB0
:1058900005466078002800F08380B4F95200B4F91E
:1058A0005010884213D0284606F0E4FB38B9216C2A
:1058B00021B1216CC9688D4208BF206C38B1B0F9A4
:1058C000241002224FF0E043284603F037F809F095
:1058D0005BF8074604F5AA700168A94219BF0026C3
:1058E0004660002606606078E168401EC0B26070C5
:1058F000002843D12078E56088B1012005F0D8FE6A
:10590000022005F0D5FE384609F016F805F14000F2
:105910004FF0FF3108F0D7FC09F036F8074604F1E4
:10592000EC0009F043F804F1700009F02BF804F5DD
:10593000907009F03BF804F18C0009F023F804F1B1
:10594000C80009F013F8E660384608F0F5FF05F1E5
:10595000400009F027F805F1780009F007F805F193
:105960009C0009F003F804F1280007F007FE287CEA
:10597000012815D10E2001F097FEF8BD8D4208BF19
:10598000E660384608F0D8FF05F1400009F00AF853
:1059900005F1780008F0EAFF05F19C0008F0E6FF49
:1059A000F8BDC046200D00202DE9FC410746BE6829
:1059B00033687D68986B20F4FA609863AC6B44B1EF
:1059C0003168886B40F4FA6088634FF0FF30BDE8BF
:1059D000FC81AA6329630024EC776C630CE09DF8DA
:1059E0000000296B08706B6B286BAA6B401C286346
:1059F000581C6863501EA863A86B90B93168886B07
:105A000040F4FA6088636A6B6878296B0128A1EB1F
:105A10000201296303D1EB68384698476A6B144644
:105A200046E005F14000694606F0BEF90028D6D5EB
:105A300008F0AAFF204F8046387820B9022006F0EF
:105A4000EFFE01203870404608F076FF1B490868D9
:105A500040F4007008603168886B40F4FA60886335
:105A60006878D8B9696805F1EC0008F02CFC90B1B1
:105A7000AC6308F089FF0646387818B1022006F0BA
:105A80001FFD3C70304608F057FF1027696B286BEC
:105A9000EF77401A2863686BBDE8FC8195F82D000C
:105AA00030B1686B20B1AC6305F19C0008F086FF53
:105AB0002046BDE8FC81C046DE1F002030100040BB
:105AC0000EB500903A4900980968006801426DD00F
:105AD0003848007820B108F057FB3649002008709C
:105AE0003548007830B33648344900680988884220
:105AF00020D1344A1068411C0328116012D92E4964
:105B000000200870002006F0BBFE002006F0D0FE4A
:105B100008F0BFFE012004F091FC29494FF0FF304E
