:020000040000FA
:10000000FC2C0020650F0000950F00007F0D000004
:10001000930F0000930F0000930F000000000000FA
:10002000000000000000000000000000930F00002E
:10003000930F000000000000930F0000930F0000DA
:10004000930F0000930F0000930F0000930F000028
:10005000930F0000930F0000930F0000930F000018
:10006000930F0000930F0000930F0000930F000008
:10007000930F0000930F0000930F0000930F0000F8
:10008000930F0000930F0000930F0000930F0000E8
:10009000930F0000930F0000930F0000930F0000D8
:1000A000930F0000930F0000930F0000930F0000C8
:1000B000930F0000930F0000930F0000930F0000B8
:1000C000930F0000930F000010B5ADF1180D0391D0
:1000D00002902E48006840690146062088472B4858
:1000E0000068406B0146062088470128F7D1274861
:1000F0000068C06901464FF4A060884700F004F929
:1001000000F0C6F80028FBD020480068C06901460E
:100110004FF48070884700F0F7F800F0B9F8002835
:10012000FBD04FF080400F2100F0CEF84FF0804020
:10013000032100F0E0F816480068029A0068009277
:10014000082101911349002304464FF0804000220A
:10015000A047114800680399406C09224FF0FF3313
:10016000044600914FF080400821A0474FF08040A6
:1001700000F0B6F806480068006904A902464FF08E
:10018000804090470028F5D106B010BDB80100109E
:10019000C4010010006CDC02B401001008B5144862
:1001A0000068006A01464FF48070884700F0ACF8A0
:1001B00000F06EF80028FBD00D480068006A014688
:1001C0004FF4A060884700F09FF800F061F8002825
:1001D000FBD007480068806901460620884704482C
:1001E0000068406B0146062088470228F7D108BD09
:1001F000B80100100EB501910090019800B31148AC
:1002000000688068002102464FF08040904710B996
:100210004FF0FF3015E00B480068C06802A90246A5
:100220004FF0804090479DF80800009908700198B1
:10023000401E01900098401C009001980028DED1DB
:1002400000200EBDC40100100EB501910090019870
:10025000C8B10E48009900680978406802464FF01E
:100260008040904709480068C06802A902464FF0E4
:10027000804090470198401E01900098401C0090DB
:1002800001980028E5D100200EBDC046C401001031
:10029000054801680020890801D3012100E0002100
:1002A00001B101207047C0462820084008B5054824
:1002B00000680069694602464FF080409047002878
:1002C000F5D108BDC4010010ADF1080D01910090F9
:1002D0000098019A143001689143016002B07047A0
:1002E000ADF1080D00900098001D016841F0020179
:1002F000016002B07047ADF1080D019100900198C6
:100300000099086202B070470149012008607047F7
:10031000282008602DE9F04FD04D4FF00108ADF1D5
:10032000140D05F141020490CA48C2F8CF8F076846
:10033000002FFCD0CA4844380290C0210160C64852
:10034000011D0968890805D20168D84B090C41F0E4
:10035000F00119700021001FC2F8FF1FD44ED54CC8
:10036000C7680190B80E12D2780E10D3802086F89C
:100370001B024FF6D801A6F85C1286F80B0200F0BB
:1003800055FAA146D9F8CC00C0F3042004E0A146F8
:1003900059F8040CC0F3046000F052FC00EB277025
:1003A000401C162805DA10F10A0FB8BF6FF00900DB
:1003B00000E0152000F01F0040F4F850A6F8640299
:1003C0002868800828BF47F04067CC49F80EBD0E6A
:1003D00080F0010000F00100086085F0010000F0ED
:1003E00001008860384600F08DFA00220446154668
:1003F00000F02DFC00B945462A46C14D2B68002B64
:10040000FCD0DFF804A30AF1080ACAF81040C5F8C6
:1004100000800AB100F021FC00F084FBB949496872
:1004200080B24C680090B84840F2FF3200232C2183
:10043000A04700F0FDFB044600F009FC4FF0000B64
:1004400000B9C3462B68002BFCD0CAF81440BBF19E
:10045000000FC5F8008001D000F0FFFB00F054FB56
:10046000044600F0F4FB4FF0000B00B9C3462B68C4
:10047000002BFCD0CAF80C40BBF1000FC5F800807F
:1004800001D000F0EAFB00F08FFB044600F0DFFB38
:100490004FF0000B00B9C3462B68002BFCD0CAF804
:1004A0000840BBF1000FC5F8008001D000F0D5FB7B
:1004B000049800F0F3F9044600F0C9FB4FF0000B7C
:1004C00000B9C3462B68002BFCD0CAF80440BBF12E
:1004D000000FC5F8008001D000F0BFFB049908466A
:1004E00000F04AFB884C4000403440F0200084F883
:1004F0000901084600F04CFB40F0100084F80901A7
:10050000084600F0F1FA039000F0A1FB4FF0000B59
:1005100000B9C3462B68002BFCD00398CAF8200012
:10052000BBF1000FC5F8008001D000F096FB0499E4
:10053000084600F045FB400040F0600084F80C01E4
:10054000084600F049FBC00040F0800084F801013B
:10055000084600F04DFB800040F47C40A4F89C016C
:10056000084600F0ADFA039000F071FB4FF0000B6D
:1005700000B9C3462B68002BFCD00398CAF80000D2
:10058000BBF1000FC5F8008001D000F066FB4FF40E
:1005900080002060D9F8580040F21E216FF31F4000
:1005A000814215D9D9F80000D9F80030C0F30365AD
:1005B000C3F3034005B16D1E072805D006280EBF02
:1005C0000720801C00F00F0045EA001006F8080C18
:1005D000C7F38140401E02D0401E28D024E0D9F845
:1005E000D000810C20D24FF480412160D6F8021057
:1005F000420AC0F3033502F0800221F08F010A4362
:1006000045EA0201C6F80210D6F80120031263F38E
:100610000302C6F80120316800F0E70521F0E70188
:1006200045EA0100306002E04FF0004020604FF4E6
:100630000070206400F0F4FA40F0300084F8C80044
:10064000C7F38150002837D0401E0BD0401E27D062
:10065000022126E094022243AC3F005000000940F2
:1006600044600C40404600F015FA05460420294637
:1006700000F07CF9042000F00DFA8542FAD10198CF
:10068000056825F07F4000F0EDF91E4840690368D9
:1006900007214FF06022280E98474FF480602060B9
:1006A0000321042000F062F90DE0C04656620840C4
:1006B0000A600840BC1200500420414600F056F980
:1006C000124800F0CFF9D9F8B0001149114E47F6A1
:1006D000180700F03F0084F8CB0F0A4D0F803068F8
:1006E0002868C16802208847402102980A4C0160AE
:1006F00005B0C4F80080BDE8F08FC046000020437C
:1007000000800C40A001001000A00C40BD37860006
:1007100070B00C402C200940940460421B4838B54E
:100720000468B4F1FF3F08BF002400F06DFA002513
:10073000174818490560012008601749086000F053
:1007400045F91648006820B1154800682046FFF7B3
:10075000E1FD144814490560144C0A686FF35B42CC
:1007600044EA0200086012490868C0F30130012819
:1007700006D10A680F48104040F400320A60086051
:100780000D4908680028FCD138BDC0461C13005034
:10079000840460425C600C400822044380012843CA
:1007A000000120438C21084048200340000039010B
:1007B00004000940FFFFFCFC0C0068421A4898B591
:1007C000D0F8781203680F0F03F0FF03802B28BFC7
:1007D000002300F023F94FF0FF3478B1401E07D01A
:1007E000401E012802D9801E19D01AE0BFB118E0BE
:1007F000381C12D0801E14D1143311E03846401E2C
:100800000BD0801E07D0001F03D0401E09D1163325
:1008100006E0152405E0142403E00A2401E00A336D
:100820005CB2204698BDC046A0100050174870B575
:100830000068C0F3046000F003FA154B0246187814
:1008400000F01F0000F0FCF982421ED0114E124C45
:10085000002101253160111A022905DC11F1020F76
:10086000B8BF6FF0010100E002210818216800F014
:100870001F0141F4F851A3F8661082422560EAD1C5
:100880002068256020683560206870BD881300509E
:1008900006620840980020432C20094038B51849CA
:1008A000164D0446103909686868C1F30342C1F364
:1008B0000353400812D22868050513EB257303D4AF
:1008C000102BA8BF0F2300E00023000412EB2072BE
:1008D00003D4102AA8BF0F2200E0002242EA03122C
:1008E00001F47F4001F0FF03222C40EA024243EA78
:1008F000020024BF01F08041084338BDAC3F0050E6
:10090000881300500146184880B5383800688A0CB2
:10091000C0F38367C0F38F2022D241F3072100295F
:100920000BD54A420021400805D17F0806BF0127A8
:10093000381C4FF6FF70521EF5D1002910DD4FF61E
:10094000FF72400040F00100824207D2780040F080
:1009500001070F2F92BF01200F27101C491EF0D155
:1009600040EA074080BDC046881300502DE9FC4195
:10097000144C154F06468846700809D32068456810
:10098000002101220B461FFA88F000903846A84744
:10099000B00809D3206845680021022201231FFA0C
:1009A00088F000903846A847F00809D320681FFA5D
:1009B00088F600210C220223446800963846A0479E
:1009C000BDE8FC81A401001000A00C400F4908689C
:1009D0000028FCD1104A131D0D49186820F00300AF
:1009E00001430C480068C0080CD2106810F0030FD7
:1009F0000AD041F003001860106800F003000328DB
:100A0000FAD101E041F00101196070470C00684221
:100A100004000020B03F005000400340104A10681E
:100A2000C0F30F314BF69A10884207D111680B20A2
:100A3000B0EB117F14BF002004207047243088429F
:100A400008BF01200BD04BF64130884208BF03207D
:100A500005D0213888420CBF02204FF0FF3070478C
:100A6000181300500949020480B5120C41F8082CF3
:100A7000C0F3074041F8040C0120086004480768EF
:100A8000002FFCD00020086080BDC04644600C40B0
:100A900084088C4302460849084810B5042A07BF59
:100AA0004FF0C0421D234FF080521C230968CC68D0
:100AB0003421A04710BDC046A401001000A00C4086
:100AC000202838BF064809D306480C3000680003C8
:100AD00081158905C0F30930000308437047C046FB
:100AE00000803F408C130050202838BF002008D3DE
:100AF00004480C300068C10C01F44071C0F384500C
:100B0000084370478C1300500548143801680348A7
:100B1000084001F07C4108437047C046FCFCFC00E3
:100B2000881300500549383908680968C0F3870000
:100B300001F0030140EA01207047C04688130050CD
:100B400008B5044B1B689B699847034A0021116054
:100B500008BDC046A801001084046042044908B5DD
:100B6000096849698847034A0021116008BDC046E9
:100B7000A801001084046042222804D303480068BE
:100B8000C0F30070704701207047C0468C130050BE
:100B9000222804D303480068C0F340707047012046
:100BA0007047C0468C13005004481838006800F4A1
:100BB0007C010004000C08437047C04688130050B5
:100BC000202805D303480C300068C0F3015070475B
:100BD000002070478C130050222804D3034800687B
:100BE000C0F3C060704700207047C0468C130050AF
:100BF000222804D303480068C0F345507047002002
:100C00007047C0468C13005008B5FFF707FF012856
:100C100003D1FFF7D3FD142800DAFEE708BD00007A
:100C200002480068C0F3C1407047C0468C130050B2
:100C300002480C380068C0F30D007047881300505C
:100C400001461628A8BFA0F1200108467047EFF31F
:100C5000108072B6704700207047EFF3108062B6C4
:060C600070470020704700
:100C6800002A4AD05FEA000C8B071CD1830722D1E7
:100C7800102A08D370B4103A78C978C0103AFBD259
:100C880070BC103238D0042A2CD3082A05D30C2A79
:100C980024BF08C908C008C908C008C908C0920705
:100CA8002AD0920F22E00B780370491C401C521E78
:100CB80022D08B07F7D1C30714D18307D8D0121FCE
:100CC80012D308C903801B0C4380001D121FF8D2E1
:100CD8000AE008C903701B0A43701B0A83701B0AC9
:100CE800C370001D121FF4D2121D05D00B780370BB
:100CF800491C401C521EF9D1604670470022134619
:100D08000A46194671B510F0030F0BD0002A82BFAE
:100D180000F8011BB2F1010210F0030FF6D1002A0E
:100D280008BF71BD11F0FF0141EA0121042A18D35F
:100D380041EA0141082A0FD30E46102A08D30C466F
:100D48000D46B2F10F0312F00F0272C0103BFCD82F
:100D580012F0080F18BF42C012F0040F18BF40F875
:100D6800041B12F0020F18BF20F8021B12F0010F2B
:100D780018BF017071BDFEE71448B0B5B0F1FF3F70
:100D880001D000F08FF8124D1248A84210D0124836
:100D9800124CA0420CD0001BC71054F8040B10F8DA
:100DA800011B55F8212054F8041B90477F1EF4D1ED
:100DB80000F0EEF80A4D0B4CA54205D002E054F8BD
:100DC800040B8047A542FAD1B0BDC046FFFFFFFF24
:100DD800DCF80100E8F8010000F90100F0F8010072
:100DE8000000000000000000F8B5844640F6FF74DB
:100DF8001CF8013B002210E0481B401E10F8015B64
:100E08007F1E01F8015BF9D103E01CF8010B01F822
:100E1800010B521C5B08082AEADA5808F5D21CF8BC
:100E2800010B1CF8015B05F00F07FF1CC5F3031548
:100E3800122F45EA001508D11CF8016B300A24BFAF
:100E48001CF8010B60F3DF16F719AC42D4D1F8BDDA
:100E580000BF704708B5FFF7FBFFFEE738B50D4C3C
:100E68000546A06820B10C48B0F1FF3F00D080478C
:100E78000A4800688047606810B1014628468847DC
:100E8800206800B18047064800688047FFF7E2FF06
:100E980038BDC04614100020FFFFFFFF20100020BF
:100EA80024100020F8B506460F4D104F7388002413
:100EB80017E0A00000EBC400321851689068D268AF
:100EC80052B9AF420BD00A7855F822200346491C84
:100ED80008461946904701E0FFF7C2FE7388641C74
:100EE800A4B2A342E5DCF8BDDCF80100E8F8010093
:100EF8000C4885460C4885446F4607208743BD4605
:100F08000A486F46076000F042F800F03CF80028F5
:100F180001D0FFF731FF00F00BF80120FFF79EFF2B
:100F2800FEE7C046FC2B0020000100002C1000202A
:100F38000449B1F1FF3F07BF0020011C0868091DE3
:100F48001EF0A2BAFFFFFFFF03490860704702497D
:100F5800091F0860704770472410002008B5FFF784
:100F6800D9FBFFF7C5BFFFF706FF08BDD0F8032080
:100F7800C31D08461946FFF773BED0F8032008467C
:100F88000021FFF7BFBE01207047FEE7FEE770476C
:020F98007047A0
:100F9C0000002000C215000000001000C214000068
:100FAC0000000800EF12000000000400EF11000028
:0E0FBC00000000000000000090FFFF0005068E
:10101000004C00206DBA0000CDD60000CDD60000F7
:10102000CDD60000CDD60000CDD60000CDD6000034
:10103000CDD60000CDD60000CDD60000CDD6000024
:10104000CDD60000CDD6000063DC000000B5ADF1C8
:10105000340DAB4805900021142206A808F09AF937
:10106000A8480078002840F0E681A74800780128C9
:101070000AD0A64800680DF095FAA448006800213F
:101080000022A9A30CF018F8A14800680021002252
:10109000ABA30CF011F801208DF82C0048E0B24809
:1010A0009DF82C100078401C884203D12A208DF82E
:1010B0002D0002E020208DF82D00934800780128B3
:1010C00017D09DF82D0000900598007801900598A4
:1010D00040880290059800790390059890F90510D2
:1010E0008A4804919DF82C1000680022AFA30BF0F1
:1010F000E3FF9DF82D000090059800780190059879
:1011000040880290059800790390059890F90510A1
:101110007F48049100680022B5A300210BF0CCFFAA
:1011200005982A3005909DF82C00401C8DF82C0065
:10113000B7490598814206D90598007818B19DF8FD
:101140002C000A28ABDB9DF82C0001281ED16E482C
:101150000078012807D06D489DF82C100068002207
:10116000BAA30BF0A9FF6A48006800210022B7A3C8
:101170000BF0A2FF6648006800210022B9A30BF023
:101180009BFF9DF82C00401C8DF82C005E480078D9
:1011900001280FD0AA48A94A01789DF82C0052F8DE
:1011A0002110401C594A0091C1B21068BEA3002210
:1011B0000BF082FFA248A149007851F82010544852
:1011C000009100680022B8A300210BF075FF21E117
:1011D0004D48007848B99B494C4800919DF82C1027
:1011E00000680022B3A30BF067FF964948480091BE
:1011F00000680022AFA300210BF05EFF1BE1424814
:101200000078012815D058483D4902782A205043DB
:10121000085C8D4A5449009008782A2101FB00217E
:101220003A4801919DF82C100068A8A300220BF009
:1012300043FF4D4832490278834B2A205043085CD3
:1012400049490090087832492A2202FB0030019077
:10125000086800229DA300210BF02EFFEBE02A4836
:101260000078012815D14048D34902782A205043FC
:10127000085A3D4900900A78D0492A205043085A1C
:1012800023490190086897A3002200210BF014FF66
:10129000D1E01D480078022807D11D4800680021D0
:1012A000002297A30BF008FFC5E017480078032839
:1012B00040F0C180164800680021002295A30BF081
:1012C000FBFEB8E0BE480078012805D106A896A12B
:1012D00012220BF0A1F94EE0B9480078022805D19E
:1012E00006A896A10C220BF097F944E0B4480078C8
:1012F00003280FD106A895A113220BF08DF93AE02F
:10130000D4140020653B0020663B0020401F0020D5
:10131000441F0020AA480078042827D106A890A1DD
:1013200013220BF079F926E04E6F64657320566145
:101330006C756520535720205253534900C046C056
:101340001B5B324A201B5B303B30484E6F64657339
:1013500020202056616C75652020205357202020C6
:10136000205253534900C0466C3B002006A881A17F
:101370000E220BF051F99348007801280BD006A9F2
:101380009DF82C00904A0091401CC1B210687DA3CA
:1013900000220BF091FE06A98C4800910068002203
:1013A00079A300210BF088FE45E0C0462563307824
:1013B00025303278202025303464202025642020F8
:1013C0002025303464007F480078012807D07E480B
:1013D0009DF82C100068002270A30BF06DFE7B4876
:1013E0000068002100226DA30BF066FE23E0C046DA
:1013F0002563307825303278202020202530346451
:10140000202020202564202020202530346400C0A6
:10141000FA1500200A48007800283FF453AF401E18
:101420003FF4D6AE401E3FF4EAAE401E3FF417AF85
:10143000401EC8D0FFE70DB000BDC046943A002062
:10144000643B002014380020DA14002057616974CE
:10145000696E6720666F72206E6F6465732E2E2E24
:1014600000C046C04C6566742042746E3A205365D5
:101470006C656374206E6F64652C205269676874B4
:101480003A2053656C65637420616374696F6E2CD8
:1014900020426F74683A20457865637574652061F1
:1014A0006374696F6E00C046416374696F6E3A2061
:1014B000257300C0496E666F3A20417661696C61A0
:1014C000626C6520465720257300C046496E666FE2
:1014D0003A204E6F646520307825303278204657A8
:1014E00020257300496E666F3A204F414420426CBC
:1014F0006F636B202564206F6620256400C046C0A2
:10150000496E666F3A204F414420436F6D706C65A1
:10151000746500C0496E666F3A204F4144204162B5
:101520006F7274656400C046696E666F3A20424C03
:1015300045204D53202B2055524C00C0696E666FDC
:101540003A20424C45204D5300C046C0696E666F3C
:101550003A204564647973746F6E652055524C006F
:10156000696E666F3A204564647973746F6E6520A6
:1015700055494400696E666F3A20424C45204E6FD3
:101580006E6500C0257300C041647665727469732E
:101590006572204D6F64653A20257300496E666F51
:1015A0003A20526573657420746F20537461636BC5
:1015B00020496D61676500C0FA140020FC1400200A
:1015C000EF1D0020663B0020401F0020441F00202C
:1015D0002DE9F843CC4C0F460646F80B80F0E88125
:1015E000A07AB90F80F07581B80880F06281F80A9E
:1015F00080F03B81E07910B1380980F03381206CB4
:10160000002840F09D803809C0F09D80002501260B
:101610002570BE4866710CF0D7FF28460BF0C6FF58
:10162000BB4904F170002A460DF038F904F1580066
:1016300090E800030CF090FDE378B0EB08004FEA6F
:10164000103071EB09010905012B40EA010006D1B8
:1016500094F86810B0EBC12F01D8A378C3B3E6703B
:10166000D24EA6F115010968A570090A30D360664B
:1016700040F60900A08294F8210000F0F00040F04C
:10168000010084F8210094F8200000F0F00084F8B4
:101690002000A5610DF0FCF806F6FF7211686FF0EE
:1016A000020321F00201116004F11401C6F8FB3FAE
:1016B000CE4AC6F8EB1F11688908FCD3C6F8FB3F79
:1016C000D6F8FF1F41F00201C6F8FF1F0DF0B8F871
:1016D0002E4604F1580080E8600066660AF0D4FCEB
:1016E000607818B9E06840300DF0E2F8C74806604D
:1016F00002200AF0FBFF112006F0D0F8E068007C21
:1017000010B90E2006F0CAF8607A18B1657205208B
:101710000AF0ECFFBE4965710878A57128B10D701B
:1017200004F1EC0004210DF0CBF8B4F95000B4F949
:101730005210884214BF0220072006F069FE8EE096
:10174000380980F08C80B80B77D2780B29D2380C0E
:10175000C0F0538104F13C000DF0A6F8F0B1C1686F
:1017600049680978022919D190F82700400915D253
:10177000206C90F82700400910D3206C80684088C6
:101780000028FAD0206C806840880128F5D0206CB1
:101790000026A064192026640DF07EF827F4004787
:1017A0002BE10AF0B3FD38B1B56930466FF48071B2
:1017B00000224FF00073A847964904F17000002200
:1017C0000DF06CF8B16800254FF0010840F60202F8
:1017D0002572088884F8008082420AD0B0F5C15F83
:1017E00007D00A8B4FF61F60104040F43470088316
:1017F00006E00A8A4FF61F60104040F434700882F9
:1018000075740CF0A9FCD4F85421E36804F5AA71AE
:101810009A4208BFA846266E46B1864226BF301AB5
:10182000401E801B01EB8801000B88602566192093
:101830000DF032F827F48057DFE004F140000DF09E
:1018400033F8061C08D0706830B17568F068B6F9D6
:10185000241000222023A84727F40057CDE027F0CA
:101860000807CAE00020E071F9E70DF011F805461D
:1018700004F13C000DF018F8061C15D0E06810B11A
:1018800078300DF001F8F068E06028460CF0D8FFE1
:101890000CF062FC206660480CF096FE4FF400618C
:1018A00004F1EC000DF00CF8002027F48067E071E3
:1018B000A3E004F14C0528460CF0F6FF03F09AF87B
:1018C00028460CF0F1FF27F0020708B147F00207A5
:1018D00093E020B104200AF009FF0020A0720CF070
:1018E000D7FFB1688046088840F60202824211D0D4
:1018F000B0F5C15F0ED00A8B4FF61F60104040F468
:10190000347008830DE0C046200D002059610000AE
:10191000AD8400000A8A4FF61F60104040F4347016
:10192000088204F1580090E80C00002B08BF002A40
:1019300018D004200BF060FAA0B1A56D0CF00CFCDF
:10194000854226BF401B401E401B000BF060F16823
:10195000708A401840F6C411F06081422CBFB0F587
:10196000FA7FF16040460CF06BFF0AF0CFFC98B1B3
:10197000B56930466FF4807100224FF00073A847BC
:1019800004F13C000CF090FF002808BF47F002076C
:1019900002D019200CF080FF7569002130464FF00D
:1019A00080630A46A84727F0005726E01500044048
:1019B0000CF06EFF014604F144000CF075FF064682
:1019C000B569A80814D29EB125EA0500B0610846A1
:1019D0000CF036FF706870B16DB12A46F068B6F948
:1019E000241075680023A84705E0C0461010044085
:1019F00008460CF025FF27F4804727B104F1EC00DE
:101A000039460CF05DFFBDE8F883C0460000046075
:101A10003D20002061620000E94D000030B5ADF1CD
:101A2000540D8DF84C009348007858B192480068E6
:101A3000002105F083FC08B909209DE19948006860
:101A400004F056F89848007848B998480CF0A2FB82
:101A500096494FF47A6008609349012008709DF818
:101A60004C00002832D10AF075FF052807D19149B2
:101A70008F483CC93CC01EC980E81E0008E08D4963
:101A80008B483CC93CC01CC91CC00EC980E80E0074
:101A900089499C481CC91CC00EC980E80E009B499E
:101AA00099481EC980E81E009948A24900683CC8B0
:101AB0003CC13CC83CC11DC881E81D009F499E48EF
:101AC0001CC91CC00EC980E80E00D7E09DF84C0070
:101AD00001282ED10AF03EFF05282AD0A1487449DA
:101AE00000683CC83CC11CC81CC10DC881E80D0081
:101AF000A248844900681CC81CC10DC881E80D00BB
:101B00009F48814900681DC881E81D0080488949B7
:101B100000683CC83CC13CC83CC11DC881E81D00F0
:101B20009848854900681CC81CC10DC881E80D0093
:101B3000A4E09DF84C0002282ED10AF00BFF0528E6
:101B40002AD091485A4900683CC83CC11CC81CC1F5
:101B50000DC881E80D0089486A4900681CC81CC18D
:101B60000DC881E80D008948674900681DC881E8F3
:101B70001D0067486F4900683CC83CC13CC83CC177
:101B80001DC881E81D007F486B4900681CC81CC146
:101B90000DC881E80D0071E09DF84C0003282CD1A0
:101BA0000AF0D8FE052828D17948414900683CC888
:101BB0003CC11DC881E81D007048524900681CC81E
:101BC0001CC10DC881E80D0072484F4900681DC84E
:101BD00081E81D004E48574900683CC83CC13CC8DC
:101BE0003CC11DC881E81D006648534900681CC8F7
:101BF0001CC10DC881E80D0040E09DF84C00042890
:101C00002ED10AF0A7FE05282AD06348284900688B
:101C10003CC83CC11CC81CC10DC881E80D00574818
:101C2000384900681CC81CC10DC881E80D005B481C
:101C3000354900681DC881E81D0035483D490068E8
:101C40003CC83CC13CC83CC11DC881E81D004D4892
:101C5000394900681CC81CC10DC881E80D000DE0A1
:101C60000548006818B10448006808F0C9FA022065
:101C700082E0C0463D3B0020581F002048480078C5
:101C800010B121490520087046481F49084A074BF2
:101C900001F0F0F84F490860434988200880444823
:101CA0000CE0C046541F00203F3B00207C1E00205B
:101CB000F01D0020B8360020683900203B4908603C
:101CC0003C49012008703B4801783B48007861F3AB
:101CD0004500394908703949087840F0800008709B
:101CE00038483749086039483749086002204FF0C2
:101CF00070418DE803003748024900680022002344
:101D000008E0C046981E00205C1F0020CC3A00204E
:101D1000B03400200AF012FA2D490020086002A811
:101D20000CF0E4F90BA80CF05BF92B480068D8B96B
:101D300006E0C046941D0020B01E00209839002007
:101D4000002002A90BAA0AF053FD2349086022488B
:101D5000006808B903200FE01F48006808F050FA37
:101D600006E0C046883400201B48006808F048FAA6
:101D70001A4901200870002015B030BDA834002099
:101D800070340020AC3400208C34002074340020E7
:101D90009C340020843400209834002080340020BB
:101DA000403B0020D8170020AC1D0020B81D0020AB
:101DB000E03900203C3B0020B01D0020A21D002087
:101DC000BC1D002014200020C01D0020CC1F0020BE
:101DD000443B0020541F0020581F00203D3B0020A2
:101DE00000B5ADF1240D01910090052002A905F088
:101DF00027FFBDF808004FF6FF71814202D1BDF800
:101E0000080060B9BDF80800BDF8083000F47F4054
:101E10000212BC488CA103F0FF030BF007FF05A8DA
:101E20000CF0FCFC03208DF8140005A94FF00040D5
:101E300008F05AFCB44908604FF0804005A908F04A
:101E400053FCB2490860B449B24806F065FCB04999
:101E50000860AF48006810B981A00BF0D9FEAC480B
:101E6000AE4900680CF0CEFB10B185A00BF0D0FE9F
:101E7000AB480CF067F9AB4900200870AA49002074
:101E80000870A84800880BF0F7F9A84900200870EE
:101E9000FFF7DCF8A648006800214FF0FF324FF052
:101EA000FF3304F0D1FC06900698400811D3A148F6
:101EB000007808F0EDFE18B19E4807F027F906E01B
:101EC0009D487AA10CF0D0F89A4806F011F8FFF777
:101ED000BDF806988008C0F0A9800020ADF81C006D
:101EE00095E096480078012800F09E80944800789C
:101EF000002840F0998092490120087082480068CB
:101F000000226DA300210BF0D7F87F480068002164
:101F100000220CF053FB7D480068002100226EA3D4
:101F20000BF0CAF8794800680CF042FB07F030F972
:101F30007AE07E48834902782A205043085C0028D2
:101F400072D00CF029FB79487E4902782A20504350
:101F5000085C0CF0F6FA67E074487A4902782A20A7
:101F60005043085C00285FD07448007801285BD09B
:101F700073480078002857D10CF00EFB6B4871496C
:101F800002782A205043085C08F05EFFADF81C0080
:101F900066486D4ABDF81C1003782A205843115238
:101FA0006248684902782A205043085C002107F003
:101FB0001BFB39E05C490878401C08705A480078DF
:101FC000052802D1584900200870564800880BF0B7
:101FD00053F929E04C480068002100220CF0EEFA89
:101FE00008F0D2F948480068012100220CF0E6FA16
:101FF0004748564A00684FF4E0210AF043FB444842
:10200000534A00684FF4E0210AF03CFB0CE05148D1
:1020100000780028CED0401E3FF463AF401E88D029
:10202000401E99D0401ED5D0FFF710F80698C00882
:1020300001D3FFF70BF806980009FFF42BAF06A8B1
:1020400005F0CEFB26E7C046726657736E4E6F648E
:10205000652076253032642E253032642E303000F3
:102060004572726F7220696E697469616C697A6910
:102070006E6720627574746F6E2070696E730A00EB
:102080004572726F72207265676973746572696EEA
:102090006720627574746F6E2063616C6C6261633B
:1020A0006B2066756E6374696F6E00C0556E6B6EE3
:1020B0006F776E0000C046C057616974696E672013
:1020C000666F72204E6F646520465720757064619C
:1020D00074652E2E2E00C0461B5B324A201B5B30DF
:1020E0003B304857616974696E6720666F72204E95
:1020F0006F6465204657207570646174652E2E2EBE
:1021000000C046C014380020401F0020441F00209B
:10211000481F00209C1F0020583B00203169000010
:1021200071830000EE1D0020EF1D00206C3B00209D
:102130003C1F0020C41D0020CA1D0020663B00205B
:10214000653B0020D4140020FC1400200D00058005
:102150000E000580643B00202DE9F04F09AFADF182
:102160003C0D08900A92388809911E46ADF8180077
:10217000101C08BF002000F08481002700F1010935
:102180004FF0FF3A4FF0010BB8466CE1252940F0C3
:1021900063811078521C0A922D2818BFADF8068072
:1021A00005D15846551CADF8060010780A95302820
:1021B0001CBF4246434605D10A9908785A465B46F9
:1021C000491C0A912A28CDF80080554616D130685E
:1021D00004930A99CDF808A0C01C4B1C20F0030002
:1021E000001D306050F8044C0A93002C08780094CD
:1021F00018D5ADF806B06442009413E044460AE0F6
:10220000610001EBC40140180A99A0F1300408787C
:102210000094491C0A91302801DB3A28F0DBCDF804
:1022200008A004932E282BD10A9908782A2801F1B6
:1022300001010A9111D13068CDF80880C01C20F04E
:102240000300001D306050F8045C002D48BF454677
:1022500008782B46491C0A9111E0454643460AE09E
:10226000690001EBC50140180A99A0F13005087812
:102270002B46491C0A91302801DB3A28F0DB0293F7
:102280000AB1224604926C2804D04C2818BFADF83D
:10229000048005D10A990878ADF804B0491C0A9168
:1022A0000BA9CDF80C800FAB07916428059300F0C3
:1022B0008B80692800F08880BDF818C0752872D01E
:1022C00078286ED06F286AD0702850D063283DD00F
:1022D00073281ED009980A990128A1F101010A91D9
:1022E00015D96B490C68B5F1FF3F03D0A84288BFF0
:1022F0006D1C00D8099D029508A80AA932466B46B4
:10230000A047C7190A99039801F1010974E04046F2
:102310002AE030680A99C01C20F00300001D3060DC
:1023200050F8040CBCF1000F01F10109014608B995
:1023300055A0014607910BF069FF0390B5F1FF3FEF
:102340005BD0A842C4BF281C039056E03068C01C74
:1023500020F00300001D306010F8040C5D468DF87D
:102360002C000A990395584601F1010945E008201F
:1023700035680490E81C20F00300001D306050F820
:10238000041C082210230FA807F0F8FA401E07903B
:10239000402101700A99079801F1010929E00823F9
:1023A00002E0102300E00A230A99306801F10109D4
:1023B000C01C20F00300001D306050F8041CAA422D
:1023C000BCBF2A1C049210E00A99306801F101098F
:1023D000C01C20F00300001D306050F8041CAA420D
:1023E000BCBF2A1C04926FF009030FA807F0C6FABD
:1023F0000790059D281A0390009C241ABDF80650EA
:1024000000945DB906E008A8202109AA0AF07EFE22
:10241000009C7F1C641E0094F5D503980546401E61
:10242000039075B9BDF80600E8B10098401E009011
:1024300019D408A8202109AA0AF068FE00987F1C78
:10244000F4E70798411C0791017809AA08A80AF047
:102450005DFE03987F1CE1E708A809AA0AF056FE72
:102460007F1C09F101094A460A9812F8011C401C18
:1024700000290A907FF48AAE089808B1414601709D
:1024800038460FB0BDE8F08F286E756C6C2900C01F
:10249000503A0100BA482DE9F84F0025B94CB74928
:1024A000056094F8E200002800F06381012800F044
:1024B0002F81B54E02283CD0032840F05A8151F8B4
:1024C000250CD4F8B8100029A0F5C060C4F8D400D9
:1024D000B8BF49420028B8BF4042814226DA4FF0D7
:1024E0008057D7F8A4014568B4F8BC0030214FF4F8
:1024F0007F42082300903046A847D7F8A4014568DA
:10250000B4F8C00004214FF4F802122300903046C2
:10251000A847D7F8A401B4F8D070456820214FF43B
:1025200040620A2330460097A847012584F8D85016
:102530001AE151F8258C0CF053F82F4600B9012709
:102540003946924F38680028FCD0B146012609F17F
:102550000409D9F82CA03E6009B10CF047F8CAF381
:102560000720C4F8BC000CF03BF8AA4600B9B246FC
:102570003B68002BFCD0D9F800B0BAF1000F3E60E8
:1025800001D00CF033F8CBF38440C4F8C0000CF059
:1025900027F8AA4600B9B2463B68002BFCD0D9F810
:1025A0001C90BAF1000F3E6001D00CF01FF8C9F387
:1025B0008120C4F8D000B8F5C061C4F8B81000F0AC
:1025C0009C8094F8D80068B9C4F8D410D4F8C0003E
:1025D000C4F8C800D4F8BC70C4F8C470D4F8D030C3
:1025E000C4F8CC30D4F8D410D4F8BC30002954BF8F
:1025F00002206FF0010004F1C802176801EB4101ED
:102600004018411000EB917107EBA1001060D4F865
:10261000C810C4F8C43000291CDD1E293CDDD4F8E4
:10262000CC0030B93429B4BF15391E21C4F8C81004
:1026300025E02A29BABFD4F8C8000B381E20C4F8F8
:10264000C800D4F8C4003F28B4BF401C3F20C4F8E1
:10265000C4001FE0D4F8CC00032812D011F10B0FF6
:10266000C6BFD4F8C8000B30301CC4F8C800D4F87A
:10267000C4000028C4BF401E051CC4F8C450032574
:1026800008E011F1150FC6BFD4F8C8001530301C92
:10269000C4F8C800C4F8CC504FF08057D7F8A40154
:1026A000B4F8C43030214FF47F4245683648009377
:1026B0000823A847D7F8A40104214FF400321123BE
:1026C000456831480096A847B4F8C860D7F8A40117
:1026D00004214FF4F802122345682B480096A847BE
:1026E000D7F8A40120214FF440620A23B4F8CC604B
:1026F000456825480096A84701E084F8D85040F284
:10270000FF50404502D8801C40452DD208202EE0C5
:1027100051F8251C1E4F4BF2F5204843060A386835
:10272000C0F3814001280AD10AF01AFD09F08EFC9D
:102730000BF062FF3111C010484306EBE03694F80D
:10274000E50030B91348006820F07F408019460842
:1027500001E084F8E5501048310C06600127416023
:102760000E4D8760287808B90B2000E0052084F81A
:10277000E40001F0C1FABDE8F88FC0462D400C40DE
:102780002C500C404030002000A00C4000800C4039
:10279000B43F0050102009403C600C40FA38010062
:1027A00000B5ADF1140D0191009088480068002239
:1027B000062109F073FD0220012104F0B1FF002081
:1027C000FFF72CF910B163A00BF022FA804804F057
:1027D00083FC8049002008707E480122012104F01A
:1027E00065FA012008F0D0F901200BF0ABFD5FA0E5
:1027F0006FF0090100F01EFF774806F005FE7648ED
:102800007649086076490A2008707748754908605B
:1028100071487649086076491C20087076487549E9
:1028200008606A48006801221E2109F037FD7348DC
:10283000002101F0B3FC10B155A00BF0E9F970488C
:10284000006800214FF0FF324FF0FF3303F0FCFF30
:102850000290029840086ED36A48007807F09EFC08
:102860006948007848B1694802F062FB10B150A095
:102870000BF0CEF964490020087062480AF08CFD24
:10288000634860490078097888423ED16148007801
:1028900000283AD060480078022836D1594800789C
:1028A0008DF80C009DF80C0000F00F000A2805DAE6
:1028B0009DF80C0000F00F00303004E09DF80C0093
:1028C00000F00F003730554908709DF80C0000F0FB
:1028D000F00000110A2806DA9DF80C0000F0F00064
:1028E0000011303005E09DF80C0000F0F000001100
:1028F00037304B4908704C4A4C4B424849491268A2
:102900001B680068096800F0AFFC3C48002101F03A
:1029100045FC10B11EA00BF07BF906200BF030FC3B
:102920000022002100B1012101B9012227480068DD
:10293000062109F0B3FC0298800880D32F480021BB
:1029400001F02CFC00283FF47AAF11A00BF060F9E5
:1029500075E7C046456173794C696E6B5F696E6956
:1029600074206661696C656400C046C068747470E8
:10297000733A2F2F7777772E74692E636F6D2F70D0
:10298000726F647563742F63633133353000C046F2
:10299000456173794C696E6B5F72656365697665D5
:1029A0004173796E63206661696C656400C046C0DE
:1029B000456173794C696E6B5F7472616E736D699A
:1029C00074206661696C656400C046C0381F0020D1
:1029D0000016D636351F00200C200020F01F0020E6
:1029E000F41F0020F81F00206F3B0020E41F002090
:1029F000E81F0020EC1F0020B33800200154000025
:102A00002C1F0020D41C0020341F0020981A002006
:102A10004A3B00204B3B0020D51C0020CE38002034
:102A2000CD380020D81C0020DC1C0020E01C002039
:102A30002DE9F047DFF80CA20746AAF13500DFF8D0
:102A4000F8810068800880F0E7800AF089FB8149FE
:102A500008310B6800261A17990D02F101020AD2FB
:102A6000C0F13E0110F10A0F4FEAE101D8BF082181
:102A70008A42B8BF0A1CDFF8C4C1990E0FD2590EA2
:102A80000DD36446143C2168C1F304211629A8BF64
:102A900020392468C4F30464162C0EDB0CE0634C6C
:102AA000D4F87C11C1F304611629A8BF2039246829
:102AB000C4F30444162C00DB203C5118A14616290F
:102AC00005DA11F10A0FB8BF6FF0090100E0152116
:102AD000574C584D01F01F0242F4F85222802A68E8
:102AE00012F0030F18BF0126D20828BF46F00206D5
:102AF0000FB146F00406424692F90740041B052C2C
:102B000004DA9479B44208BF918865D00F28A0F107
:102B10000F0827DB08EB0014A4F1F0084FEA282E79
:102B2000BEF1070F88BF4FF0070E7546062D88BF10
:102B300006255CF82570042404EB850465462C59B1
:102B4000E41B04F0FF05F70824BFC4F307273D4446
:102B5000B70824BFC4F307473D44770828BF05EBF7
:102B6000146501E00025AE465CF82EC0F7080CF0B5
:102B7000FF0424BFCCF307273C44B70824BFCCF3A1
:102B800007473C44770828BF04EB1C64ADB2A8EBB0
:102B90000E27B9EB010105FB07F505F1800504EBF4
:102BA0001524D8BF012103F0FF0334254D435D43B5
:102BB0004FF6FF73B5FBF4F18B4238BF191C802828
:102BC00089B2918005DA10F1800FB8BF6FF07F00F5
:102BD00000E07F20D0719671194800681F291060AD
:102BE0004FF0000008D340F2FF128A4206D2490893
:102BF000401C8A42FBD301E01F219180124F0F3904
:102C0000090940EAC10047EA0001CAF8FB1F002693
:102C1000CAF8FF6FBDE8F0870C490D4F4246082007
:102C20000F60921D1070BDE8F087C0463C11005047
:102C30006E62084024220840242000209C1300508B
:102C4000082009403500094000E7A4803010094001
:102C5000FDFDA400AC3F005001282DE9FE4F40F0DF
:102C6000EB80DFF80CB2DBF8DC00012840F0E180FB
:102C70000220CBF8DC000AF0C9FC012008F03AFF82
:102C80005FEA000805D00120CBF8DC000AF0CEFC9A
:102C9000D4E00BF011FE6B49029000200860012087
:102CA0000AF0AAF8012818BF002003D1002007F07D
:102CB00011FA0120644900900020644F08603868D0
:102CC00011200BF0ABFC00280CBF002401241020C5
:102CD0000BF0A4FC08B144F002040F200BF09EFCA2
:102CE00008B144F004040B200BF098FC28B15848BC
:102CF0000068584E016B308888470A200BF08EFC24
:102D0000002600B101264FF0805A0AF5DC75301C10
:102D100004D02868504E016B308888474F48012600
:102D200006602868816944F0200088474C480660A6
:102D30000BF06EFC00F001010191400814D24948EB
:102D40000BF0F8FB8146B9F1040FF8D0B9F1010F8F
:102D500005D1DAF8D8014268424803219047424938
:102D6000086820F0030008600020FFF761FE2B6870
:102D70003868986B8047019801280DD0B9F1010F90
:102D800005D1DAF8D80142683648314690473649CD
:102D9000086840F0030008602B4806602868416915
:102DA000204688470B200BF039FC20B12868294BBE
:102DB000C16A188888470A200BF030FC20B12868C7
:102DC000254BC16A18888847244803220660244995
:102DD000CBF8DC2000230B602868416B2046884735
:102DE0000128F9D13868042008F084FE044615480B
:102DF0001E490660386808688009FCD300980128DD
:102E000002D1304607F066F90BF0F0FB082008F01D
:102E100071FE07460298CBF8DC6009F003FD07F06D
:102E200091FC0AF003FC57EA040018BF4FF0FF388A
:102E300004E06FF0040801E06FF001084046BDE8CF
:102E4000FE8FC0460C400940000222432C2009405E
:102E5000B80100103C33010038330100282008601D
:102E6000800104430040034024220840141009401C
:102E7000403000202DE9F04705461F461646ADF1CB
:102E8000380DD1B16C480C7802684FF0010808FA8F
:102E900004F0024211D069607EB13046002103F097
:102EA00029FEAE600BF0F4FC644C8146601C007897
:102EB000022804DB48460BF0C3FC0020B8E00028E1
:102EC00070D102F007FA5E49086840F0020008601D
:102ED0000AA80BF03FFADFF86CA15B499AF80200F0
:102EE0000AAA0C9004F1EC0009F046F90AA80BF0CC
:102EF00008FA002619210AAB8DF830609AF8000014
:102F0000524A0B9004F1700008F0E2FE0AA80BF0A0
:102F100021FA9AF803004E490AAA0C9004F5907021
:102F200009F02AF90AA80BF0ECF99AF801008DF8DB
:102F300030801A210AAB474A0B9004F18C0008F04C
:102F4000C7FE4549324604F1C800134608F07CFB31
:102F500042480BF039FB424A3346042104F1280071
:102F60000AF012F94FF6FF70A4F8C40084F8C760A5
:102F7000E67026716671A671E67126720523667287
:102F800004F15802A672314684F86830304682E86F
:102F900003004FF4FA71C4F85C11324AC4F86011AE
:102FA0006078167004EB8001401CC1F85451C0B227
:102FB000607048460BF044FC44461FB903AF3846E6
:102FC0000BF0E8F8386828607868E860387C287486
:102FD000B8696C742862788A6882234EAE61EE61AB
:102FE0006E61F86800B1A861786900B1E861B868FD
:102FF00000B168610021A02205F1280006F0CAF99D
:1030000005F14000002109F04FFF68460BF0FDFB81
:103010001649029505F1780000226B4608F014FB72
:10302000134905F19C0000226B4608F00DFB284671
:103030000EB0BDE8F087C046D4210840200D002026
:103040000020094080390100D9DE0000AD84000075
:10305000E5850000F1AE000015CA000059610000CE
:1030600009B300003C2000203F800000E1D90000AF
:1030700035E800002DE9F0411C4615468C4208BF9A
:10308000854282BF00230022E5E0002C08BF002D0E
:103090000AD100290EBF00286FF000006FF0000178
:1030A00000F0E1F8BDE8F0815FF000085FF0000E8D
:1030B000002C08BF8D429CBF2C1C0025070C47EA42
:1030C00001470E0CB44208BFBD429EBF5FEA0444F4
:1030D00044EA15445FEA0545070A47EA01670E0A14
:1030E000B44208BFBD429EBF5FEA042444EA1564AF
:1030F0005FEA0525470847EAC1774E08B44208BF92
:10310000BD4200F29380870847EA81778E08B44277
:1031100008BFBD427CD8C70847EA4177CE08B44211
:1031200008BFBD4266D8070947EA01770E09B442D5
:1031300008BFBD4250D8470947EAC1674E09B442AB
:1031400008BFBD423AD8870947EA81678E09B44271
:1031500008BFBD4224D8C70947EA4167CE09B44237
:1031600008BFBD420DD8E60146EA5566EF01B142FF
:1031700008BFB84201D3C01BB14158EB08085EEB51
:103180000E0EA60146EA95664FEA8517B14208BFC2
:10319000B84201D3C01BB14158EB08084EEB0E0EEC
:1031A000660146EAD5666F01B14208BFB84201D355
:1031B000C01BB14158EB08084EEB0E0E260146EA43
:1031C00015762F01B14208BFB84201D3C01BB141EF
:1031D00058EB08085EEB0E0EE60046EA5576EF0067
:1031E000B14208BFB84201D3C01BB14158EB080837
:1031F0004EEB0E0EA60046EA9576AF00B14208BF30
:10320000B84201D3C01BB14158EB08084EEB0E0E7B
:10321000660046EAD5766F00B14208BFB84201D3D6
:10322000C01BB14158EB08085EEB0E0EA14208BF6F
:10323000A84201D3401BA14158EB08085EEB0E0EDB
:10324000A34208BFAA423EBF2D0A45EA0465240AEC
:1032500089D3734642461E4617460B460246314600
:103260003846BDE8F08170470FB480B502AFADF1CC
:10327000100D6C4800680121002209F00FF86A481F
:103280000078032803D068480078012804D1B88862
:103290007988BA6802F0DCFE6348007804280DD112
:1032A000B8887988BA6802F0D3FE38785F49087028
:1032B0005F485E496FF0090208F04CF800208DF875
:1032C00008009DF808000A2880F2938025208DF8D8
:1032D00009009DF80900282875DA5348007802286B
:1032E00003D051480078012824D1387B5149087017
:1032F0009DF80920012000210AF0D5FA8DE803008D
:103300004F4A4D484D49126800680968012300F092
:1033100055FB9DF80920012000210AF0C4FA8DE830
:1033200003004A4A4748484912680068096801236F
:1033300000F044FB3C480078032803D03A4800786A
:10334000012819D19DF80920012000210AF0ABFACB
:103350008DE803003E490122012003F023FF9DF880
:103360000920012000210AF09EFA8DE80300384967
:103370000122022003F016FF2B480078042819D1FF
:103380009DF80920012000210AF08DFA8DE8030044
:103390002F490122002003F005FF9DF8092001209C
:1033A00000210AF080FA8DE8030029490122022059
:1033B00003F0F8FE9DF80900401C8DF809009DF807
:1033C0000900282889DB9DF80800401C0A2806DA35
:1033D0009DF808001F4951F8200006F05FFA9DF89B
:1033E0000800401C8DF808009DF808000A28FFF628
:1033F0006DAF0C4800680121012208F04FFF072043
:103400000AF0BEFE0022002100B1012101B9012213
:1034100004480068072108F041FF04B0BDE880407F
:1034200004B07047381F00204B3B0020123C0020A6
:10343000793B0020783B0020E41F0020E81F00209B
:10344000EC1F0020F01F0020F41F0020F81F0020B8
:103450000C200020CC3700202DE9FE4F83460D467E
:10346000DBF80800DBF8044000902868002800F032
:10347000D2800BF00DFAD4F8881021B10BF0E0F9EE
:1034800003202874C7E001212974C4F888500BF088
:10349000D7F994F8A40038B194F88D205F49D4F896
:1034A0009C00114309F008F96F680BF0F1F906462A
:1034B00094F8D80060B917F0704F03D117B1042009
:1034C00009F090FA022009F08DFA012084F8D80062
:1034D00030460BF0B5F90098D0F800A0DAF80400F7
:1034E00040F00200CAF80400DBF80460DBF80830A2
:1034F000D5F800C01F6896F88C101FFA8CF0B7F151
:10350000804F00FA01F080B2019014BF444F454F44
:103510004548A96849B996F88C104FEA810900EB33
:1035200009018A6906F1A6010AE096F88C20DDF807
:1035300004E04FEA820900EB090212697144491E56
:10354000BA6080467960186800F1080EC7F800E09C
:10355000B9684FEA0C1243F6F07CA2F110000CEAB5
:1035600000000143B9601A68B2F1804F14BF2F49BF
:103570002F496F68B7B9D88908EB0907A6F8A600E4
:10358000B86906F1A6028860009F0A60D7F800A01B
:103590001A682F6802F1080E3D01103D674607EAE0
:1035A000050007E008EB0905AD688D60019DED1988
:1035B0006D1E0D60C1F804E08D6828438860D6F860
:1035C000A070586919690843796809688862506A67
:1035D00040F003005062DAF8140040F00100CAF82D
:1035E0001400207830B9616804F16C0005460AF0D7
:1035F0005CFE10B90120BDE8FE8FD4F88800017C84
:10360000012904BF03210174584603F003FA284638
:1036100000210AF04AFE0020BDE8FE8F000006806F
:103620000005002030040020203401001005002097
:1036300040040020F0B5ADF1140D8DF80810009095
:1036400069490320087069481422002105F0A2FE90
:1036500066491020087066499DF9080008700098B6
:103660000AF0D4FD8DF80B0000208DF809009DF8BC
:10367000090004281CDA9DF809005E4951F8200071
:103680000AF0C4FD8DF80C005A499DF809009DF818
:103690000C2051F82000009909F0B2FD40B19DF8CE
:1036A0000900401C8DF809009DF809000428E2DBA0
:1036B0009DF80900042801D1022092E09DF809003C
:1036C0004D49087000999DF80C00401800909DF835
:1036D0000B009DF80C10401A8DF80B0000208DF89F
:1036E00009003DE000208DF80A009DF80A000E2830
:1036F0001FDA9DF80A00414951F820000AF086FDC2
:103700008DF80C003D4C9DF80A00009B9DF80910B7
:103710009DF80C2054F82000C91809F071FD40B143
:103720009DF80A00401C8DF80A009DF80A000E283A
:10373000DFDB9DF80A000E280DDA00999DF80920BC
:103740002F4804F001FF9DF809002B4A9DF80A104C
:10375000401C11540AE09DF80900401C8DF8090036
:103760009DF80B009DF809108842BBDC9DF80B000A
:103770009DF80910884223DD9DF809409DF80960F5
:103780009DF80B20009F9DF809301B489DF80C50B8
:103790009DF80C10A41C921BDB190019521BC918B0
:1037A00004F0D2FE9DF80C109DF80B00401A001D8D
:1037B00001900D4901980A7880180870002010E0E7
:1037C0009DF80B00801C019007490A780198801829
:1037D00008709DF80B200A480099521C04F0B4FEB2
:1037E000002005B0F0BDC0463E200020DC1E0020B9
:1037F000DD1E00202C3B0020DE1E0020F8340020BF
:10380000DF1E00202DE9FC4F83F0004301E02DE98D
:10381000FC4F1F03FF0847EAD2574FEA42284FEAFE
:1038200043095FEA595906D147EA080A1CBF00213B
:103830000020BDE8FC8F57F000575FF4E06E1EF1EA
:10384000FF0EF14505D14FF00000190D0905BDE847
:10385000FC8F002B05D55FF0000AD8F100086AEB59
:1038600007070C03E40844EAD0544FEA40254FEA26
:103870004106760D08D144EA050A19BF002100204F
:10388000191C101CBDE8FC8F44F00054764504D18F
:103890000020090D0905BDE8FC8F002904D55FF063
:1038A000000A6D426AEB0404B6EB090E08D5A24685
:1038B0003C465746AA464546D046CEF1000E4E46F7
:1038C000BEF1360F5CBF4FF0000B23E0BEF1000FDE
:1038D00004BF4FF0000B1AE0CEF1390ABAF120090B
:1038E0002EBF08FA09FB07FA0AFB4BEA080BDEF1C8
:1038F000200A07FA0AFA38BFBA4647FA0EF72DBF70
:1039000028FA0EF8AEF1200E4AFA0EF8D04415EB64
:1039100008057C4154EA050A02BF00210020BDE8E9
:10392000FC8F002C58BF4FF0000A06D55FF0010A4B
:103930005FF0000E6D426EEB0404A6F101066D000F
:103940006441FAD515F4806E11D005F480794BEA04
:10395000090B15F5806554F1000428BF761C0BD2C5
:1039600005F400795BEA090B08BF25F4006525F42E
:10397000E0656D0044EB0404B61CDEBF00210020AE
:10398000BDE8FC8F5FF4E06E1EF1FF0E76450AD3B2
:103990004FF0000013F00043FF21C900C91D0905C5
:1039A0001943BDE8FC8F270547EA1530210B41EA92
:1039B000065141EACA71BDE8FC8F704707B401B4F3
:1039C000F0B505AFADF1340D089300208DF82C0053
:1039D0005D491EC904A880E81E005C48007808B94B
:1039E0000120ACE0089808B90A20089058480168FE
:1039F000087B20F00F00087355480168087B40F0F1
:103A000080000873524800680021816050490968AD
:103A1000387A096988714E490968F86809698860C7
:103A20004B4909687868096908614949096804A827
:103A3000486102AA0220002182E8030000200A90C7
:103A400060E0002009904FE00A9A0120002109F06F
:103A50002AFF0E4607F1100106C9014016EA0200CE
:103A600000D100293DD03A499DF8280009688873A3
:103A700037480A9900680F300278403161F3060236
:103A80000270002100208DE80300324830490068B0
:103A900009680023002208F051FB02AA82E8030013
:103AA00002A890E80C0000260221114016EA03004B
:103AB00000D1002902D105208DF82C000998089921
:103AC000401C81420DD94FF47A700C9009980A2855
:103AD00004D20998204951F820000C900C9805F068
:103AE000DDFE0998401C099008980999884206D97A
:103AF00002A890E86000002E00D1022DA4D00A9800
:103B0000401C0A900A9828280AD202A890E80C00C3
:103B100002210026114016EA030000D1002990D1AD
:103B200002A890E80C00022100201140184000D1AA
:103B3000002902D101208DF82C009DF82C000DB039
:103B4000BDE8F04004B07047DC380100CF380020F9
:103B5000B43A00200C170020CC3700202DE9F04F9C
:103B60000746880FADF1140DC0F0B980002007F0B2
:103B700037F860485B4E4FF0000900F11408C8F8B0
:103B80000090012048F81C6C09F010FD56480AF01E
:103B90001BFD564DBC68CB4640F60A0605F11400E5
:103BA00095F82010EA7895F82130A5F8169082460D
:103BB000C5F818B001F0F0010680012A85F8201040
:103BC00003F0F000A4F8029040F0010085F8210015
:103BD00001D17B7CABB1B8680088A6F108018142B5
:103BE00008D0B0F5C15F05D0218B4FF60F400840DB
:103BF000208304E0218A4FF60F400840208287F896
:103C00001190B868694603F095F968460AF082FB9E
:103C10003346D91F4A1C00E03446666836B1308806
:103C2000834203D0814218BF8242F5D1C4F804A078
:103C3000607B00F0F000607305F13C000AF034FE98
:103C40008068008881421FD082421DD03E8D06B31D
:103C500097F8340097F83560C7F82CB000F0F00002
:103C600087F8340006F0F00040F0010087F83500D6
:103C700007F12803AB619AF80D00A7F82A9000F02D
:103C8000F0008AF80D0004E0DA4605F1580080E8FB
:103C90000006B9680A8A4FF6FF3010400882D8F84B
:103CA00000000028FBD0687AC8F8009070B90120A5
:103CB00009F0A2F801280FD0607B00F0F00040F07E
:103CC000010060730A480AF07FFC05E008F0FAF989
:103CD0000028FBD008F014FAB86848F81C0C05B0AE
:103CE000BDE8F08F01010E04D1150000200D002069
:103CF0000D9E0000081004402DE9F843614C5A4D18
:103D00005A4EDFF870815E4F94F8E4100846401E6A
:103D10000B2864D8DFE800F07B2C430623430623FE
:103D200043067664042907D001220A2945F8212C8C
:103D300014BF0220032004E0202045F8210C0120BC
:103D4000024684F8E200002045F8390C0827C5F83F
:103D5000FF7FC5F8F37F45F8392CBDE8F8830529C6
:103D600014BF09200620002784F8E400376075E0BE
:103D700094F8E170383D0120002FC5F81B0004BF06
:103D80000620002102D00021F160032084F8E40025
:103D9000032045F8010C3160306880085ED294F849
:103DA000E4103348012703290ED00068456800213C
:103DB0006022052300914046A84794F8E4000628B5
:103DC00014BF0A200720CFE7006845680021602261
:103DD0000523022000904046A8470420C4E7FEE7E0
:103DE0002548264F0026012506600E203D6003F081
:103DF00055FD022008F07AFC84F8E45084F8E36072
:103E0000BDE8F883002038600C25786024E04FF08E
:103E10008059D9F8A0010168202088472C3D0F2047
:103E200045F8010C41F61D56C5F80360D9F8A40108
:103E3000466800214FF4C0720723022540460095D2
:103E4000B047D9F8A401C66800214FF4C072072317
:103E50004046B0470120386084F8E45004F178000F
:103E60000AF010FDBDE8F88339400C4038600C4082
:103E7000A401001000A00C402C500C4004800C4009
:103E800034600C40403000202DE9F04F8146ADF108
:103E90001C0D01F01FFA09F041FD0026012804D194
:103EA00009F012FF022808BF012651490868C0F333
:103EB0008150012806D151F80C0C0127010E07FA98
:103EC00001F006434B48007809F042FA4A4D2C466F
:103ED000286038B1FF2204F1400107467F1E01F837
:103EE000012BFBD1D9F800104FF0000801F0FF02C0
:103EF000FE2A1CD0CC4601F0FF0342460127FF2BCF
:103F00000ED0984203D907FA03F31E4201D00220D3
:103F10006AE001F0FF0143EA0808611881F84020D7
:103F20005CF8041F521C01F0FF03FE2BE7D10920AF
:103F300003F02CFEC4F8049004F12400012108F0E1
:103F4000B3FF23683BB3002794354FF0040BBA4608
:103F50000120B840064218D118EA000F04BF07F04C
:103F6000FF0141F4C04104D0E01990F8400059F835
:103F70002010224802F02CFEF8B24FF0FF3109F079
:103F8000F7FC2368C5F800A001E0C5F800B07F1C6D
:103F90002D1D9F42DCD304A80AF0B3F9184D194A2D
:103FA0002878102104AB059004F1080007F090FE7A
:103FB00068460AF0CFF900276A46686803971249F5
:103FC000029004F1600008F0D7F8104951F80D0C88
:103FD000012620F4F85040F4005041F80D0C0C4D2F
:103FE000C1F8FF6F38462E6007B0BDE8F08FC046BD
:103FF000B43F00503F200020FC150020007FC76721
:104000004C3901008DD900005DB900000D30094028
:104010000800094000B5ADF1140D8DE80C00ADF8B5
:104020001010029006208DF812004A4803904A486A
:10403000006806F0E5F849494FF0FF3008809DE838
:104040000C00022100201140184000D1002960D04E
:1040500043480088B0F5505F4DD10398007903289C
:1040600003D006208DF8120068E03E480088012841
:1040700008D03D480078C011400828D33B4800785C
:10408000012824D13B4903980A78007A3849801ADC
:1040900008703848039902783748093104F054FA17
:1040A0003449334A0398097812780918334809319A
:1040B00004F04AFA3348324990F900000870334856
:1040C00031490068086000208DF8120036E0304861
:1040D0000078012803D108208DF812002EE02D4829
:1040E0000078012803D10A208DF8120026E006206E
:1040F0008DF8120022E01A48008843F20141814203
:1041000003D107208DF8120018E006208DF8120068
:1041100014E09DE80C004FF000500021834200D1D4
:104120008A4208D09DE80C004FF080400021834275
:1041300000D18A4202D10A208DF812001648006888
:1041400030B115489DF81210006802460A489047A1
:1041500005B000BD68190020581F0020483B002012
:10416000961D0020CC1F0020A21D0020D01F002083
:10417000141A00203C3B0020001A0020151A0020D1
:10418000081A0020D31F00200C1A0020D41F002082
:10419000D21F0020D11F0020501F002000B5ADF11C
:1041A0001C0D0391029006208DF8140044480078FD
:1041B00010B14448007808B101207EE04248006810
:1041C000002103F0BBF820B14048B0F900000028FE
:1041D00001D4092071E002983D4908603D480490EF
:1041E00004988921C1800498002101713A490498FA
:1041F00008603A49002008603748394908603A4861
:1042000038490860039880B138483849007820F070
:104210000F0040F0020008703449087840F0800038
:1042200008700398324908600CE03049087820F0A3
:104230000F0008702D49087840F0800008702C4964
:10424000002008602B48006878B12B482A49007884
:1042500020F00F0040F00200087006F01FFE254914
:10426000264A0968081810600AE0234822490078A5
:1042700020F00F0040F00100087020490020086085
:10428000194800210C2205F085F802204FF07041FA
:104290008DE803001C4B1A481A490068002200F000
:1042A00051FA0A4908800948B0F90000002802D4F0
:1042B00000208DF814009DF8140007B000BDC04622
:1042C0003D3B00203E3B0020581F0020483B002083
:1042D000501F002068190020142000201820002002
:1042E000BC1D0020C01D0020CC1F0020A01D0020F0
:1042F0009C1D0020443B0020B31D0020B41D002065
:10430000541F0020941D0020154000000EB58DF8AC
:104310000A0004208DF80B004748007810B1474888
:10432000007808B1012086E09DF80A00042805D035
:104330009DF80A00052801D002207CE04048006872
:10434000002102F0FBFF20B13E48B0F90000002838
:1043500001D409206FE03C4940F6080008803B4941
:10436000087820F00F0008703849087840F0800085
:1043700008703749002008603649087840F002008C
:10438000087036483449006808603248314900787E
:1043900020F00C0040F0080008709DF80A00042886
:1043A00009D12F494FF6FF7008802A49087840F05C
:1043B0000100087008E02A494AF6AA200880254929
:1043C000087820F00100087026482649007820F07F
:1043D0000F0040F001000870244B02204FF07041A4
:1043E0008DE80300204818490068002200F0AAF96F
:1043F000144908800020ADF808000FE01C48006850
:1044000042F21071B1FBF0F005F048FABDF8080077
:10441000411CB0F5FA7FADF8081003DC15480088A0
:104420000228EBD113480088022802D100208DF821
:104430000B009DF80B000EBD3D3B00203E3B0020D5
:10444000581F0020483B0020EC380020F83800209E
:10445000F4380020FA38002000390020C01E002067
:10446000FC380020FF380020541F002001CF00003E
:10447000D0390100EE3800202DE9F84F80469246F1
:104480000868DAF80050067800271C46BB46421C34
:10449000242E0A6026D110F8016F521C532E0A6098
:1044A00020D1ED1C25F003052D1D55F8040CE0610D
:1044B000CAF80050208B0090A168E269D8F800008B
:1044C0005346FDF749FE8346D8F8000010B1584422
:1044D000C8F80000DAF800502068E7600127A0EB78
:1044E0000B002060662E05D0002F64D1E169012009
:1044F0000E705FE0208B40B9ED1D25F007050835F3
:10450000A5F1080090E8000309E0ED1C25F0030583
:104510002D1D55F8040C07F0A1FF894680462AA2FC
:104520000CCA4946404604F029FD28BF002705D2A1
:10453000206989F000490127401E206124A20CCA8D
:104540004946404604F05DFD31D3404607F0E8F8A7
:10455000064608F0DEFB0B46024649464046FFF79A
:1045600051F91DA20CCA01F0FDFF07F0E5FA014662
:10457000606904220A2305F001FA401EE0612E2141
:10458000017063692269E06931461B1AE360D21A3F
:104590000A2305F0F3F9002F08BFE06104D0401EA4
:1045A000E0612D210170E0696169081A02E004A050
:1045B000E0610720E060CAF800505846BDE8F88F77
:1045C000286572726F722900000000000000000070
:1045D0000000C0FFFFFFDF41000000000088C34073
:1045E0002DE9FF4104466668A7680D460AF050F9B8
:1045F0003178012903D10AF023F9002091E001214B
:1046000031700AF01DF9287870706878B0706868A9
:104610007060A868B060E868F06028693061287D43
:104620003075687D7075A87DB075A869B061287F08
:104630003077687F7077A87FB0774FF00008C6F8B2
:104640002080C6F83080454675627563B562B563F3
:1046500086F82C50102386F83C3086F82D5086F8CA
:104660003D50786803F092FA204603F075F9204631
:1046700004F09EF870B92C480068C1683868884713
:10468000786803F00BF90AF003F935700AF0D8F8EE
:104690002C4645E0684609F034FE0094387B234AF6
:1046A0000190B9686B4606F1800007F011FB68467F
:1046B00009F050FE00941E4938696A46029006F1DE
:1046C0009C0007F059FDB07830B906F1D0002946BA
:1046D00008F0EAFB17483061707830B906F1EC0059
:1046E000294608F0E1FB1448F06068460AF08DF8AE
:1046F00001958DF800501149029406F584700A2244
:104700006B4606F0A1FFB969FA6906F1400009F0AD
:10471000C3FD0B4A06F16C000421234608F034FD6A
:1047200020460090BDE8FF81D0010010455F0000E9
:10473000B5C3000003E80000B3E70000758900007E
:10474000B5E400002DE9F84F994692468B4606469F
:104750000AF09EF84E4C0090B4F95210B4F9500093
:104760000AAF401A40F6F871014008297CDAB4F922
:104770005000401C6FF31F30A4F85000B4F9508073
:1047800008F0F8FD054606F178000AF07DF8C5F856
:1047900008B085F826A0C5F80490A5F824803D4807
:1047A000EE6097E80C00202100271940104005F129
:1047B000100383E8030004F13C0085F827700368C8
:1047C000002B43D1294607F0ABFF002844D0A6F8C0
:1047D000C08095F8270040F0800085F8270086F813
:1047E000C270A07920B1207810B1A7710120E071CA
:1047F00000980AF025F8206C002845D12078F0B9FF
:104800002079012840D00AF043F80646607988B93B
:10481000A86805F091FC40B930460AF011F804F19F
:10482000EC0004210AF04CF82EE004F1C8000AF074
:1048300029F802E0184901200870304622E00120E2
:1048400009F0B2F819200AF027F81DE004F13C0045
:10485000294607F065FF50B9B4F9500000F6FF7023
:104860006FF31F30A4F850006FF0010809E0A6F8BC
:10487000C08095F8270040F0800085F8270086F872
:10488000C270009809F0DCFF4046BDE8F88FC046D2
:10489000200D0020FDEFFF9F3D200020B0B54568B2
:1048A00084684F48297BADF1180D012916D0217E6F
:1048B000627E4C4B2F7E0143009143EA020101913D
:1048C000494937F0010718BF081CA27E1043029027
:1048D00095F88D000322FF2811D00DE0677E217E20
:1048E0003843A37E019041F00041009143F0004025
:1048F0003E49029095F88D00014304220391FE2069
:104900004DF82200694605F1900003F005FFC5F857
:104910009C00002808BF00205FD0287B344951F854
:10492000200001282BD02068B0F1804F14BF222234
:104930000A22217ED5F89C0008F0A0FA2068B0F188
:10494000804F14BF21220922617ED5F89C0008F017
:1049500095FA2068B0F1804F14BF24220C22A17E6A
:10496000D5F89C0008F08AFA95F88D10FF2933D00D
:104970002068B0F1804F14BF23220B2228E020686A
:10498000B0F1804F14BF21220922217ED5F89C006E
:1049900008F074FA2068B0F1804F14BF22220A2276
:1049A000617ED5F89C0008F069FA2068B0F1804F6C
:1049B00014BF24220C22A17ED5F89C0008F05EFAD8
:1049C0002068B0F1804F14BF23220B2295F88D1080
:1049D000D5F89C0008F052FA012006B0B0BDC046E0
:1049E000000480A0004000800004C0A000200080DF
:1049F00020340100F8B5071C00F0A180B86840F62B
:104A0000030120264A1C02E04068761EF6B260B11F
:104A10005EB10388994218BF9A42F5D1F9681CC863
:104A200028311CC149C881E849007868BA69002664
:104A3000BE6168B3F96848680078022818BF42F080
:104A4000020297F82700002300F00700401E09D05B
:104A5000401E04D0801E08D14FF0805304E04FF078
:104A6000804301E04FF00053324697F827000009D9
:104A700008D397F8270010F0070F03D04FF080708D
:104A800032430343B7F92440084621467C68A047D7
:104A900009F0FEFE2A4C0546B4F95200401C6FF3A3
:104AA0001F30A4F8520004F14C00016881F827601F
:104AB00009F0CFFA284609F0C3FEB4F95000B4F962
:104AC000521088423BD1F86890F8C20000280CBF11
:104AD0000520072003F09CFC04F5AA742568F868FB
:104AE000854208BF656890F8C240002C0CBF04687E
:104AF000341C80F8C2604DB195F8C23023B92868E3
:104B0000A04228BF041C01E085F8C260A4B10D4892
:104B10000068B4F1FF3F12D0B4FBF0F101298CBF63
:104B2000B4FBF0F10121F868783009F0A9FEF868CB
:104B3000783009F0A7FEF8BD012006F031FFF8BD7E
:104B4000200D002038200020ADF1300D504800909D
:104B50005048019039200A90009850F8041B0090AA
:104B60000291009850F8041B03910090009850F8AF
:104B7000041B04910090009850F8041B05910090CC
:104B8000009850F8041B06910090009850F8041B00
:104B900007910090009850F8041B0891009000982D
:104BA00050F8041B099100900198011D0191029990
:104BB00001600198011D0191039901600198011D97
:104BC0000191049901600198011D0191059901600D
:104BD0000198011D0191069901600198011D019143
:104BE000079901600198011D0191089901600198E0
:104BF000011D0191099901600A98401E0A90ABD1EC
:104C0000009850F8041B00900291009850F8041B83
:104C100003910090009850F8041B049100900098B4
:104C200050F8041B05910090009850F8041B069161
:104C30000090009850F8041B07910090009850F8DD
:104C4000041B089100900198011D019102990160D7
:104C50000198011D0191039901600198011D0191C5
:104C6000049901600198011D019105990160019865
:104C7000011D0191069901600198011D019107999B
:104C800001600198011D0191089901600CB0704705
:104C900034E9000000800021ADF1300D5048009053
:104CA0005048019026200A90009850F8041B00906C
:104CB0000291009850F8041B03910090009850F85E
:104CC000041B04910090009850F8041B059100907B
:104CD000009850F8041B06910090009850F8041BAF
:104CE00007910090009850F8041B089100900098DC
:104CF00050F8041B099100900198011D019102993F
:104D000001600198011D0191039901600198011D45
:104D10000191049901600198011D019105990160BB
:104D20000198011D0191069901600198011D0191F1
:104D3000079901600198011D01910899016001988E
:104D4000011D0191099901600A98401E0A90ABD19A
:104D5000009850F8041B00900291009850F8041B32
:104D600003910090009850F8041B04910090009863
:104D700050F8041B05910090009850F8041B069110
:104D80000090009850F8041B07910090009850F88C
:104D9000041B089100900198011D01910299016086
:104DA0000198011D0191039901600198011D019174
:104DB000049901600198011D019105990160019814
:104DC000011D0191069901600198011D019107994A
:104DD00001600198011D0191089901600CB07047B4
:104DE000E816010000C000212DE9FF410646080B2E
:104DF000C0F08E80484C00250127E0682570016ACC
:104E00002772C90803D3C36904212A469847434936
:104E1000A0462A4608F1700009F040FD404809F01C
:104E2000D3FBD8F80C0041683F4C886808B9C868C3
:104E300020B1A4F11C00C5613A490160384605F073
:104E4000CFFE2560394844F81C0CB1684D80B0682D
:104E5000028840F60200904208D0B2F5C15F05D04A
:104E60000B8B4FF60F421A400A8304E00B8A4FF671
:104E70000F421A400A8200F1080C7774ACF1070265
:104E8000531C00E039464F6837B13888844503D059
:104E9000824218BF8342F5D12F464F60487B00F015
:104EA000F00040F00100487308F13C0009F0FCFC00
:104EB0008068008882421BD0834219D0308DC8B1EF
:104EC00096F83400758596F83530F76200F0F000FA
:104ED00086F8340003F0F00040F0010086F8350059
:104EE00006F128024A60487B00F0F000487301E0B8
:104EF000C8F86050B068694602F01CF8684609F0CE
:104F000009FA20680028FCD02560B06844F81C0C21
:104F10000090BDE8FF81C046200D0020A5DA00000A
:104F2000D1150000510007061C10044001010E04B9
:104F300000B5ADF11C0D049005208DF81600404819
:104F4000007810B13F48007808B1012076E03E4873
:104F50000068002102F0F2F908B909206EE0049817
:104F6000007B802801DD022068E03848049902783F
:104F7000374803F0E9FA354B049A049934481B7812
:104F8000127B0D31C01803F0DFFA04992F480A7B19
:104F900000783049801808702D482F49086004981F
:104FA000806888B12D482D49007820F00F0040F02E
:104FB000020008702949087840F0800008700498C1
:104FC0002749806808600CE02449087820F00F0029
:104FD00008702249087840F08000087020490020BD
:104FE000086002204FF070418DE803001D481E4903
:104FF000006800220023FFF7A5FBADF81400194854
:10500000BDF91410006802224FF0004303F08CFD3C
:1050100002AA82E8030002A890E80C000221002006
:105020001140184000D1002902D000208DF8160050
:105030000548006805F0E4F89DF8160007B000BDCB
:105040003D3B00203E3B0020581F00203C3B002001
:10505000281B0020BF1E0020C41E0020BC1E0020F4
:10506000B81E0020541F0020B01E002000B5ADF176
:105070001C0D0020ADF8080008F034FC00900098EA
:1050800080090190444801990088B0FBF1F08DF847
:105090000D004148019A9DF80D10008802FB110097
:1050A0008001ADF80A003D48008838B13B48BDF8A2
:1050B0000A10008840184038ADF80A0038489DF8BA
:1050C0000D10008840188DF80D00354800788DF8D7
:1050D0000C0048E032489DF80C100088884201D14D
:1050E000042000E00020ADF8100026E09DF80C0040
:1050F000BDF8101005AA042308F006F900208DF869
:1051000018009DF81800042812DA9DF81810BDF850
:1051100008006944097D03F01FFEADF808009DF802
:105120001800401C8DF818009DF818000428ECDBCE
:10513000BDF81000001DADF810000098BDF810106B
:1051400088420BD99DF80D009DF80C108842CDDCEB
:10515000BDF80A00BDF810108842C7DC9DF80C00AD
:10516000401C8DF80C009DF80D009DF80C10884235
:10517000B0DABDF80800002103F0EEFDADF808003C
:10518000BDF80800002103F0E7FDADF80800BDF808
:10519000080007B000BDC0460C3C00200E3C0020BB
:1051A000B81F00202DE9F041424C464D8046C8F31F
:1051B0008140401E02D0401E2AD025E028462030E3
:1051C0000168880C20D24FF4804020603A48D0F823
:1051D00002204B0AC1F3033703F0800322F08F0251
:1051E000134347EA0302C0F80220D0F801300E1240
:1051F00066F30303C0F80130026801F0E70722F00C
:10520000E70247EA020102E04FF000412046016058
:105210002F4E301D0068C0F3C0070FB94020A062B8
:105220004FF40070206409F07DF840F0300084F8FD
:10523000C800C8F3815040B3401E03D0401E1FD0A9
:1052400002211EE0012007F0D7FD07460420394661
:1052500005F03AF8042007F0CFFD8742FAD1361F57
:10526000366826F07F4007F08DFB1448006803681D
:1052700007214FF06022300E98474FF48060206085
:105280000321042005F020F806E00420012105F0A8
:105290001BF80B4807F076FB284600680A4947F6DA
:1052A000180700F03F0084F8CB0F084E0F803068DD
:1052B000BDE8F08140A00C400A600840B401001035
:1052C000BD3786006C13005070B00C402C20094094
:1052D000AC3F00502DE9FF47484D95F8E700002806
:1052E00077D101243D4F85F8E740387B85F8E6000B
:1052F0007E68C5F8106101A809F087FA002605F15B
:105300000C00029601AB8DF80460354903963246D5
:1053100006F09AF9334905F1300001AB324606F048
:1053200093F9314905F1540001AB8146324606F04C
:105330008BF9B96820468847DFF8BC802B4808F114
:1053400004037A7B00781868C0F3815A22B1BAF15D
:10535000030F04D185F8E140BAF1030F1ED0BAF172
:10536000020F1BD0BAF1010F2CD14FF08059D9F8A0
:10537000A4011F4F456831464FF040521C230320C3
:1053800000903846A847D9F8A40131464FF400727E
:105390000923456800943846A84713E0022007F027
:1053A00021FBBAF1030F0CBF4FF47A7142F2107176
:1053B00010480068B1FBF0F1484609F061FA484630
:1053C00009F060FA40460068C00802D2304607F093
:1053D00009FB00200090BDE8FF87C046EC380100C3
:1053E000E38D000089900000F58E00003F20002032
:1053F00000A00C4038200020B03F0050403000207A
:105400001FB58DF8081000909DF80800002875D190
:1054100000983E4990F908000870009815300190F6
:1054200001984078012815D100983949407D0870CD
:1054300000983849807D087000990098CA7D3649E7
:10544000007E40EA0220088034480068012104F010
:10545000EDF958E001984078022831D100982C49A4
:10546000407D087000982B49807D08700099009855
:10547000CA7D2949007E40EA0220088000990098F0
:105480004A7E807E264940EA02200880009B0098E0
:105490000099009A1C7F897FC07E537F214A0006B5
:1054A00040EA044040EA03200143116000981E498D
:1054B000C07F087019480068012104F0B7F922E0A4
:1054C00001984078032813D100981149407D087055
:1054D00000981049807D087000990F4844221731C8
:1054E00003F032F80D480068012104F09FF90AE04A
:1054F0000A480068022104F099F904E007480068AE
:10550000022104F093F900901FBDC046361F002011
:10551000D41C0020D51C0020D61C00202C1F0020ED
:10552000D81C0020DC1C0020E01C0020ADF1300D58
:10553000464800904648019035200A90009850F85F
:10554000041B00900291009850F8041B03910090F6
:10555000009850F8041B04910090009850F8041B28
:1055600005910090009850F8041B06910090009857
:1055700050F8041B07910090009850F8041B089104
:105580000090009850F8041B099100900198011DAB
:105590000191029901600198011D01910399016037
:1055A0000198011D0191049901600198011D01916B
:1055B000059901600198011D01910699016001980A
:1055C000011D0191079901600198011D0191089940
:1055D00001600198011D0191099901600A98401E1E
:1055E0000A90ABD1009850F8041B009002910098EB
:1055F00050F8041B03910090009850F8041B04918C
:105600000090009850F8041B05910090009850F805
:10561000041B069100900198011D019102990160FF
:105620000198011D0191039901600198011D0191EB
:10563000049901600198011D01910599016001988B
:10564000011D0191069901600CB0704770F00000D7
:1056500000C00021ADF1300D464800904648019051
:1056600035200A90009850F8041B00900291009891
:1056700050F8041B03910090009850F8041B04910B
:105680000090009850F8041B05910090009850F885
:10569000041B06910090009850F8041B079100909D
:1056A000009850F8041B08910090009850F8041BD3
:1056B000099100900198011D0191029901600198E2
:1056C000011D0191039901600198011D0191049947
:1056D00001600198011D0191059901600198011D6A
:1056E0000191069901600198011D019107990160DE
:1056F0000198011D0191089901600198011D019116
:10570000099901600A98401E0A90ABD1009850F8A0
:10571000041B00900291009850F8041B0391009024
:10572000009850F8041B04910090009850F8041B56
:1057300005910090009850F8041B06910090019884
:10574000011D0191029901600198011D01910399C8
:1057500001600198011D0191049901600198011DEA
:105760000191059901600198011D0191069901605F
:105770000CB0704724F7000000C00021ADF1300DDF
:10578000464800904648019035200A90009850F80D
:10579000041B00900291009850F8041B03910090A4
:1057A000009850F8041B04910090009850F8041BD6
:1057B00005910090009850F8041B06910090009805
:1057C00050F8041B07910090009850F8041B0891B2
:1057D0000090009850F8041B099100900198011D59
:1057E0000191029901600198011D019103990160E5
:1057F0000198011D0191049901600198011D019119
:10580000059901600198011D0191069901600198B7
:10581000011D0191079901600198011D01910899ED
:1058200001600198011D0191099901600A98401ECB
:105830000A90ABD1009850F8041B00900291009898
:1058400050F8041B03910090009850F8041B049139
:105850000090009850F8041B05910090009850F8B3
:10586000041B069100900198011D019102990160AD
:105870000198011D0191039901600198011D019199
:10588000049901600198011D019105990160019839
:10589000011D0191069901600CB07047D8FD000010
:1058A00000C00021ADF1300D4648009046480190FF
:1058B00035200A90009850F8041B0090029100983F
:1058C00050F8041B03910090009850F8041B0491B9
:1058D0000090009850F8041B05910090009850F833
:1058E000041B06910090009850F8041B079100904B
:1058F000009850F8041B08910090009850F8041B81
:10590000099100900198011D01910299016001988F
:10591000011D0191039901600198011D01910499F4
:1059200001600198011D0191059901600198011D17
:105930000191069901600198011D0191079901608B
:105940000198011D0191089901600198011D0191C3
:10595000099901600A98401E0A90ABD1009850F84E
:10596000041B00900291009850F8041B03910090D2
:10597000009850F8041B04910090009850F8041B04
:1059800005910090009850F8041B06910090019832
:10599000011D0191029901600198011D0191039976
:1059A00001600198011D0191049901600198011D98
:1059B0000191059901600198011D0191069901600D
:1059C0000CB070478C04010000C000212DE9F043A9
:1059D00004466568A7680E46ADF1140D08F058FF3F
:1059E00095F8D910012903D108F02AFF002072E0B0
:1059F0004FF0010985F8D99008F022FF4FF0000818
:105A0000C5F888803069286170696861307E2876C1
:105A1000307B287330782870706885F8A4806860BF
:105A200070694146092828BF494685F88C10387BA3
:105A300002F0ACF8204605F07BF8F87E85F88D0082
:105A40002046FEF72BFF50B9387B01F027FF08F006
:105A50001FFF85F8D98008F0F3FE44463AE0684617
:105A600008F04FFC009478791C4A019039796B4614
:105A700005F11C0006F02CF9684608F06BFC009458
:105A80001749B8686A46029005F1380006F074FBC1
:105A9000287830B905F16C00414607F005FA114845
:105AA00000E0B068A86004F0D7FEC5F8A000287B2D
:105AB000012808D1D5F89C000B4908F0A3FDD5F8C2
:105AC0009C0000B18460094A05F1C400042123460A
:105AD00007F05AFB204605B0BDE8F083997F00002F
:105AE00091B00000ABE7000029BA000041E60000D9
:105AF000F8B5454C05466078002800F08380B4F97D
:105B00005200B4F95010884213D0284606F0E2FB48
:105B100038B9216C21B1216CC9688D4208BF206C55
